:020000040000fa
:080000000001040000000000f3
:020000040000fa
:100008009a0100009a0100009a0100009a0100007c
:100018009a0100009a0100009a0100009a0100006c
:100028009a0100009a0100009a0100009a0100005c
:100038009a0100009a0100005a0800009a01000085
:100048009a0100009a0100009a0100009a0100003c
:100058009a0100009a0100009a0100009a0100002c
:100068009a0100009a0100009a0100009a0100001c
:100078009a0100009a0100009a0100009a0100000c
:100088009a0100009a0100009a0100009a010000fc
:100098009a0100009a0100009a0100009a010000ec
:1000a8009a0100009a0100009a0100009a010000dc
:1000b8009a0100009a0100009a0100009a010000cc
:1000c8009a0100009a0100009a0100009a010000bc
:1000d8009a0100009a0100009a0100009a010000ac
:1000e8009a0100009a0100009a0100009a0100009c
:0800f8009a0100009a010000ca
:020000040000fa
:100108009a0100009a0100009a0100009a0100007b
:100118009a0100009a0100009a0100009a0100006b
:100128009a0100009a0100009a0100009a0100005b
:100138009a0100009a0100005a0800009a01000084
:100148009a0100009a0100009a0100009a0100003b
:100158009a0100009a0100009a0100009a0100002b
:100168009a0100009a0100009a0100009a0100001b
:100178009a0100009a0100009a0100009a0100000b
:100188009a0100009a0100009a0100009a010000fb
:100198009a0100009a0100009a0100009a010000eb
:1001a8009a0100009a0100009a0100009a010000db
:1001b8009a0100009a0100009a0100009a010000cb
:1001c8009a0100009a0100009a0100009a010000bb
:1001d8009a0100009a0100009a0100009a010000ab
:1001e8009a0100009a0100009a0100009a0100009b
:0801f8009a0100009a010000c9
:020000040000fa
:10020000af9320000eff21000e01880000000000c7
:10021000000020000000e000020032000001200089
:10022000200288000c000700802f21000100200020
:1002300011000700000020000000e0000200320072
:1002400000000200000000007e120200000000001a
:100250000040da000000fe004440a9000000200039
:100260000000e0000300320000002000a001880030
:100270004440a8000000060091018800800078003a
:100280000000eb0015003700e280400032a0b4000f
:100290009101ba00e280400032a0b4009102ba009d
:1002a000e280400032a0b4000002eb00472bde00e9
:1002b000f507b200602ce10004003a000059eb00a1
:1002c0008301e900fdff3e00040037006128e100e2
:1002d000010032000082eb00040007001101ba00a7
:1002e0000200e000e8ff3a00000006003159ba00c1
:1002f0008301e9000c0032002159ba008301e900b2
:10030000080032000400e00003003a00e2804000f0
:1003100032a0b400f5ff370011d9ba008301e9001b
:10032000faff3a008100e800e180400032a0b4000a
:10033000000006000040da000000fe0003f0a2000a
:10034000889fbe008a9fbe008c1f7800f6000700c1
:10035000fd0033006450e1004f0032006420e100f2
:100360005200320003826c0007003b000905d000f8
:100370000306d000820f54000c065d000200390015
:10038000020032008901780003067800858255005a
:1003900004003d000003fd008103fd008502ea002a
:1003a0008b854200840f720002003b006000100049
:1003b000e08018006011b8000005eb007a28e10029
:1003c0000a00390006007800c75ddd00f707b200bb
:1003d000878075002d003700828171000a01780046
:1003e000610560008180d1000080d3008502e900b2
:1003f000f9ff3b00060440008784480002003b00f0
:1004000060041400e0841c000988a3000700320087
:100410008a81710082817100610164008904d100c8
:100420000884d3008b05e800170037000978a30083
:1004300013003a000b00e000130034008b05e900c4
:100440000804440089844c000a4474000978a3001d
:100450000d003a000b00e000070034008b05e900b6
:100460000804440089844c0001003a000b0020007d
:100470000978a300f7ff32000001eb00020037000b
:10048000828171000a0178006c0007000cf0a7005f
:1004900001f0a000b50037006420e10002003a003e
:1004a000838f6c00b50033000801be000200be005f
:1004b000ae0037000081eb00e7003700889fbe00e8
:1004c0008a9fbe008c1f7800970007009e003300b3
:1004d00003866c006450e1002e0032006420e100cd
:1004e000330032006150e1002f0032006120e10052
:1004f0003100320085855500eb07b000090020006f
:1005000008042000050037000804440089844c00da
:100510000a0031000603430087834b0000015300ab
:1005200081815b00f8ff33000203be000800a000d9
:100530000804440089844c00f6ff3900c639dd0008
:100540008301730001003200130020008904d100f0
:100550000884d3000998a300050032000800a70012
:100560000300a0008904d1000884d3008b05e800b3
:100570008904d1000884d3000001eb000281d2007d
:100580002e00070001f0a1000cf0a70001f0a00070
:10059000760037006420e100780032000801be00d8
:1005a0000200be00f7ff37006120e1007300320057
:1005b0006000b800f3ff37000000200001f82700ba
:1005c000f0ff37000001be00420007000470a700e2
:1005d00003f0a10003f8a30013003a006509b1007d
:1005e00010003200090035006928e10002003500e2
:1005f0000100280000000500000040008180480044
:100600008502e900fcff3a0000000600f88f420076
:10061000050035008100d1000080d3008502e8008c
:10062000fcff3a00000006008000eb00000005001f
:100630004f89de008201780015013700810020001b
:10064000618055000b003d000b00200061fe2f0073
:100650000100e1001d00340082817100610164002d
:100660008904d1000884d3000000e800faff3a00b2
:10067000710020006100640003007000020060004f
:100680000900320061044400e0844c000988a500a0
:10069000050032008b05e8006808e10002003a001e
:1006a0008904d1000884d300f20f20000258e10031
:1006b00005003d00c75ddd00f907b20089807500c7
:1006c00008007800000006000bf827008b00780077
:1006d00000000500c70ade00f107b200f50fb20006
:1006e00008003200e1cf4200020032000170a00099
:1006f00024000500810f700001003200040805008d
:1007000044000500810f700002003a00140005004b
:100710008502e9000000400081c04800fcff3b006a
:100720000170a000240005000004be00e9ff0700de
:100730000003be000405be000200be00e5ff070086
:10074000844f7500000006000200be006450e10006
:10075000050036006420e100020036000968a300ad
:1007600001003a000800be000160a0004f067800ba
:100770004f05be004f04be0000000600f0ff2f0032
:10078000f1ff2700f9ff3700889fbe008a9fbe0057
:100790008c1f7800e4ff0700ebff330003866c003a
:1007a0006450e100240032006420e10027003200a0
:1007b0006150e100220032006120e100210032009e
:1007c0008b854200eb07b1000134b800003ab80055
:1007d0000804420089844a00013ab8000030b80099
:1007e0008880400009014a000400330000004000f6
:1007f00081804800020149008b05e900c909dd003c
:10080000830170000100320013002000c814de00d4
:100810004814dd004709de001200b200c808de00ff
:100820000884700085ff070001f0a1000cf0a7000c
:1008300001f0a000cdff37006120e100cfff3200c2
:100840000801be000200be00f7ff37006150e10062
:10085000fcff3a00c9ff3700889fbe008a9fbe0098
:100860008c9fbe00820578000004be0099ff07003f
:100870000800be006420e1000700390002003a00d1
:10088000f1ff2700f0ff2f000160a00012022000fe
:10089000c2498800550037006120e10003003a009a
:1008a0000b00a70001f823005000370001f0a10061
:1008b0000200210093642400520007000800be00db
:1008c00004003500b2fd2000930c2400af000700a7
:1008d0000004be000005eb000b00a6004f0dde007b
:1008e00001f0a1000004be0032982f0023ea23008b
:1008f000a5ff07000001eb0003f023000b00a70099
:1009000003f823008efe0700400007000000a70048
:100910000a00a20046ff07000b00e00003003200bf
:100920000200200003f0230084fe070001f0a20073
:100930000006be00020020009304240092ff07007e
:100940000801be007efe0700809fbe000c00be00b6
:1009500022a22a00d3a723008bff07004f01be006d
:1009600077fe07000004be0001f0a1000200200095
:1009700003982300230007000800be00190035007b
:100980000001be0080ff07000006be00b2c52900be
:10099000e36223007cff070022222b00f3942b004c
:1009a00067fe07000c01be0077ff0700e273280016
:1009b00083c0230062fe07000c01be0072ff070027
:1009c00042aa2a00a3e22b005dfe07000c01be0034
:1009d0006dff07000801be006bff07000801be00a5
:1009e00057fe07000a00a70001f0a2004f06be0054
:1009f0004f05be004f04be00000006000001eb00e2
:100a000095ff370014002000b10037000001be0040
:100a100030ff07000470a70003f0a1006509b100d2
:100a2000160032000d0035006828e1000600350090
:100a3000f0ff2f00f1ff27000300e00013003b0050
:100a400001002800000005000000400081804800ef
:100a50008502e900fcff3a0008003700f88f4200e9
:100a600002003c008000eb00000005008100d10086
:100a70000080d3008502e800fcff3a000300e0009c
:100a800002003b0060001000e0801800000006003b
:100a9000881f7800030478000300e00007003d0091
:100aa00060001000e080180060011900e08119006a
:100ab00002003b0001f02d00030037000400070096
:100ac00008f0a70001f0a0004f0478000000060025
:100ad000889fbe008a9fbe000082700004027100e1
:100ae00004827100260032000004be000200be0035
:100af0006011b8006b092000950220000182cf0030
:100b00000a0039000541b1000082cf00070039001a
:100b10000541b1000982cf00040039000541b10050
:100b20000882cf00010039000541b10005425200a2
:100b3000120032000a003b008281710061016400f2
:100b40008100d1000080d3008984d3000884d300c1
:100b50008b05e8000442e800f7ff3a000700370081
:100b60000804440089844c0000004800818048004b
:100b70008b05e9000442e900f9ff3a00affe0700e7
:100b80004f05be004f04be00000006000400200018
:100b900000003700889fbe008a9fbe008c1f78002f
:100ba0004f26dd00e0fe0700e7fe33006120e10094
:100bb000430032006250e10041003e003e00390037
:100bc0006420e1003c003200058255000f003b002c
:100bd0000402e80038003a00800f5300818f5b0068
:100be000350034000800be0003f0a10001f0a600ab
:100bf00003f0a0000cf0a700d1fd0700dbfe3700da
:100c00000603430087834b000c4646000005530053
:100c100081855b00020033000a03be000c00a000c7
:100c20000402e900f6ff3b00850578000602430058
:100c300087824b0004003a006000b80009f0a7006a
:100c400001f0a000c9fe37000002520081825a0064
:100c50000704e000040033000603430087834b00d1
:100c60008b05e900faff3700090578000604be008d
:100c70000203be006011b80070fe0700e00f5200d2
:100c8000e08f5a000700350002003c000c08a3006a
:100c9000040032000601be0003f0a0000cf0a70023
:100ca000a7fd07000a85680001f0a1000af0a7006f
:100cb00001f0a000adfe37000800be00abfe37001b
:100cc000100220000cf0a600c0498800abfe3700df
:100cd000889fbe008a9fbe00841f780092fe070096
:100ce0004f00780011003300f0ff2f00838f6c005d
:100cf00006003b00040565000a00a7000800370055
:100d000009f0a6001000200008003700820f5400f0
:100d1000838f5c00030039001000200001003e00ba
:100d20000000200009f0a7000000ea004f05be0007
:0c0d30004f04be000000e00000000600c0
:020000040000fa
:100d3c000200fa00889fbe000002eb00040f78004e
:100d4c00480037001e027800cfa2de000400be006f
:100d5c0034fe07000004be0024498000cfa2de0050
:100d6c000400be002ffe07000002be000401be00fe
:100d7c000800be00cefd07000002be00b2fd200040
:100d8c0093fc23000400be007cfe07000002be00a2
:100d9c000400be0016ff07000002be00c21e2500a4
:100dac00833b24000400be0074fe07000002be005a
:100dbc000400be0000fe07000002be000402780022
:100dcc00044888001e027800cfa2de000400be009a
:100ddc0014fe07000004be0024498000cfa2de00f0
:100dec000400be000ffe07000002be000401be009e
:100dfc000800be00aefd07000002be00b2fd2000e0
:100e0c0093fc23000400be005cfe07000002be0041
:100e1c000400be00a4fd07000002be00c21e250097
:100e2c00833b24000400be0054fe07000002be00f9
:100e3c000400be00e0fd07000002be0004027800c2
:100e4c001448880004488000154880001e03780070
:100e5c00c233dd000680200006834300048bbe00f5
:100e6c001e0fe800244980009e027800848f5200f7
:100e7c00b4ff3500de22a900de02a900d3a2a9002e
:100e8c00d382a900e022a800e002a800d5a2a80005
:100e9c00d582a800d2e2a900d2c2a900d2a2a90090
:100eac00d282a900d262a900d242a900d222a90002
:100ebc00d202a900d4e2a900d4c2a900d4a2a900ec
:100ecc00d482a900d462a900d442a900d422a900da
:100edc00d402a9000002eb00740d88000002eb00a4
:100eec00540d88000002eb00640d8800740d800026
:100efc000400a1000410a0000420a000740d8800c0
:100f0c00ae61a9000002eb00440d88000002eb006a
:100f1c00240d88000082eb00340d8800440d800005
:100f2c000400a0000410a1000420a000440d8800bf
:100f3c00a861a9000002eb00140d88000002eb0070
:100f4c00f40c88000002eb00040d8800140d8000e6
:100f5c000400a1000410a0000420a000140d8800bf
:100f6c00a261a9000002eb00e40c88000002eb0077
:100f7c00c40c88000082eb00d40c8800e40c8000c8
:100f8c000400a0000410a1000420a000e40c8800c0
:100f9c009c61a9000002eb00b40c88000002eb007d
:100fac00940c88000002eb00a40c8800b40c8000a8
:100fbc000400a1000410a0000420a000b40c8800c0
:100fcc009661a9000002eb00840c88000002eb0083
:100fdc00640c88000002eb00740c8800840c800008
:100fec000400a1000410a0000420a000840c8800c0
:100ffc009061a9000002eb00540c88000002eb0089
:10100c00340c88000002eb00440c8800540c800067
:10101c000400a1000410a0000420a000540c8800bf
:10102c008a61a9000002eb00240c88001400200047
:10103c00040c88000002eb00140c8800240c8000c7
:10104c000400a1000410a0000420a000240c8800bf
:10105c008461a9000002eb00840888000002eb0008
:10106c0034088800840880000440a1000450a100ca
:10107c00840888000417200064088800b4048000e9
:10108c000480a0000490a00004a0a100b404880077
:10109c0084c0a9008cc0a80011e1a8004f04be00b8
:1010ac000080fa00000006003600f800809fbe00a9
:1010bc00849fbe00861f78000000fa0084c0a9003f
:1010cc0044488000e00f520077003a004548800009
:1010dc0024498000110009008402d8000102780024
:1010ec0084027800644880000482420054488800de
:1010fc005548800024498000848f5200020035003e
:10110c000002eb005448880054488000c222dd00e5
:10111c0004802000048242001402be0004488800af
:10112c0015488800740d800067026200e60f5200bb
:10113c0005003200740d80000400a1000410a00012
:10114c000420a000740d8800440d8000670262002a
:10115c00e50f520005003200440d80000400a00091
:10116c000410a1000420a000440d88000448800055
:10117c00540d880084488000340d88009448800009
:10118c00240d8800540d8000844888008448800019
:10119c00ea02420064088000848f52000600390085
:1011ac00440d80000400a1000410a1000420a10043
:1011bc00440d880005003700440d80000400a00099
:1011cc000410a1000420a000440d880065088000d4
:1011dc0084488000848252002448800004aab9000c
:1011ec008402780044062000110009008482d80093
:1011fc000002780084027800844880000482420057
:10120c000482e8009448880014488000f40c88009c
:10121c00a4488000d40c8800b4488000c40c88001a
:10122c00f40c8000a4488800a4488000ea02420024
:10123c0064088000848f520006003900e40c8000a2
:10124c000400a1000410a1000420a100e40c8800fb
:10125c0005003700e40c80000400a0000410a1007d
:10126c000420a000e40c880065088000a4488000dd
:10127c00848252000449800004aab90084027800d8
:10128c0044062000110009008482d8000002780076
:10129c0084027800a4488000048242000482e800a2
:1012ac00b448880046043700444880008402e800b3
:1012bc0024498000848f520053003a00044080007f
:1012cc0015408000044888001548880014488000a8
:1012dc00540d880084488000340d880094488000a8
:1012ec00240d8800540d80008448880084488000b8
:1012fc00ea02420064088000848f52000600390024
:10130c00440d80000400a1000410a1000420a100e1
:10131c00440d880005003700440d80000400a00037
:10132c000410a1000420a000440d88006508800072
:10133c0084488000848252000449800004aab900c9
:10134c008402780044062000110009008482d80031
:10135c0000027800840278008448800004824200f5
:10136c000482e8009448880004488000f40c88004b
:10137c00a4488000d40c8800b4488000c40c8800b9
:10138c00f40c8000a4488800a4488000ea024200c3
:10139c0064088000848f520006003900e40c800041
:1013ac000400a1000410a1000420a100e40c88009a
:1013bc0005003700e40c80000400a0000410a1001c
:1013cc000420a000e40c880065088000a44880007c
:1013dc00848252002448800004aab9008402780058
:1013ec0044062000110009008482d8000002780015
:1013fc0084027800a4488000048242000482e80041
:10140c00b4488800ee03370045488000244980002a
:10141c00110009008402d80000027800e00f52008d
:10142c005b003a0045488000244980001100090007
:10143c008402d800010278000402e800c222dd0018
:10144c0004802000048242001402be00044888007c
:10145c001548880004488000540d8800844880009a
:10146c00340d880094488000240d8800540d8000b1
:10147c008448880084488000ea02420064088000a6
:10148c00848f520006003900440d80000400a10036
:10149c000410a1000420a100440d880005003700b1
:1014ac00440d80000400a0000410a1000420a00042
:1014bc00440d8800650880008448800084825200b6
:1014cc002448800004aab900840278004406200055
:1014dc00110009008482d800000278008402780090
:1014ec0084488000048242000482e800944888000a
:1014fc0014488000f40c8800a4488000d40c8800a8
:10150c00b4488000c40c8800f40c8000a448880007
:10151c00a4488000ea02420064088000848f5200d4
:10152c0006003900e40c80000400a1000410a100a6
:10153c000420a100e40c880005003700e40c8000b6
:10154c000400a0000410a1000420a000e40c8800fa
:10155c0065088000a4488000848252000449800001
:10156c0004aab90084027800440620001100090086
:10157c008482d8000002780084027800a44880009d
:10158c00048242000482e800b44888008c033700cf
:10159c004548800024498000848f52006f003a0037
:1015ac004548800024498000110009008402d800bd
:1015bc00010278000402e800c222dd000480200051
:1015cc00048242001402be000448880015488800ba
:1015dc0014488000540d880084488000340d880025
:1015ec0094488000240d8800540d800084488800a5
:1015fc0084488000ea02420064088000848f520014
:10160c0006003900440d80000400a1000410a10064
:10161c000420a100440d880005003700440d800013
:10162c000400a0000410a1000420a000440d8800b8
:10163c006508800084488000848252000449800040
:10164c0004aab900840278004406200011000900a5
:10165c008482d800000278008402780084488000dc
:10166c00048242000482e80094488800140d800033
:10167c0067026200e50f520005003200140d800075
:10168c000400a0000410a1000420a000140d880088
:10169c00e40c800067026200e60f52000500320085
:1016ac00e40c80000400a1000410a0000420a000a1
:1016bc00e40c880004488000c40c880004488000b6
:1016cc00c40c8800c4488000040d8800d4488000f5
:1016dc00f40c8800c40c8000c4488800c448800006
:1016ec00ea02420064088000848f52000600390030
:1016fc00140d80000400a1000410a1000420a1001e
:10170c00140d880005003700140d80000400a000a3
:10171c000410a1000420a000140d880065088000ae
:10172c00c4488000848252002448800004aab90076
:10173c008402780044062000110009008482d8003d
:10174c000002780084027800c448800004824200c1
:10175c000482e800d448880019033700444880000c
:10176c008402e8002449800004024200848f520065
:10177c0053003a0004408000154080000448880063
:10178c001548880004488000540d88008448800067
:10179c00340d880094488000240d8800540d80007e
:1017ac008448880084488000ea0242006408800073
:1017bc00848f520006003900440d80000400a10003
:1017cc000410a1000420a100440d8800050037007e
:1017dc00440d80000400a0000410a1000420a0000f
:1017ec00440d880065088000844880008482520083
:1017fc000449800004aab900840278004406200041
:10180c00110009008482d80000027800840278005c
:10181c0084488000048242000482e80094488800d6
:10182c0014488000c40c8800c4488000040d880053
:10183c00d4488000f40c8800c40c8000c448880094
:10184c00c4488000ea02420064088000848f520081
:10185c0006003900140d80000400a1000410a10042
:10186c000420a100140d880005003700140d800021
:10187c000400a0000410a1000420a000140d880096
:10188c0065088000c44880008482520004498000ae
:10189c0004aab90084027800440620001100090053
:1018ac008482d8000002780084027800c44880004a
:1018bc00048242000482e800d4488800c002370049
:1018cc004548800024498000110009008402d8009a
:1018dc0000027800e10f52005b003a00454880009e
:1018ec0024498000110009008402d800010278000c
:1018fc000402e800c222dd000480200004824200c1
:10190c001402be0004488800154888001448800062
:10191c00540d880084488000340d88009448800061
:10192c00240d8800540d8000844888008448800071
:10193c00ea02420064088000848f520006003900dd
:10194c00440d80000400a1000410a1000420a1009b
:10195c00440d880005003700440d80000400a000f1
:10196c000410a1000420a000440d8800650880002c
:10197c0084488000848252000449800004aab90083
:10198c008402780044062000110009008482d800eb
:10199c0000027800840278008448800004824200af
:1019ac000482e8009448880004488000c40c880035
:1019bc00c4488000040d8800d4488000f40c8800d2
:1019cc00c40c8000c4488800c4488000ea0242006d
:1019dc0064088000848f520006003900140d8000ca
:1019ec000400a1000410a1000420a100140d880023
:1019fc0005003700140d80000400a0000410a100a5
:101a0c000420a000140d880065088000c4488000e4
:101a1c00848252002448800004aab9008402780011
:101a2c0044062000110009008482d80000027800ce
:101a3c0084027800c4488000048242000482e800da
:101a4c00d44888005e02370024498000040242001a
:101a5c008402780044488000848f52006f003a0062
:101a6c004548800024498000110009008402d800f8
:101a7c00010278000402e800c222dd00048020008c
:101a8c00048242001402be000448880015488800f5
:101a9c00440d800067026200e60f52000500320020
:101aac00440d80000400a1000410a0000420a0003c
:101abc00440d8800740d800067026200e50f52002f
:101acc0005003200740d80000400a0000410a10079
:101adc000420a000740d880004488000240d8800a8
:101aec0004488000240d8800e4488000640d8800c0
:101afc00f4488000540d8800240d8000e4488800d0
:101b0c00e4488000ea02420064088000848f52009e
:101b1c0006003900740d80000400a1000410a1001f
:101b2c000420a100740d880005003700740d80009e
:101b3c000400a0000410a1000420a000740d880073
:101b4c0065088000e44880008482520024488000ac
:101b5c0004aab90084027800440620001100090090
:101b6c008482d8000002780084027800e448800067
:101b7c00048242000482e800f44888001448800083
:101b8c00c40c8800c4488000040d8800d448800030
:101b9c00f40c8800c40c8000c4488800c448800041
:101bac00ea02420064088000848f5200060039006b
:101bbc00140d80000400a1000410a1000420a10059
:101bcc00140d880005003700140d80000400a000df
:101bdc000410a1000420a000140d880065088000ea
:101bec00c4488000848252000449800004aab900d1
:101bfc008402780044062000110009008482d80079
:101c0c000002780084027800c448800004824200fc
:101c1c000482e800d4488800e90137004448800079
:101c2c000403e800244980006322b9000402780010
:101c3c00840f530053003a0004408000154080008c
:101c4c00044888001548880014488000240d88003a
:101c5c00e4488000640d8800f4488000540d88002e
:101c6c00240d8000e4488800e4488000ea02420029
:101c7c0064088000848f520006003900740d8000c7
:101c8c000400a1000410a1000420a100740d880020
:101c9c0005003700740d80000400a0000410a100a2
:101cac000420a000740d880065088000e4488000c2
:101cbc00848252000449800004aab900840278008e
:101ccc0044062000110009008482d800000278002c
:101cdc0084027800e4488000048242000482e80018
:101cec00f448880004488000c40c8800c448800074
:101cfc00040d8800d4488000f40c8800c40c8000cb
:101d0c00c4488800c4488000ea024200640880008d
:101d1c00848f520006003900140d80000400a100cd
:101d2c000410a1000420a100140d88000500370048
:101d3c00140d80000400a0000410a1000420a000d9
:101d4c00140d880065088000c4488000848252000d
:101d5c002448800004aab9008402780044062000bc
:101d6c00110009008482d8000002780084027800f7
:101d7c00c4488000048242000482e800d4488800f1
:101d8c008f0137004548800024498000110009006c
:101d9c008402d80000027800e20f52005b003a0087
:101dac004548800024498000110009008402d800b5
:101dbc00010278000402e800c222dd000480200049
:101dcc00048242001402be000448880015488800b2
:101ddc0004488000240d8800e4488000640d8800cd
:101dec00f4488000540d8800240d8000e4488800dd
:101dfc00e4488000ea02420064088000848f5200ac
:101e0c0006003900740d80000400a1000410a1002c
:101e1c000420a100740d880005003700740d8000ab
:101e2c000400a0000410a1000420a000740d880080
:101e3c0065088000e44880008482520024488000b9
:101e4c0004aab9008402780044062000110009009d
:101e5c008482d8000002780084027800e448800074
:101e6c00048242000482e800f44888001448800090
:101e7c00c40c8800c4488000040d8800d44880003d
:101e8c00f40c8800c40c8000c4488800c44880004e
:101e9c00ea02420064088000848f52000600390078
:101eac00140d80000400a1000410a1000420a10066
:101ebc00140d880005003700140d80000400a000ec
:101ecc000410a1000420a000140d880065088000f7
:101edc00c4488000848252000449800004aab900de
:101eec008402780044062000110009008482d80086
:101efc000002780084027800c4488000048242000a
:101f0c000482e800d44888002d0137002449800061
:101f1c006322b9008402780044488000848f520008
:101f2c006d003a00454880002449800011000900ea
:101f3c008402d800010278000402e800c222dd000d
:101f4c0004802000048242001402be000448880071
:101f5c001548880014488000240d8800e44880004f
:101f6c00640d8800f4488000540d8800240d800016
:101f7c00e4488800e4488000ea02420064088000db
:101f8c00848f520006003900740d80000400a100fb
:101f9c000410a1000420a100740d88000500370076
:101fac00740d80000400a0000410a1000420a00007
:101fbc00740d880065088000e4488000848252001b
:101fcc000449800004aab900840278004406200069
:101fdc00110009008482d800000278008402780085
:101fec00e4488000048242000482e800f44888003f
:101ffc00140d800067026200e60f520005003200eb
:10200c00140d80000400a1000410a0000420a00006
:10201c00140d8800e40c800067026200e50f52008a
:10202c0005003200e40c80000400a0000410a100a4
:10203c000420a000e40c880004488000f40c880004
:10204c00a4488000d40c8800b4488000c40c8800dc
:10205c00f40c8000a4488800a4488000ea024200e6
:10206c0064088000848f520006003900e40c800064
:10207c000400a1000410a1000420a100e40c8800bd
:10208c0005003700e40c80000400a0000410a1003f
:10209c000420a000e40c880065088000a44880009f
:1020ac00848252002448800004aab900840278007b
:1020bc0044062000110009008482d8000002780038
:1020cc0084027800a4488000048242000482e80064
:1020dc00b4488800ba003700444880008402e80005
:1020ec00244980004222dd00848f520053003a00c4
:1020fc000440800015408000044888001548880082
:10210c0004488000240d8800e4488000640d880099
:10211c00f4488000540d8800240d8000e4488800a9
:10212c00e4488000ea02420064088000848f520078
:10213c0006003900740d80000400a1000410a100f9
:10214c000420a100740d880005003700740d800078
:10215c000400a0000410a1000420a000740d88004d
:10216c0065088000e4488000848252002448800086
:10217c0004aab9008402780044062000110009006a
:10218c008482d8000002780084027800e448800041
:10219c00048242000482e800f4488800144880005d
:1021ac00f40c8800a4488000d40c8800b44880004b
:1021bc00c40c8800f40c8000a4488800a44880005b
:1021cc00ea02420064088000848f52000600390045
:1021dc00e40c80000400a1000410a1000420a10064
:1021ec00e40c880005003700e40c80000400a0001b
:1021fc000410a1000420a000e40c880065088000f5
:10220c00a4488000848252000449800004aab900ca
:10221c008402780044062000110009008482d80052
:10222c000002780084027800a448800004824200f6
:10223c000482e800b44888006100370045488000fb
:10224c0024498000110009008402d80000027800a3
:10225c00e30f52005a003a004548800024498000a0
:10226c00110009008402d800010278000402e80081
:10227c00c222dd0004802000048242001402be0051
:10228c00044888001548880014488000240d8800f4
:10229c00e4488000640d8800f4488000540d8800e8
:1022ac00240d8000e4488800e4488000ea024200e3
:1022bc0064088000848f520006003900740d800081
:1022cc000400a1000410a1000420a100740d8800da
:1022dc0005003700740d80000400a0000410a1005c
:1022ec000420a000740d880065088000e44880007c
:1022fc00848252000449800004aab9008402780048
:10230c0044062000110009008482d80000027800e5
:10231c0084027800e4488000048242000482e800d1
:10232c00f448880004488000f40c8800a44880001d
:10233c00d40c8800b4488000c40c8800f40c8000d5
:10234c00a4488800a4488000ea0242006408800087
:10235c00848f520006003900e40c80000400a100b8
:10236c000410a1000420a100e40c88000500370033
:10237c00e40c80000400a0000410a1000420a000c4
:10238c00e40c880065088000a44880008482520018
:10239c002448800004aab900840278004406200076
:1023ac00110009008482d8000002780084027800b1
:1023bc00a4488000048242000482e800b4488800eb
:1023cc00344880000402e800344888003548800016
:1023dc0014498000848f52001b0034000002eb0073
:1023ec003448880044498000e10f52000c003a0048
:1023fc0045488000644880000482420044488800bc
:10240c0024498000c222dd0044488000848f5200a1
:10241c000d003a000002eb00444888000a00370027
:10242c00444880000402e900444888004448800085
:10243c00e10f420004003a00244980004222dd00f2
:10244c000402e90044488800140020007448880005
:10245c000080fa004f0378004f02be004f00be0010
:10246c003600f900004006000600fa00000f780064
:10247c0011079800220798001e0278004449880032
:10248c000000000074488000e00f5200fdff320095
:10249c000002eb0074488800154980002e02900061
:1024ac000482420014498800154980001e029000e5
:1024bc00848f5200030034001e02900014498800df
:1024cc000900370014498000e00f520004003d0061
:1024dc000002eb00144988000000000002003700e5
:1024ec0000000000e7ff37000080fa000000060043
:1024fc000400fa000efa07000400200005f823007f
:10250c00048fbe001e02be000401be000400be000b
:10251c0088f707000002be00048fbe006022b800de
:10252c00a4498800b549880006003700a4498000fa
:10253c00b549800061024200e0824a00a44988004b
:10254c00b5498800a6498000b749800054498000ed
:10255c0065498000840f5300858f5b00f3ff3500c5
:10256c00944980000403ea00854980007449800086
:10257c00060178008500780004007800baff070097
:10258c006022b800a4498800b549880006003700cd
:10259c00a4498000b549800061024200e0824a00f3
:1025ac00a4498800b5498800a6498000b749800035
:1025bc005449800065498000840f5300858f5b006f
:1025cc00f3ff3500964980008549800074498000ee
:1025dc00060178008500780004007800a2ff07004f
:0425ec00ceff3700e7
:020000040000fa
:1025f0000008000020010000000000002009000089
:102600000a000000020000000a0000007d10000027
:102610006400010000000000340900000400000014
:10262000000000002a0900000a000000020000006b
:10263000a086010000010000007dc800000000002d
:102640003809000002000000000000000000000047
:020000040000fa
:0200000401f009
:04000000e5bf000058
:020000040000fa
:0200000401f009
:04000400ff7f00007a
:020000040000fa
:0200000401f009
:04000800ffff0000f6
:00000001FF
