:020000040000fa
:080000000001040000000000f3
:020000040000fa
:100008009a0100009a0100009a0100009a0100007c
:100018009a0100009a0100009a0100009a0100006c
:100028009a0100009a0100009a0100009a0100005c
:100038009a0100009a010000081000009a010000cf
:100048009a0100009a0100009a0100009a0100003c
:100058009a0100009a0100009a0100009a0100002c
:100068009a0100009a0100009a0100009a0100001c
:100078009a0100009a0100009a0100009a0100000c
:100088009a0100009a0100009a0100009a010000fc
:100098009a0100009a0100009a0100009a010000ec
:1000a8009a0100009a0100009a0100009a010000dc
:1000b8009a0100009a0100009a0100009a010000cc
:1000c8009a0100009a0100009a0100009a010000bc
:1000d8009a0100009a0100009a0100009a010000ac
:1000e8009a0100009a0100009a0100009a0100009c
:0800f8009a0100009a010000ca
:020000040000fa
:100108009a0100009a0100009a0100009a0100007b
:100118009a0100009a0100009a0100009a0100006b
:100128009a0100009a0100009a0100009a0100005b
:100138009a0100009a010000081000009a010000ce
:100148009a0100009a0100009a0100009a0100003b
:100158009a0100009a0100009a0100009a0100002b
:100168009a0100009a0100009a0100009a0100001b
:100178009a0100009a0100009a0100009a0100000b
:100188009a0100009a0100009a0100009a010000fb
:100198009a0100009a0100009a0100009a010000eb
:1001a8009a0100009a0100009a0100009a010000db
:1001b8009a0100009a0100009a0100009a010000cb
:1001c8009a0100009a0100009a0100009a010000bb
:1001d8009a0100009a0100009a0100009a010000ab
:1001e8009a0100009a0100009a0100009a0100009b
:0801f8009a0100009a010000c9
:020000040000fa
:100200002f9520000eff21000e0188000000000045
:10021000000020000000e000020032000001200089
:10022000200288000c000700a01c21000100200013
:1002300011000700000020000000e0000200320072
:1002400000000200000000009a12020000000000fe
:100250000040da000000fe004440a90040052000f4
:100260000000e0000300320000002000a001880030
:100270004440a8000000060091018800800078003a
:100280000000eb0015003700e280400032a0b4000f
:100290009101ba00e280400032a0b4009102ba009d
:1002a000e280400032a0b4000002eb00472bde00e9
:1002b000f507b200602ce10004003a000059eb00a1
:1002c0008301e900fdff3e00040037006128e100e2
:1002d000010032000082eb00040007001101ba00a7
:1002e0000200e000e8ff3a00000006003159ba00c1
:1002f0008301e9000c0032002159ba008301e900b2
:10030000080032000400e00003003a00e2804000f0
:1003100032a0b400f5ff370011d9ba008301e9001b
:10032000faff3a008100e800e180400032a0b4000a
:0c033000000006000040da000000fe00a3
:020000040000fa
:10033c0010000000010000009c00000010000000f4
:10034c00010000004e000000100000000100000041
:10035c003400000010000000010000002700000025
:10036c0010000000010000001f0000001000000041
:10037c00010000001a000000100000000100000045
:10038c001600000010000000010000001300000027
:10039c00100000000100000011000000100000001f
:1003ac00010000000f000000040000000400000029
:1003bc0038000000040000000400000034000000bd
:1003cc0004000000040000003000000004000000e5
:1003dc00040000002c0000000400000004000000d9
:1003ec0029000000040000000400000027000000a9
:1003fc0004000000040000002400000004000000c1
:10040c0004000000220000000400000004000000b2
:10041c002000000004000000040000001f00000089
:10042c0004000000040000001d0000000400000097
:10043c00040000001c000000040000000400000088
:10044c001b00000004000000040000001a00000063
:10045c00040000000400000019000000040000006b
:10046c00040000001800000004000000040000005c
:10047c00170000000400000004000000160000003b
:10048c00040000000400000015000000040000003f
:10049c000400000014000000040000000400000030
:1004ac001400000004000000040000001300000011
:1004bc000400000004000000120000000400000012
:1004cc000400000012000000040000000400000002
:1004dc0011000000040000000400000011000000e6
:1004ec0004000000040000001000000004000000e4
:1004fc0004000000100000000400000004000000d4
:10050c001000000004000000040000000f000000b8
:10051c0004000000040000000f00000004000000b4
:10052c00040000000e0000000400000004000000a5
:10053c000e00000004000000040000000e0000008b
:10054c0004000000040000000d0000000400000086
:10055c00040000000d000000040000000400000076
:10056c000d00000004000000040000000d0000005d
:10057c0004000000040000000c0000000400000057
:10058c00040000000c000000040000000400000047
:10059c000c00000004000000040000000c0000002f
:1005ac0004000000040000000b0000000400000028
:1005bc00040000000b000000040000000400000018
:1005cc000b00000004000000040000000b00000001
:1005dc0004000000040000000a00000004000000f9
:1005ec00040000000a0000000400000004000000e9
:1005fc000a00000004000000040000000a000000d3
:10060c0004000000040000000a00000004000000c8
:10061c00040000000a0000000100000010000000af
:10062c00270000000100000010000000270000005f
:10063c000100000010000000260000000100000076
:10064c001000000025000000010000001000000058
:10065c002500000001000000100000002400000034
:10066c000100000010000000240000000100000048
:10067c00100000002300000001000000100000002a
:10068c002300000001000000100000002200000008
:10069c00010000001000000022000000010000001a
:1006ac0010000000210000000100000010000000fc
:1006bc0021000000010000001000000020000000dc
:1006cc0001000000100000002000000001000000ec
:1006dc0010000000200000000100000010000000cd
:1006ec001f00000001000000100000001f000000af
:1006fc0001000000100000001e00000001000000be
:10070c00100000001e00000001000000100000009e
:10071c001e00000001000000100000001d00000081
:10072c0001000000100000001d000000010000008e
:10073c00100000001d00000001000000100000006f
:10074c001c00000001000000100000001c00000054
:10075c0001000000100000001c000000010000005f
:10076c00100000001b000000010000001000000041
:10077c001b00000001000000100000001b00000026
:10078c0001000000100000001a0000000100000031
:10079c00100000001a000000010000001000000012
:1007ac001a00000001000000100000001a000000f8
:1007bc000100000010000000190000000100000002
:1007cc0010000000190000000100000010000000e3
:1007dc0019000000010000001000000019000000ca
:1007ec0001000000100000001800000001000000d3
:1007fc0010000000180000000100000010000000b4
:10080c00180000000100000010000000180000009b
:10081c0001000000100000001700000001000000a3
:10082c001000000017000000010000001000000084
:10083c00170000000100000010000000170000006d
:10084c000100000010000000160000000100000074
:10085c001000000016000000010000001000000055
:10086c00160000000100000010000000160000003f
:10087c000100000010000000160000000100000044
:10088c001000000015000000010000001000000026
:10089c001500000001000000100000001500000011
:1008ac000100000010000000150000000100000015
:1008bc0010000000150000000100000010000000f6
:1008cc0015000000010000001000000014000000e2
:1008dc0001000000100000001400000001000000e6
:1008ec0010000000140000000100000010000000c7
:1008fc0014000000010000001000000014000000b3
:10090c0001000000100000001400000001000000b5
:10091c001000000013000000010000001000000097
:10092c001300000001000000100000001300000084
:10093c000100000010000000130000000100000086
:10094c001000000013000000010000001000000067
:10095c001300000001000000100000001200000055
:10096c000100000010000000120000000100000057
:10097c001000000012000000010000001000000038
:10098c001200000001000000100000001200000026
:10099c000100000010000000120000000100000027
:1009ac001000000012000000010000001000000008
:1009bc0011000000010000001000000011000000f8
:1009cc0001000000100000001100000001000000f8
:1009dc0010000000110000000100000010000000d9
:1009ec0011000000010000001000000011000000c8
:1009fc0001000000100000001100000001000000c8
:100a0c0010000000110000000100000010000000a8
:100a1c001100000001000000100000001000000098
:100a2c000100000010000000100000000100000098
:100a3c001000000010000000010000001000000079
:100a4c001000000001000000100000001000000069
:100a5c000100000010000000100000000100000068
:100a6c001000000010000000010000001000000049
:100a7c001000000001000000100000001000000039
:100a8c0001000000100000000f0000000100000039
:100a9c00100000000f00000001000000100000001a
:100aac000f00000001000000100000000f0000000b
:100abc0001000000100000000f0000000100000009
:100acc00100000000f0000000100000010000000ea
:100adc000f00000001000000100000000f000000db
:100aec0001000000100000000f00000001000000d9
:100afc00100000000f0000000100000010000000ba
:100b0c000e00000001000000100000000e000000ac
:100b1c0001000000100000000e00000001000000a9
:100b2c00100000000e00000001000000100000008a
:100b3c000e00000001000000100000000e0000007c
:100b4c0001000000100000000e0000000100000079
:100b5c00100000000e00000001000000100000005a
:100b6c000e00000001000000100000000e0000004c
:100b7c0001000000100000000e0000000100000049
:100b8c00100000000e00000001000000100000002a
:100b9c000d00000001000000100000000d0000001e
:100bac0001000000100000000d000000010000001a
:100bbc00100000000d0000000100000010000000fb
:100bcc000d00000001000000100000000d000000ee
:100bdc0001000000100000000d00000001000000ea
:100bec00100000000d0000000100000010000000cb
:100bfc000d00000001000000100000000d000000be
:100c0c0001000000100000000d00000001000000b9
:100c1c00100000000d00000001000000100000009a
:100c2c000d00000001000000100000000d0000008d
:100c3c0001000000100000000c000000010000008a
:100c4c00100000000c00000001000000100000006b
:100c5c000c00000001000000100000000c0000005f
:100c6c0001000000100000000c000000010000005a
:100c7c00100000000c00000001000000100000003b
:100c8c000c00000001000000100000000c0000002f
:100c9c0001000000100000000c000000010000002a
:100cac00100000000c00000001000000100000000b
:100cbc000c00000001000000100000000c000000ff
:100ccc0001000000100000000c00000001000000fa
:100cdc00100000000c0000000100000010000000db
:100cec000c00000001000000100000000c000000cf
:100cfc0001000000100000000b00000001000000cb
:100d0c00100000000b0000000100000010000000ab
:100d1c000b00000001000000100000000b000000a0
:100d2c0001000000100000000b000000010000009a
:100d3c00100000000b00000001000000100000007b
:100d4c000b00000001000000100000000b00000070
:100d5c0001000000100000000b000000010000006a
:100d6c00100000000b00000001000000100000004b
:100d7c000b00000001000000100000000b00000040
:100d8c0001000000100000000b000000010000003a
:100d9c00100000000b00000001000000100000001b
:100dac000b00000001000000100000000b00000010
:100dbc0001000000100000000b000000010000000a
:100dcc00100000000b0000000100000010000000eb
:100ddc000b00000001000000100000000a000000e1
:100dec0001000000100000000a00000001000000db
:100dfc00100000000a0000000100000010000000bc
:100e0c000a00000001000000100000000a000000b1
:100e1c0001000000100000000a00000001000000aa
:100e2c00100000000a00000001000000100000008b
:100e3c000a00000001000000100000000a00000081
:100e4c0001000000100000000a000000010000007a
:100e5c00100000000a00000001000000100000005b
:100e6c000a00000001000000100000000a00000051
:100e7c0001000000100000000a000000010000004a
:100e8c00100000000a00000001000000100000002b
:100e9c000a00000001000000100000000a00000021
:100eac0001000000100000000a000000010000001a
:100ebc00100000000a0000000100000010000000fb
:100ecc000a00000001000000100000000a000000f1
:100edc0001000000100000000a00000001000000ea
:100eec00100000000a0000000000000000000000dc
:040efc0000000000f2
:020000040000fa
:100f0000c2050000ba050000a5050000820500002a
:100f10005105000013050000c9040000730400001f
:100f200012040000a703000032030000b602000014
:100f300034020000ab0100001f010000900000001f
:100f40000000000000000000900000001f010000f1
:100f5000ab01000034020000b602000032030000c2
:100f6000a70300001204000073040000c90400007d
:100f7000130500005105000082050000a5050000d2
:100f8000ba050000c20500000800000009000000ca
:100f900006000000070000000a0000000b0000002f
:080fa000100000000100000038
:020000040000fa
:100fa8000200fa00000f78001e0078008008900008
:100fb8001e00780070009000808f500011003400ef
:100fc8001e007800f0009000903e84008080400071
:100fd8001e007800710098001e007800f000900054
:100fe8001e00780000089000808f50001b0034001d
:100ff8001e007800800890001e007800710098009c
:10100800160037001e007800800890001e00780047
:1010180070009000808f500010003d001e00780086
:10102800f0009000903e8400808050001e00780000
:10103800710098001e007800f00090001e007800f3
:1010480000089000808f500004003d001e007800ca
:10105800800890001e007800710098000080fa0057
:10106800000006000000fa00a1488000803e8400cd
:1010780000017800110009008200d8000000e0009b
:1010880009003a00a0498000300d880060498000be
:10109800200d8800c0498000d00c8800804980005d
:1010a800c00c88002f003700a1488000803e8400d3
:1010b80000017800110009008200d800e10f5000fb
:1010c80009003a00a0498000300d8800604980007e
:1010d800200d8800b0498000000d8800704980000c
:1010e800f00c88001f003700a1488000803e840073
:1010f80000017800110009008200d800e20f5000ba
:1011080009003a0090498000600d8800504980002d
:10111800500d8800b0498000000d8800704980009b
:10112800f00c88000f003700a1488000803e840042
:1011380000017800110009008200d800e30f500078
:1011480008003a0090498000600d880050498000ee
:10115800500d8800c0498000d00c8800804980006c
:10116800c00c88000080fa00000006000000fa00a9
:1011780061478000803e840000017800110009006a
:101188008200d8000000e00009003a0060488000b2
:10119800700c880020488000600c8800804880001f
:1011a800100c880040488000000c88002f00370091
:1011b80061478000803e840000017800110009002a
:1011c8008200d800e10f500009003a006048800012
:1011d800700c880020488000600c880070488000ef
:1011e800400c880030488000300c88001f00370011
:1011f80061478000803e84000001780011000900ea
:101208008200d800e20f500009003a0050488000e0
:10121800a00c880010488000900c8800704880005e
:10122800400c880030488000300c88000f003700e0
:1012380061478000803e84000001780011000900a9
:101248008200d800e30f500008003a0050488000a0
:10125800a00c880010488000900c8800804880000e
:10126800100c880040488000000c88000080fa00bc
:10127800000006000000fa007aff0700bbff070025
:101288000080fa00000006000000fa00a148800073
:10129800803e840000017800110009008200d80017
:1012a8000000e0008b003a00204980000000e000c8
:1012b80013003200700d800067006000e60f5000d8
:1012c80005003200700d80000000a1000010a00091
:1012d8000020a000700d8800400d800067006000ad
:1012e800e50f500018003200400d80000000a000fb
:1012f8000010a1000020a000400d88001200370057
:10130800100d800067006000e60f500005003200f5
:10131800100d80000000a1000010a0000020a00017
:10132800100d8800e00c800067006000e50f500099
:1013380005003200e00c80000000a0000010a100b1
:101348000020a000e00c8800a1488000803e8400b6
:1013580080017800110009008300d8008000fd009a
:1013680080007800b0488000008040008000400085
:10137800207a28000080400090007800e044800037
:101388000280200075040700500d8800500d800071
:10139800a0498800a0498000ea0040006008800059
:1013a800808f500006003900400d80000000a10029
:1013b8000010a1000020a100400d880005003700a2
:1013c800400d80000000a0000010a1000020a00037
:1013d800400d8800a249800061088000a049800073
:1013e80080805000304980000088b9008000780073
:1013f8004006200080017800110009008380d80091
:10140800000041000080e80060498800a148800091
:10141800803e840000017800110009008200d80095
:101428008000fd0080007800b04880000080400007
:10143800800040000078280000804000900078007c
:10144800f04480008281200044040700f00c8800ea
:10145800f00c8000c0498800c0498000ea004000c4
:1014680060088000808f500006003900e00c800082
:101478000000a1000010a1000020a100e00c8800dd
:1014880005003700e00c80000000a0000010a1005b
:101498000020a000e00c8800c2498000610880009c
:1014a800c049800080805000404980000088b90011
:1014b80080007800400620008001780011000900b3
:1014c8008380d800000041000080e800804988003f
:1014d800b5013700a1488000803e840000017800f3
:1014e800110009008200d800e10f50008b003a007b
:1014f800204980000000e00013003200100d800039
:1015080067006000e50f500005003200100d8000f4
:101518000000a0000010a1000020a000100d88000d
:10152800e00c800067006000e60f500018003200f1
:10153800e00c80000000a1000010a0000020a00026
:10154800e00c880012003700700d80006700600012
:10155800e60f500005003200700d80000000a10069
:101568000010a0000020a000700d8800400d800031
:1015780067006000e50f500005003200400d800054
:101588000000a0000010a1000020a000400d88006d
:10159800a1488000803e8400800178001100090085
:1015a8008300d8008000fd0080007800b0488000eb
:1015b8000080400080004000007828000080400043
:1015c80090007800e044800002802000e3030700d8
:1015d800500d8800500d8000a0498800a049800067
:1015e800ea00400060088000808f50000600390043
:1015f800400d80000000a1000010a1000020a10003
:10160800400d880005003700400d80000000a00054
:101618000010a1000020a000400d8800a249800011
:1016280061088000a0498000808050004049800007
:101638000088b9008000780040062000800178000a
:10164800110009008380d800000041000080e800f4
:1016580060498800a1488000803e8400000178002d
:10166800110009008200d8008000fd008000780089
:10167800b04880000080400080004000207a2800a8
:101688000080400090007800f044800082812000b3
:10169800b2030700c00c8800c00c8000b049880065
:1016a800b0498000ea00400060088000808f500048
:1016b80006003900100d80000000a1000010a100f4
:1016c8000020a100100d880005003700100d8000d3
:1016d8000000a0000010a1000020a000100d88004c
:1016e800b249800061088000b049800080805000c5
:1016f800304980000088b90080007800400620004a
:1017080080017800110009008380d80000004100a2
:101718000080e8007049880023013700a148800054
:10172800803e840000017800110009008200d80082
:10173800e20f50008b003a00204980000000e000d2
:1017480013003200400d800067006000e60f500073
:1017580005003200400d80000000a1000010a0002c
:101768000020a000400d8800700d80006700600018
:10177800e50f500018003200700d80000000a00036
:101788000010a1000020a000700d88001200370092
:10179800100d800067006000e50f50000500320062
:1017a800100d80000000a0000010a1000020a00083
:1017b800100d8800e00c800067006000e60f500004
:1017c80005003200e00c80000000a1000010a0001d
:1017d8000020a000e00c8800a1488000803e840022
:1017e80080017800110009008300d8008000fd0006
:1017f80080007800b04880000080400080004000f1
:10180800207a28000080400090007800e0448000a2
:101818000280200051030700200d8800200d800061
:101828009049880090498000ea00400060088000e4
:10183800808f500006003900700d80000000a10064
:101848000010a1000020a100700d880005003700dd
:10185800700d80000000a0000010a1000020a00072
:10186800700d8800924980006108800090498000ce
:1018780080805000304980000088b90080007800de
:101888004006200080017800110009008380d800fc
:10189800000041000080e80050498800a14880000d
:1018a800803e840000017800110009008200d80001
:1018b8008000fd0080007800b04880000080400073
:1018c80080004000007828000080400090007800e8
:1018d800f04480008281200020030700c00c8800ab
:1018e800c00c8000b0498800b0498000ea00400080
:1018f80060088000808f500006003900100d8000bd
:101908000000a1000010a1000020a100100d880017
:1019180005003700100d80000000a0000010a10095
:101928000020a000100d8800b249800061088000e6
:10193800b049800080805000404980000088b9008c
:10194800800078004006200080017800110009001e
:101958008380d800000041000080e80070498800ba
:1019680091003700a1488000803e84000001780083
:10197800110009008200d800e30f50008a003a00e5
:10198800204980000000e00013003200100d8000a4
:1019980067006000e60f500005003200100d80005f
:1019a8000000a1000010a0000020a000100d880079
:1019b800e00c800067006000e50f5000180032005e
:1019c800e00c80000000a0000010a1000020a00092
:1019d800e00c880012003700400d800067006000ae
:1019e800e60f500005003200400d80000000a10005
:1019f8000010a0000020a000400d8800700d80009d
:101a080067006000e50f500005003200700d80008f
:101a18000000a0000010a1000020a000700d8800a8
:101a2800a1488000803e84008001780011000900f0
:101a38008300d8008000fd0080007800b048800056
:101a480000804000800040000078280000804000ae
:101a580090007800e044800002802000bf02070068
:101a6800200d8800200d8000904988009049800052
:101a7800ea00400060088000808f500006003900ae
:101a8800700d80000000a1000010a1000020a1003e
:101a9800700d880005003700700d80000000a00060
:101aa8000010a1000020a000700d8800924980005d
:101ab8006108800090498000808050004049800083
:101ac8000088b90080007800400620008001780076
:101ad800110009008380d800000041000080e80060
:101ae80050498800a1488000803e840000017800a9
:101af800110009008200d8008000fd0080007800f5
:101b0800b04880000080400080004000207a280013
:101b18000080400090007800f0448000828120001e
:101b28008e020700f00c8800f00c8000c049880085
:101b3800c0498000ea00400060088000808f5000a3
:101b480006003900e00c80000000a1000010a10090
:101b58000020a100e00c880005003700e00c8000a0
:101b68000000a0000010a1000020a000e00c8800e8
:101b7800c249800061088000c04980008080500010
:101b8800304980000088b9008000780040062000b5
:101b980080017800110009008380d800000041000e
:101ba8000080e80080498800904880000000e80034
:101bb8009048880091488000e0488000808f50005d
:101bc800230035001229ef0020498000e10f500062
:101bd8000f003a00a1488000b04880000080400013
:101be800a0488800a1488000803e84004200dd00b3
:101bf800808f5000160035001429ef00c04880007f
:101c0800b0488800d0488000e048880010003700bd
:101c1800a1488000b048800000805000a04888009b
:101c2800a04880000000e00009003d00c048800096
:101c3800b0488800d0488000e0488800803e840092
:101c4800c200dd00b048800000805000a048880035
:101c58000080fa00000006000200fa00000f780079
:101c68001e007800600090006600b900000078004f
:101c78000080e800000278004f80de0080027800d3
:101c8800e0192000010020000000420081804a0085
:101c9800a401800000f0a4008180d200a101880086
:101ca80010007800a4018800800078001e007800e9
:101cb800310098001e007800600090006600b900ae
:101cc8000000780064004000000178004f80de00ca
:101cd80080017800e0192000010020000000410088
:101ce80081804900a201800000f0a4008180d20018
:101cf800a101880010007800a20188008000780007
:101d08001e007800410098001e007800a4fc07001f
:101d18001e007800700090000000e00017003400fa
:101d28001e007800600090000000e0000b003a0000
:101d3800601a200001002000a201800000f0a40029
:101d48008180d200a101880010007800a2018800db
:101d5800800078001e007800210098001e0078009e
:101d6800f00090001e007800610098001e007800c6
:101d78001100200011089800220037001e0078008a
:101d8800700090000000e00018003d001e00780080
:101d9800600090000000e0000b003a00601a20008c
:101da80001002000a201800000f0a4008180d20080
:101db800a101880010007800a20188008000780046
:101dc8001e007800210098001e0078007000900026
:101dd8008000ea001e007800610098001e0078006c
:101de8008000eb0011089800060037001e007800fc
:101df8008000eb00610098001e0078008000eb0076
:101e0800210098000080fa00000006000000fa0097
:101e18002091200090ff0700a08e20008eff070071
:101e28000080fa00000006000000fa00de22a90087
:101e3800de02a900d3a2a900d382a900e022a8004b
:101e4800001780003000b30000178800d5a2a80052
:101e5800d582a800d2e2a900d2c2a900d2a2a900c4
:101e6800d282a900d262a900d242a900d222a90036
:101e7800d202a900d4e2a900d4c2a900d4a2a90020
:101e8800d482a900d462a900d442a900d422a9000e
:101e9800d402a900ae21ef00aa21ef00ac21ef0087
:101ea800700d80000000a1000010a0000020a0001c
:101eb800700d8800ae61a900a821ef00a421ef00f1
:101ec8000080eb00300d8800400d80000000a0006d
:101ed8000010a1000020a000400d8800a861a90002
:101ee800a221ef009e21ef00a021ef00100d80003d
:101ef8000000a1000010a0000020a000100d880024
:101f0800a261a9009c21ef009821ef000080eb005e
:101f1800d00c8800e00c80000000a0000010a10098
:101f28000020a000e00c88009c61a9009621ef0029
:101f38009221ef009421ef00b00c80000000a10076
:101f48000010a0000020a000b00c88009661a90035
:101f58009021ef008c21ef008e21ef00800c800093
:101f68000000a1000010a0000020a000800c880044
:101f78009061a9008a21ef008621ef008821ef00f7
:101f8800500c80000000a1000010a0000020a0005c
:101f9800500c88008a61a9008421ef0010002000fd
:101fa800000c88008221ef00200c80000000a100b6
:101fb8000010a0000020a000200c88008461a90067
:101fc8001021ef000621ef00800880000040a100ea
:101fd8000050a10080088800205c2000600888006c
:101fe800b00480000080a0000090a00000a0a10024
:101ff800b004880084c0a9008cc0a80011e1a80022
:102008000080fa00000006003600f800809fbe003d
:10201800829fbe00849fbe00869fbe000000fa001b
:1020280084c0a90000158000304a880096fc07008b
:10203800204a8000e10f500001003a004829ef00d3
:10204800204a8000e20f500001003a004829ef00c2
:10205800204a8000e30f500001003a004829ef00b1
:10206800204a8000e40f500001003a004829ef00a0
:10207800204a8000e50f500001003a004829ef008f
:10208800204a8000e60f500001003a004429ef0082
:10209800204a80000000e800204a88000080fa00fa
:1020a8004f03be004f02be004f01be004f00be00ee
:1020b8003600f900004006000400fa0010079800f6
:1020c8000000eb00000f78000b0037001e007800be
:1020d800000040009e009000808040008244800004
:1020e8001e00780000004000000041001000780049
:1020f800800878001e0fe8001e007800e50f5000e9
:10210800f2ff34000080fa00000006000600fa0022
:1021180010079800210798000000eb00000f7800d6
:102128000b0037001e00780000004000ae00900051
:10213800808040001e007800000040001e019000d2
:102148000000410010007800800878001e0fe800a9
:102158001e007800e50f5000f2ff34000080fa00fe
:10216800000006000600fa00200798000000eb00b7
:10217800000f78000000eb001007980010003700ef
:102188002e009000100078009e0f500006003400ca
:102198002e009000100f78002e0090000080e800bc
:1021a80020079800030037002e0090000080e80008
:1021b800200798001e0090000000e8001007980013
:1021c8001e009000e40f5000edff34001e00780060
:1021d8000080fa00000006000600fa0020079800b8
:1021e8000000eb00000f78000000eb0010079800db
:1021f800090037002e009000100078001e0f4000e4
:102208002e0090000080e800200798001e00900033
:102218000000e800100798001e009000e40f50002e
:10222800f4ff34001e0078004280de00000f7800c2
:102238001e0078000080fa00000006000000fa0086
:10224800804a80000000e800804a8800804a8000b8
:10225800e50f5000010034005029ef00804a80004b
:102268000080fa00000006000200fa000015800055
:1022780030478800a042a900001580002047880048
:10228800208920008cff0700ecff0700000f780072
:10229800a042a800704a8000e20f500016003200e9
:1022a800e20f500005003c000000e0000a00320088
:1022b800e10f50000c0032001f003700e40f5000ff
:1022c80015003200e40f50000f003500e50f5000f4
:1022d8001500320018003700818a2000208920006c
:1022e8008aff070014003700218b20002089200076
:1022f80086ff070010003700c18b200020892000ce
:1023080082ff07000c003700618c20002089200024
:102318007eff070008003700018d2000208920007b
:102328007aff070004003700a18d200020892000d3
:1023380076ff0700000000009e007800714a8800c0
:102348000080fa00000006000000fa00a822ef0052
:10235800000e20000015880080002000301588003d
:10236800aa22ef006022200020158800000120002a
:1023780010158800a1e2a8000028200080448800e9
:0c2388008560a9000080fa00000006003b
:020000040000fa
:102394004a09000004000000000000003a0900009f
:1023a4000a00000002000000a086010000010000f5
:1023b400007dc80000000000440900000600000081
:1023c40000000000e80800005200000002000000c5
:1023d40005000000000000000100000000000000f3
:1023e400e20400000000000032000100000a0000c6
:1023f40000000000000000000000000000000000d9
:1024040000000000000000000000000000010000c7
:102414000000000000e204000000000000000000d2
:1024240001000a000000000000000000000000009d
:102434000000000000000000000000000000000098
:102444009008000058000000000000004e09000041
:102454000400000002000000ffffff00ff00000076
:1024640000080000900000000200000000020000cc
:1024740000000000000000000070010000000000e7
:102484000000000000000000000000000002000046
:1024940000000000000000000070010000000000c7
:1024a4000000000000000000000000000a000a0014
:1024b400000a000000000000003075000000000069
:1024c4000000000000000000000000000a000a00f4
:1024d400000a000000000000003075000000000049
:1024e4000000000000000000000000000a000a00d4
:1024f400000a00000000d0008a30750000000000cf
:102504000000000000000000000000000a000a00b3
:10251400000a00000000d0008a30750000000000ae
:1025240000000000000000000000000000000000a7
:020000040000fa
:102534000000fa0085ff07003cfe07000100370099
:102544000000000021048000008020000080600062
:102554000000e000faff32008560a900f9ff3700af
:082564000100780000000600f0
:020000040000fa
:0200000401f009
:04000000e7bf000056
:020000040000fa
:0200000401f009
:04000400ff7f00007a
:020000040000fa
:0200000401f009
:04000800ffff0000f6
:00000001FF
