:020000040000fa
:080000000001040000000000f3
:020000040000fa
:100008009a0100009a0100009a0100009a0100007c
:100018009a0100009a0100009a0100009a0100006c
:100028009a0100009a0100009a0100009a0100005c
:100038009a0100009a0100001a0e00009a010000bf
:100048009a0100009a0100009a0100009a0100003c
:100058009a0100009a0100009a0100009a0100002c
:100068009a0100009a0100009a0100009a0100001c
:100078009a0100009a0100009a0100009a0100000c
:100088009a0100009a0100009a0100009a010000fc
:100098009a0100009a0100009a0100009a010000ec
:1000a8009a0100009a0100009a0100009a010000dc
:1000b8009a0100009a0100009a0100009a010000cc
:1000c8009a0100009a0100009a0100009a010000bc
:1000d8009a0100009a0100009a0100009a010000ac
:1000e8009a0100009a0100009a0100009a0100009c
:0800f8009a0100009a010000ca
:020000040000fa
:100108009a0100009a0100009a0100009a0100007b
:100118009a0100009a0100009a0100009a0100006b
:100128009a0100009a0100009a0100009a0100005b
:100138009a0100009a0100001a0e00009a010000be
:100148009a0100009a0100009a0100009a0100003b
:100158009a0100009a0100009a0100009a0100002b
:100168009a0100009a0100009a0100009a0100001b
:100178009a0100009a0100009a0100009a0100000b
:100188009a0100009a0100009a0100009a010000fb
:100198009a0100009a0100009a0100009a010000eb
:1001a8009a0100009a0100009a0100009a010000db
:1001b8009a0100009a0100009a0100009a010000cb
:1001c8009a0100009a0100009a0100009a010000bb
:1001d8009a0100009a0100009a0100009a010000ab
:1001e8009a0100009a0100009a0100009a0100009b
:0801f8009a0100009a010000c9
:020000040000fa
:100200006f9520000eff21000e0188000000000005
:10021000000020000000e000020032000001200089
:10022000200288000c000700e011210001002000de
:1002300011000700000020000000e0000200320072
:100240000000020000000000261002000000000074
:100250000040da000000fe004440a90040052000f4
:100260000000e0000300320000002000a001880030
:100270004440a8000000060091018800800078003a
:100280000000eb0015003700e280400032a0b4000f
:100290009101ba00e280400032a0b4009102ba009d
:1002a000e280400032a0b4000002eb00472bde00e9
:1002b000f507b200602ce10004003a000059eb00a1
:1002c0008301e900fdff3e00040037006128e100e2
:1002d000010032000082eb00040007001101ba00a7
:1002e0000200e000e8ff3a00000006003159ba00c1
:1002f0008301e9000c0032002159ba008301e900b2
:10030000080032000400e00003003a00e2804000f0
:1003100032a0b400f5ff370011d9ba008301e9001b
:10032000faff3a008100e800e180400032a0b4000a
:0c033000000006000040da000000fe00a3
:020000040000fa
:10033c00000000009c000000010000009c00000078
:10034c00010000004e00000001000000340000001d
:10035c000100000027000000010000001f00000049
:10036c00010000001a00000001000000160000004f
:10037c00010000001300000001000000110000004b
:10038c00010000000f000000040000003800000015
:10039c0004000000340000000400000030000000e5
:1003ac00040000002c0000000400000029000000e4
:1003bc0004000000270000000400000024000000de
:1003cc0004000000220000000400000020000000d7
:1003dc00040000001f000000040000001d000000cd
:1003ec00040000001c000000040000001b000000c2
:1003fc00040000001a0000000400000019000000b6
:10040c0004000000180000000400000017000000a9
:10041c00040000001600000004000000150000009d
:10042c000400000014000000040000001400000090
:10043c000400000013000000040000001200000083
:10044c000400000012000000040000001100000075
:10045c000400000011000000040000001000000067
:10046c000400000010000000040000001000000058
:10047c00040000000f000000040000000f0000004a
:10048c00040000000e000000040000000e0000003c
:10049c00040000000e000000040000000d0000002d
:1004ac00040000000d000000040000000d0000001e
:1004bc00040000000d000000040000000c0000000f
:1004cc00040000000c000000040000000c00000000
:1004dc00040000000c000000040000000b000000f1
:1004ec00040000000b000000040000000b000000e2
:1004fc00040000000b000000040000000a000000d3
:10050c00040000000a000000040000000a000000c3
:10051c00040000000a000000040000000a000000b3
:10052c00040000000a00000010000000270000007a
:10053c001000000027000000100000002600000042
:10054c001000000025000000100000002500000035
:10055c001000000024000000100000002400000027
:10056c001000000023000000100000002300000019
:10057c00100000002200000010000000220000000b
:10058c0010000000210000001000000021000000fd
:10059c0010000000200000001000000020000000ef
:1005ac001000000020000000100000001f000000e0
:1005bc00100000001f000000100000001e000000d2
:1005cc00100000001e000000100000001e000000c3
:1005dc00100000001d000000100000001d000000b5
:1005ec00100000001d000000100000001c000000a6
:1005fc00100000001c000000100000001c00000097
:10060c00100000001b000000100000001b00000088
:10061c00100000001b000000100000001a00000079
:10062c00100000001a000000100000001a0000006a
:10063c00100000001a00000010000000190000005b
:10064c00100000001900000010000000190000004c
:10065c00100000001900000010000000180000003d
:10066c00100000001800000010000000180000002e
:10067c00100000001800000010000000170000001f
:10068c001000000017000000100000001700000010
:10069c001000000017000000100000001600000001
:1006ac0010000000160000001000000016000000f2
:1006bc0010000000160000001000000016000000e2
:1006cc0010000000150000001000000015000000d4
:1006dc0010000000150000001000000015000000c4
:1006ec0010000000150000001000000015000000b4
:1006fc0010000000140000001000000014000000a6
:10070c001000000014000000100000001400000095
:10071c001000000014000000100000001400000085
:10072c001000000013000000100000001300000077
:10073c001000000013000000100000001300000067
:10074c001000000013000000100000001300000057
:10075c001000000012000000100000001200000049
:10076c001000000012000000100000001200000039
:10077c001000000012000000100000001200000029
:10078c00100000001200000010000000110000001a
:10079c00100000001100000010000000110000000b
:1007ac0010000000110000001000000011000000fb
:1007bc0010000000110000001000000011000000eb
:1007cc0010000000110000001000000011000000db
:1007dc0010000000100000001000000010000000cd
:1007ec0010000000100000001000000010000000bd
:1007fc0010000000100000001000000010000000ad
:10080c00100000001000000010000000100000009c
:10081c001000000010000000100000000f0000008d
:10082c00100000000f000000100000000f0000007e
:10083c00100000000f000000100000000f0000006e
:10084c00100000000f000000100000000f0000005e
:10085c00100000000f000000100000000f0000004e
:10086c00100000000f000000100000000e0000003f
:10087c00100000000e000000100000000e00000030
:10088c00100000000e000000100000000e00000020
:10089c00100000000e000000100000000e00000010
:1008ac00100000000e000000100000000e00000000
:1008bc00100000000e000000100000000e000000f0
:1008cc00100000000e000000100000000d000000e1
:1008dc00100000000d000000100000000d000000d2
:1008ec00100000000d000000100000000d000000c2
:1008fc00100000000d000000100000000d000000b2
:10090c00100000000d000000100000000d000000a1
:10091c00100000000d000000100000000d00000091
:10092c00100000000d000000100000000d00000081
:10093c00100000000d000000100000000c00000072
:10094c00100000000c000000100000000c00000063
:10095c00100000000c000000100000000c00000053
:10096c00100000000c000000100000000c00000043
:10097c00100000000c000000100000000c00000033
:10098c00100000000c000000100000000c00000023
:10099c00100000000c000000100000000c00000013
:1009ac00100000000c000000100000000c00000003
:1009bc00100000000c000000100000000b000000f4
:1009cc00100000000b000000100000000b000000e5
:1009dc00100000000b000000100000000b000000d5
:1009ec00100000000b000000100000000b000000c5
:1009fc00100000000b000000100000000b000000b5
:100a0c00100000000b000000100000000b000000a4
:100a1c00100000000b000000100000000b00000094
:100a2c00100000000b000000100000000b00000084
:100a3c00100000000b000000100000000b00000074
:100a4c00100000000b000000100000000b00000064
:100a5c00100000000a000000100000000a00000056
:100a6c00100000000a000000100000000a00000046
:100a7c00100000000a000000100000000a00000036
:100a8c00100000000a000000100000000a00000026
:100a9c00100000000a000000100000000a00000016
:100aac00100000000a000000100000000a00000006
:100abc00100000000a000000100000000a000000f6
:100acc00100000000a000000100000000a000000e6
:100adc00100000000a000000100000000a000000d6
:100aec00100000000a000000100000000a000000c6
:100afc00100000000a000000100000000a000000b6
:080b0c00100000000a000000c7
:020000040000fa
:100b140000000000900000001f010000ab01000075
:100b240034020000b602000032030000a7030000f4
:100b34001204000073040000c9040000130500003f
:100b44005105000082050000a5050000ba0500005b
:100b5400c2050000c2050000ba050000a50500009a
:100b6400820500005105000013050000c9040000bf
:100b74007304000012040000a70300003203000005
:100b8400b602000034020000ab0100001f010000a7
:100b940090000000000000000800000009000000b0
:100ba40006000000070000000a0000000b0000001f
:080bb400100000000100000028
:020000040000fa
:100bbc000200fa00000f78001e027800840a9000f0
:100bcc001e02780074029000848f520011003400d1
:100bdc001e027800f4029000e42e8400848242000d
:100bec001e027800750298001e027800f402900034
:100bfc001e027800040a9000848f52001b003400ff
:100c0c001e027800840a90001e027800750298007b
:100c1c00160037001e027800840a90001e0278002d
:100c2c0074029000848f520010003d001e02780068
:100c3c00f4029000e42e8400848252001e0278009c
:100c4c00750298001e027800f40290001e027800d3
:100c5c00040a9000848f520004003d001e027800ac
:100c6c00840a90001e027800750298000080fa0039
:100c7c00000006000000fa00a5488000d42e840075
:100c8c00110009008402d80000027800e00f520025
:100c9c0009003a00a4498000340d880064498000a2
:100cac00240d8800c4498000d40c8800844980003d
:100cbc00c40c88002f003700a5488000d42e840077
:100ccc00110009008402d80000027800e10f5200e4
:100cdc0009003a00a4498000340d88006449800062
:100cec00240d8800b4498000040d880074498000ec
:100cfc00f40c88001f003700a5488000d42e840017
:100d0c00110009008402d80000027800e20f5200a2
:100d1c0009003a0094498000640d88005449800011
:100d2c00540d8800b4498000040d8800744980007b
:100d3c00f40c88000f003700a5488000d42e8400e6
:100d4c00110009008402d80000027800e30f520061
:100d5c0008003a0094498000640d880054498000d2
:100d6c00540d8800c4498000d40c8800844980004c
:100d7c00c40c88000080fa00000006000000fa0095
:100d8c0065478000d42e8400110009008402d8002d
:100d9c0000027800e00f520009003a00644880001d
:100dac00740c880024488000640c880084488000ff
:100dbc00140c880044488000040c88002f00370075
:100dcc0065478000d42e8400110009008402d800ed
:100ddc0000027800e10f520009003a0064488000dc
:100dec00740c880024488000640c880074488000cf
:100dfc00440c880034488000340c88001f003700f5
:100e0c0065478000d42e8400110009008402d800ac
:100e1c0000027800e20f520009003a0054488000aa
:100e2c00a40c880014488000940c8800744880003e
:100e3c00440c880034488000340c88000f003700c4
:100e4c0065478000d42e8400110009008402d8006c
:100e5c0000027800e30f520008003a00544880006a
:100e6c00a40c880014488000940c880084488000ee
:100e7c00140c880044488000040c88000080fa00a0
:100e8c00000006000000fa007aff0700bbff070015
:100e9c000080fa00000006000000fa00a54880005f
:100eac00d42e8400110009008402d80000027800be
:100ebc00e00f52008f003a0024498000e00f5200ee
:100ecc0013003200740d800067026200e60f5200be
:100edc0005003200740d80000400a1000410a00075
:100eec000420a000740d8800440d8000670262008d
:100efc00e50f520018003200440d80000400a000e1
:100f0c000410a1000420a000440d8800120037003a
:100f1c00140d800067026200e60f520005003200db
:100f2c00140d80000400a1000410a0000420a000f7
:100f3c00140d8800e40c800067026200e50f52007b
:100f4c0005003200e40c80000400a0000410a10095
:100f5c000420a000e40c8800a5488000d42e840056
:100f6c00110009008402d800010278008402780084
:100f7c00b44880000482420084024200a458280035
:100f8c000482420094027800e44480000280200035
:100f9c0085007800040078000d0507000002780039
:100fac00540d8800540d8000a4498800a449800089
:100fbc00ea02420064088000848f52000600390067
:100fcc00440d80000400a1000410a1000420a10025
:100fdc00440d880005003700440d80000400a0007b
:100fec000410a1000420a000440d8800a649800034
:100ffc0065088000a4498000848252003449800036
:10100c0004aab900840278004406200011000900eb
:10101c008482d80000027800040243000482e800b5
:10102c0064498800a5488000d42e84001100090072
:10103c008402d8000102780084027800b448800051
:10104c000482420084024200c45a280004824200f6
:10105c0094027800f444800082812000850078009e
:10106c0004007800da04070000027800f40c880011
:10107c00f40c8000c4498800c4498000ea02420094
:10108c0064088000848f520006003900e40c800054
:10109c000400a1000410a1000420a100e40c8800ad
:1010ac0005003700e40c80000400a0000410a1002f
:1010bc000420a000e40c8800c6498000650880006c
:1010cc00c4498000848252004449800004aab900bb
:1010dc008402780044062000110009008482d800a4
:1010ec0000027800040243000482e800844988006e
:1010fc00c1013700a5488000d42e840011000900de
:10110c008402d80000027800e10f52008f003a00f0
:10111c0024498000e00f520013003200140d8000af
:10112c0067026200e50f520005003200140d8000ca
:10113c000400a0000410a1000420a000140d8800dd
:10114c00e40c800067026200e60f520018003200c7
:10115c00e40c80000400a1000410a0000420a000f6
:10116c00e40c880012003700740d800067026200e6
:10117c00e60f520005003200740d80000400a1003f
:10118c000410a0000420a000740d8800440d800001
:10119c0067026200e50f520005003200440d80002a
:1011ac000400a0000410a1000420a000440d88003d
:1011bc00a5488000d42e8400110009008402d800b8
:1011cc000102780084027800b44880000482420056
:1011dc0084024200c45a280004824200940278001f
:1011ec00e444800002802000850078000400780030
:1011fc007704070000027800540d8800540d80001d
:10120c00a4498800a4498000ea02420064088000d6
:10121c00848f520006003900440d80000400a100a8
:10122c000410a1000420a100440d88000500370023
:10123c00440d80000400a0000410a1000420a000b4
:10124c00440d8800a649800065088000a4498000f0
:10125c00848252004449800004aab90084027800b8
:10126c0044062000110009008482d8000002780096
:10127c00040243000482e80064498800a548800009
:10128c00d42e8400110009008402d80001027800d9
:10129c0084027800b4488000048242008402420038
:1012ac00a45828000482420094027800f444800080
:1012bc008281200085007800040078004404070037
:1012cc0000027800c40c8800c40c8000b44988006b
:1012dc00b4498000ea02420064088000848f520006
:1012ec0006003900140d80000400a1000410a100b8
:1012fc000420a100140d880005003700140d800097
:10130c000400a0000410a1000420a000140d88000b
:10131c00b649800065088000b44980008482520080
:10132c003449800004aab9008402780044062000e5
:10133c00110009008482d8000002780004024300e6
:10134c000482e800744988002b013700a54880000e
:10135c00d42e8400110009008402d8000002780009
:10136c00e20f52008f003a0024498000e00f520037
:10137c0013003200440d800067026200e60f520039
:10138c0005003200440d80000400a1000410a000f0
:10139c000420a000440d8800740d800067026200d8
:1013ac00e50f520018003200740d80000400a000fc
:1013bc000410a1000420a000740d88001200370056
:1013cc00140d800067026200e50f52000500320028
:1013dc00140d80000400a0000410a1000420a00043
:1013ec00140d8800e40c800067026200e60f5200c6
:1013fc0005003200e40c80000400a1000410a000e1
:10140c000420a000e40c8800a5488000d42e8400a1
:10141c00110009008402d8000102780084027800cf
:10142c00b44880000482420084024200a458280080
:10143c000482420094027800e44480000280200080
:10144c008500780004007800e103070000027800b2
:10145c00240d8800240d8000944988009449800054
:10146c00ea02420064088000848f520006003900b2
:10147c00740d80000400a1000410a1000420a10040
:10148c00740d880005003700740d80000400a00066
:10149c000410a1000420a000740d8800964980005f
:1014ac006508800094498000848252003449800091
:1014bc0004aab90084027800440620001100090037
:1014cc008482d80000027800040243000482e80001
:1014dc0054498800a5488000d42e840011000900ce
:1014ec008402d8000102780084027800b44880009d
:1014fc000482420084024200c45a28000482420042
:10150c0094027800f44480008281200085007800e9
:10151c0004007800ae03070000027800c40c8800b9
:10152c00c40c8000b4498800b4498000ea0242002f
:10153c0064088000848f520006003900140d80006e
:10154c000400a1000410a1000420a100140d8800c7
:10155c0005003700140d80000400a0000410a10049
:10156c000420a000140d8800b64980006508800096
:10157c00b4498000848252004449800004aab90016
:10158c008402780044062000110009008482d800ef
:10159c0000027800040243000482e80074498800c9
:1015ac0095003700a5488000d42e84001100090056
:1015bc008402d80000027800e30f52008e003a003b
:1015cc0024498000e00f520013003200140d8000fb
:1015dc0067026200e60f520005003200140d800015
:1015ec000400a1000410a0000420a000140d880029
:1015fc00e40c800067026200e50f52001800320014
:10160c00e40c80000400a0000410a1000420a00041
:10161c00e40c880012003700440d80006702620061
:10162c00e60f520005003200440d80000400a100ba
:10163c000410a0000420a000440d8800740d80004c
:10164c0067026200e50f520005003200740d800045
:10165c000400a0000410a1000420a000740d880058
:10166c00a5488000d42e8400110009008402d80003
:10167c000102780084027800b448800004824200a1
:10168c0084024200c45a280004824200940278006a
:10169c00e44480000280200085007800040078007b
:1016ac004b03070000027800240d8800240d8000f5
:1016bc009449880094498000ea0242006408800042
:1016cc00848f520006003900740d80000400a100c4
:1016dc000410a1000420a100740d8800050037003f
:1016ec00740d80000400a0000410a1000420a000d0
:1016fc00740d88009649800065088000944980002c
:10170c00848252004449800004aab9008402780003
:10171c0044062000110009008482d80000027800e1
:10172c00040243000482e80054498800a548800064
:10173c00d42e8400110009008402d8000102780024
:10174c0084027800b4488000048242008402420083
:10175c00a45828000482420094027800f4448000cb
:10176c0082812000850078000400780018030700af
:10177c0000027800f40c8800f40c8000c449880046
:10178c00c4498000ea02420064088000848f520041
:10179c0006003900e40c80000400a1000410a10034
:1017ac000420a100e40c880005003700e40c800044
:1017bc000400a0000410a1000420a000e40c880088
:1017cc00c649800065088000c449800084825200ac
:1017dc003449800004aab900840278004406200031
:1017ec00110009008482d800000278000402430032
:1017fc000482e80084498800944880000402e800d0
:10180c009448880095488000e4488000848f5200fa
:10181c00250035000002eb00944888002449800024
:10182c00e10f520010003a00a5488000b448800037
:10183c0004824200a4488800a5488000d42e84006d
:10184c004222dd00848f5200170035000002eb00ad
:10185c00a4488800c4488000b4488800d44880005c
:10186c00e448880010003700a5488000b448800088
:10187c0004825200a4488800a4488000e00f520063
:10188c0009003d00c4488000b4488800d44880005a
:10189c00e4488800d42e8400c222dd00b4488000c5
:1018ac0004825200a44888000080fa000000060060
:1018bc000200fa00000f78001e027800640290000b
:1018cc00c222dd00e41928000482420014027800d0
:1018dc00840278001e027800350298001e027800ff
:1018ec00640290004222dd008482e800e4192800a2
:1018fc000482420014027800840278001e027800f0
:10190c00450298001e007800a9fc07001e02780012
:10191c0074029000e00f5200100034001e02780098
:10192c0064029000e00f520004003a00140d840091
:10193c00840278001e027800250298001e027800ae
:10194c00f40290001e027800650298001e027800d6
:10195c0015002000150a98001b0037001e027800a5
:10196c0074029000e00f520011003d001e0278003e
:10197c0064029000e00f520004003a00140d840041
:10198c00840278001e027800250298001e0278005e
:10199c00740290008402ea001e027800650298002e
:1019ac001e0278008002eb00150a98000600370032
:1019bc001e0278008002eb00650298001e0278007f
:1019cc008002eb00250298000080fa00000006005f
:1019dc000000fa0020912000b5ff0700a08e200027
:1019ec00b3ff07000080fa00000006000000fa00b8
:1019fc00de22a900de02a900d3a2a900d382a9008d
:101a0c00e022a800041780003400b30004178800fb
:101a1c00d5a2a800d582a800d2e2a900d2c2a90002
:101a2c00d2a2a900d282a900d262a900d242a900f6
:101a3c00d222a900d202a900d4e2a900d4c2a900e2
:101a4c00d4a2a900d482a900d462a900d442a900ce
:101a5c00d422a900d402a9000002eb00740d880066
:101a6c000002eb00540d88000002eb00640d8800ae
:101a7c00740d80000400a1000410a0000420a0003c
:101a8c00740d8800ae61a9000002eb00440d8800c3
:101a9c000002eb00240d88000082eb00340d88005e
:101aac00440d80000400a0000410a1000420a0003c
:101abc00440d8800a861a9000002eb00140d8800f9
:101acc000002eb00f40c88000002eb00040d88000f
:101adc00140d80000400a1000410a0000420a0003c
:101aec00140d8800a261a9000002eb00e40c880030
:101afc000002eb00c40c88000082eb00d40c8800c0
:101b0c00e40c80000400a0000410a1000420a0003c
:101b1c00e40c88009c61a9000002eb00b40c880066
:101b2c000002eb00940c88000002eb00a40c88006f
:101b3c00b40c80000400a1000410a0000420a0003c
:101b4c00b40c88009661a9000002eb00840c88009c
:101b5c000002eb00640c88000002eb00740c88009f
:101b6c00840c80000400a1000410a0000420a0003c
:101b7c00840c88009061a9000002eb00540c8800d2
:101b8c000002eb00340c88000002eb00440c8800cf
:101b9c00540c80000400a1000410a0000420a0003c
:101bac00540c88008a61a9000002eb00240c880008
:101bbc0014002000040c88000002eb00140c8800b8
:101bcc00240c80000400a1000410a0000420a0003c
:101bdc00240c88008461a9000002eb0084088800b2
:101bec000002eb0034088800840880000440a10047
:101bfc000450a10084088800245c2000640888003c
:101c0c00b40480000480a0000490a00004a0a100f3
:101c1c00b404880084c0a9008cc0a80011e1a800fd
:101c2c000080fa00000006003600f800809fbe001d
:101c3c00829fbe00849fbe00869fbe000000fa00fb
:101c4c00a042a90084c0a90004158000344a880071
:101c5c008cfc07009a0007005dff07004a29ec0086
:101c6c00244a8000e10f520002003a000002eb000f
:101c7c00444a8800244a8000e20f520002003a00d5
:101c8c000002eb00444a8800244a8000e30f520013
:101c9c0002003a000002eb00444a8800244a80000b
:101cac00e40f520002003a000002eb00444a8800a4
:101cbc00244a8000e50f520002003a000002eb00bb
:101ccc00444a8800244a8000e60f520002003a0081
:101cdc000002eb00244a8800244a80000402e80039
:101cec00244a88000080fa004f03be004f02be0059
:101cfc004f01be004f00be003600f9000040060048
:101d0c000400fa00100798000002eb00040f7800a2
:101d1c000b0037001e027800040242009e02900065
:101d2c0084824200864480001e0278000402420035
:101d3c000402430014027800840a78001e0fe800a5
:101d4c001e027800e40f5200f2ff34000080fa000b
:101d5c00000006000600fa00100798002107980002
:101d6c000002eb00040f78000b0037001e02780015
:101d7c0004024200ae029000848242001e027800ef
:101d8c00040242001e039000040243001402780077
:101d9c00840a78001e0fe8001e027800e40f52003f
:101dac00f2ff34000080fa00000006000600fa0082
:101dbc00200798000002eb00040f78000002eb00f3
:101dcc0014079800100037002e02900014027800bf
:101ddc009e0f5200060034002e029000140f780063
:101dec002e0290000482e8002407980003003700bc
:101dfc002e0290000482e800240798001e02900036
:101e0c000402e800140798001e029000e40f520030
:101e1c00edff34001e027800040078000080fa0008
:101e2c00000006000600fa00200798000002eb00f4
:101e3c00040f78000002eb0014079800090037002b
:101e4c002e029000140278001e0f42002e02900009
:101e5c000482e800240798001e0290000402e800a7
:101e6c00140798001e029000e30f5200f4ff340098
:101e7c001e02780042a2de00040f78001e027800d9
:101e8c00040078000080fa00000006000000fa0050
:101e9c00a44a80000402e800a44a8800a44a8000f6
:101eac00e50f5200020034000002eb00a44a880047
:101ebc00a44a8000040078000080fa0000000600ac
:101ecc000200fa00041580003447880004158000d5
:101edc00244788002089200089ff0700ebff0700ba
:101eec0000027800040f7800a042a800944a8000f9
:101efc00cfa2de005600200007002000860f520003
:101f0c00878f5a0037003e0004600100050037003f
:101f1c000c003700130037001a003700210037007f
:101f2c0028003700818a20002089200089ff0700c3
:101f3c00208920009dff070000027800e4448800ff
:101f4c0028003700218b20002089200081ff07000a
:101f5c002089200095ff070000027800f4448800d7
:101f6c0020003700c18b20002089200079ff07005a
:101f7c00208920008dff07000002780004458800ae
:101f8c0018003700618c20002089200071ff0700a9
:101f9c002089200085ff0700000278001445880086
:101fac0010003700018d20002089200069ff0700f8
:101fbc00208920009bff0700000278002445880040
:101fcc0008003700a18d20002089200061ff070048
:101fdc002089200093ff0700000278003445880018
:101fec00000000001e027800944a88000080fa006d
:101ffc00000006000000fa000002eb004415880007
:10200c00040e20000415880084002000341588007c
:10201c000002eb005415880074222000241588005f
:10202c000401200014158800a1e2a8000428200057
:10203c00844488008560a9000080fa000000060036
:10204c000000fa00ebff070068fe070001003700f4
:10205c0000000000544a800061026200e00f520050
:10206c0018003200844a800061026200e00f5200c6
:10207c0014003a00844a8000750020000522dd001f
:10208c000402fb0047a2de00044278000442e9008f
:10209c00750020000522dd000402fb0047a2de00d3
:1020ac00044278000482fb0061026200864a8000d0
:1020bc00e5ff2f008502630005027200844a880048
:1020cc001b003700544a800061026200e00f52008e
:1020dc0017003a00844a800061026200e00f52004f
:1020ec0013003200844a8000750020000522dd00b8
:1020fc000402fb0047a2de00044278000442e80020
:10210c00750020000522dd000402fb0047a2de0062
:10211c00044278000482fb0061026200864a80005f
:10212c00e5ff2f008502630005027200844a8800d7
:10213c00544a800062026200e00f52001900320023
:10214c00844a800062026200e00f520015003a00df
:10215c00844a8000650020000522dd000402fb009b
:10216c0047a2de00044278000442e900750020001a
:10217c000522dd000402fb0047a2de0004427800c9
:10218c000482fb006102620004024200864a800065
:10219c00d5ff2f008502630005027200844a880077
:1021ac001c003700544a800062026200e00f5200ab
:1021bc0018003a00844a800062026200e00f52006c
:1021cc0014003200844a8000650020000522dd00e6
:1021dc000402fb0047a2de00044278000442e8003f
:1021ec00750020000522dd000402fb0047a2de0082
:1021fc00044278000482fb00610262000402420087
:10220c00864a8000d5ff2f0085026300050272000c
:10221c00844a880025048000048020000482620027
:10222c00e00f52008aff32008560a90089ff370059
:020000040000fa
:10223c004c09000006000000000000003a090000f4
:10224c000a00000002000000a0860100000100004e
:10225c00007dc8000000000090080000580000003d
:10226c000000000052090000040000000200000001
:10227c00ffffff00ff0000000008000090000000be
:10228c00020000000002000000000000000000003e
:10229c0000700100000000000000000000000000c1
:1022ac000000000000020000000000000000000020
:1022bc0000700100000000000000000000000000a1
:1022cc00000000000a000a00000a000000000000e4
:1022dc00003075000000000000000000000000004d
:1022ec00000000000a000a00000a000000000000c4
:1022fc00003075000000000000000000000000002d
:10230c00000000000a000a00000a00000000d000d3
:10231c008a30750000000000000000000000000082
:10232c00000000000a000a00000a00000000d000b3
:10233c008a30750000000000000000000000000062
:10234c00000000004409000008000000000000002c
:10235c00e808000052000000020000000500000028
:10236c00000000000100000000000000e20400007a
:10237c000000000032000100000a00000000000014
:10238c000000000000000000000000000000000041
:10239c000000000000000000000100000000000030
:1023ac0000e20400000000000000000001000a0030
:1023bc000000000000000000000000000000000011
:1023cc000000000000000000000000000000000001
:020000040000fa
:1023dc00e20190000300e00002003c00008050008d
:1023ec000100370001005000ee00410023022000e4
:1023fc00b1197800b1197800914978000002780081
:10240c00920290001201c0001281c3000080cb0028
:10241c00920278001201c000b2089000a202900053
:10242c00010252001201c0008004cc00b2019000e5
:10243c0003004000520290008000520002003c0059
:10244c00040078000a00370042029000800052001d
:10245c00020035000400780005003700ee00410052
:10246c0083022000b3187800b3187800b3587800b2
:04247c000000060056
:020000040000fa
:0200000401f009
:04000000e7bf000056
:020000040000fa
:0200000401f009
:04000400ff7f00007a
:020000040000fa
:0200000401f009
:04000800ffff0000f6
:00000001FF
