:020000040000fa
:080000000001040000000000f3
:020000040000fa
:100008009a0100009a0100009a0100009a0100007c
:100018009a0100009a0100009a0100009a0100006c
:100028009a0100009a0100009a0100009a0100005c
:100038009a0100009a010000ca1500009a01000008
:100048009a0100009a0100009a0100009a0100003c
:100058009a0100009a0100009a0100009a0100002c
:100068009a0100009a0100009a0100009a0100001c
:100078009a0100009a0100009a0100009a0100000c
:100088009a0100009a0100009a0100009a010000fc
:100098009a0100009a0100009a0100009a010000ec
:1000a8009a0100009a0100009a0100009a010000dc
:1000b8009a0100009a0100009a0100009a010000cc
:1000c8009a0100009a0100009a0100009a010000bc
:1000d8009a0100009a0100009a0100009a010000ac
:1000e8009a0100009a0100009a0100009a0100009c
:0800f8009a0100009a010000ca
:020000040000fa
:100108009a0100009a0100009a0100009a0100007b
:100118009a0100009a0100009a0100009a0100006b
:100128009a0100009a0100009a0100009a0100005b
:100138009a0100009a010000ca1500009a01000007
:100148009a0100009a0100009a0100009a0100003b
:100158009a0100009a0100009a0100009a0100002b
:100168009a0100009a0100009a0100009a0100001b
:100178009a0100009a0100009a0100009a0100000b
:100188009a0100009a0100009a0100009a010000fb
:100198009a0100009a0100009a0100009a010000eb
:1001a8009a0100009a0100009a0100009a010000db
:1001b8009a0100009a0100009a0100009a010000cb
:1001c8009a0100009a0100009a0100009a010000bb
:1001d8009a0100009a0100009a0100009a010000ab
:1001e8009a0100009a0100009a0100009a0100009b
:0801f8009a0100009a010000c9
:020000040000fa
:100200002f9520000eff21000e0188000000000045
:10021000000020000000e000020032000001200089
:10022000200288000c0007006075210001002000fa
:1002300011000700000020000000e0000200320072
:10024000000002000000000028180200000000006a
:100250000040da000000fe004440a9000001200038
:100260000000e0000300320000002000a001880030
:100270004440a8000000060091018800800078003a
:100280000000eb0015003700e280400032a0b4000f
:100290009101ba00e280400032a0b4009102ba009d
:1002a000e280400032a0b4000002eb00472bde00e9
:1002b000f507b200602ce10004003a000059eb00a1
:1002c0008301e900fdff3e00040037006128e100e2
:1002d000010032000082eb00040007001101ba00a7
:1002e0000200e000e8ff3a00000006003159ba00c1
:1002f0008301e9000c0032002159ba008301e900b2
:10030000080032000400e00003003a00e2804000f0
:1003100032a0b400f5ff370011d9ba008301e9001b
:10032000faff3a008100e800e180400032a0b4000a
:10033000000006000040da000000fe000081eb0033
:10034000e7003700889fbe008a9fbe008c1f7800a0
:10035000970007009e00330003866c006450e100a4
:100360002e0032006420e100330032006150e100d1
:100370002f0032006120e1003100320085855500f8
:10038000eb07b0000900200008042000050037003a
:100390000804440089844c000a003100060343002d
:1003a00087834b000001530081815b00f8ff33001d
:1003b0000203be000800a0000804440089844c0029
:1003c000f6ff3900c639dd008301730001003200f9
:1003d000130020008904d1000884d3000998a300e9
:1003e000050032000800a7000300a0008904d10026
:1003f0000884d3008b05e8008904d1000884d30069
:100400000001eb000281d2002e00070001f0a100e4
:100410000cf0a70001f0a000760037006420e10096
:10042000780032000801be000200be00f7ff37006e
:100430006120e100730032006000b800f3ff370074
:100440000000200001f82700f0ff37000001be0087
:10045000420007000470a70003f0a10003f8a30006
:1004600013003a006509b1001000320009003500a0
:100470006928e100020035000100280000000500a5
:1004800000004000818048008502e900fcff3a003e
:1004900000000600f88f4200050035008100d10001
:1004a0000080d3008502e800fcff3a00000006004f
:1004b0008000eb00000005004f89de00820178001b
:1004c0007301370081002000618055000b003d0062
:1004d0000b00200061fe2f000100e1001d00340030
:1004e00082817100610164008904d1000884d30015
:1004f0000000e800faff3a0071002000610064008b
:100500000300700002006000090032006104440032
:10051000e0844c000988a500050032008b05e80046
:100520006808e10002003a008904d1000884d30081
:10053000f20f20000258e10005003d00c75ddd001c
:10054000f907b200898075000800780000000600f5
:100550000bf827008b00780000000500c70ade00ba
:10056000f107b200f50fb20008003200e1cf4200ff
:10057000020032000170a00024000500810f70000d
:10058000010032000408050044000500810f7000de
:1005900002003a00140005008502e9000000400056
:1005a00081c04800fcff3b000170a0002400050052
:1005b0000004be00e9ff07000003be000405be0002
:1005c0000200be00e5ff0700844f75000000060032
:1005d0000200be006450e100050036006420e10026
:1005e000020036000968a30001003a000800be00be
:1005f0000160a0004f0678004f05be004f04be000a
:1006000000000600f0ff2f00f1ff2700f9ff370080
:10061000889fbe008a9fbe008c1f7800e4ff070001
:10062000ebff330003866c006450e10024003200cd
:100630006420e100270032006150e1002200320016
:100640006120e100210032008b854200eb07b10000
:100650000134b800003ab8000804420089844a0016
:10066000013ab8000030b8008880400009014a0013
:10067000040033000000400081804800020149006e
:100680008b05e900c909dd0083017000010032001b
:1006900013002000c814de004814dd004709de0006
:1006a0001200b200c808de000884700085ff070051
:1006b00001f0a1000cf0a70001f0a000cdff370071
:1006c0006120e100cfff32000801be000200be0041
:1006d000f7ff37006150e100fcff3a00c9ff370027
:1006e000889fbe008a9fbe008c9fbe008205780056
:1006f0000004be0099ff07000800be006420e1006e
:100700000700390002003a00f1ff2700f0ff2f0038
:100710000160a00012022000824a880055003700c4
:100720006120e10003003a000b00a70001f823005c
:100730005000370001f0a100020021009364240062
:10074000b00007000800be0004003500b2fd200024
:10075000930c24000d0107000004be000005eb000f
:100760000b00a6004f0dde0001f0a1000004be004a
:1007700032982f0023ea2300a5ff07000001eb00b9
:1007800003f023000b00a70003f82300400007003c
:100790009e0007000000a7000a00a20046ff070015
:1007a0000b00e000030032000200200003f02300f1
:1007b0003600070001f0a2000006be000200200083
:1007c0009304240092ff07000801be0030000700d8
:1007d000809fbe000c00be0022a22a00d3a72300e7
:1007e0008bff07004f01be00290007000004be0078
:1007f00001f0a100020020000398230081000700ff
:100800000800be00190035000001be0080ff07008f
:100810000006be00b2c52900e36223007cff07008a
:1008200022222b00f3942b00190007000c01be00bc
:1008300077ff0700e273280083c02300140007003d
:100840000c01be0072ff070042aa2a00a3e22b009f
:100850000f0007000c01be006dff07000801be007d
:100860006bff07000801be00090007000a00a7008f
:1008700001f0a2004f06be004f05be004f04be00af
:10088000000006000001eb0095ff370003f0a20016
:10089000889fbe008a9fbe008c1f780044ff07001f
:1008a0004bff33006450e1004f0032006420e10050
:1008b0005200320003826c0007003b000905d000a3
:1008c0000306d000820f54000c065d0002003900c0
:1008d0000200320089017800030678008582550005
:1008e00004003d000003fd008103fd008502ea00d5
:1008f0008b854200840f720002003b0060001000f4
:10090000e08018006011b8000005eb007a28e100d3
:100910000a00390006007800c75ddd00f707b20065
:10092000878075002d003700828171000a017800f0
:10093000610560008180d1000080d3008502e9005c
:10094000f9ff3b00060440008784480002003b009a
:1009500060041400e0841c000988a3000700320032
:100960008a81710082817100610164008904d10073
:100970000884d3008b05e800170037000978a3002e
:1009800013003a000b00e000130034008b05e9006f
:100990000804440089844c000a4474000978a300c8
:1009a0000d003a000b00e000070034008b05e90061
:1009b0000804440089844c0001003a000b00200028
:1009c0000978a300f7ff32000001eb0002003700b6
:1009d000828171000a017800bafe07000cf0a700be
:1009e00001f0a00003ff37006420e10002003a009c
:1009f000838f6c0003ff33000801be000200be00bd
:100a0000fcfe370014002000b10037000001be00da
:100a1000d2fe07000470a70003f0a1006509b10031
:100a2000160032000d0035006828e1000600350090
:100a3000f0ff2f00f1ff27000300e00013003b0050
:100a400001002800000005000000400081804800ef
:100a50008502e900fcff3a0008003700f88f4200e9
:100a600002003c008000eb00000005008100d10086
:100a70000080d3008502e800fcff3a000300e0009c
:100a800002003b0060001000e0801800000006003b
:100a9000881f7800030478000300e00007003d0091
:100aa00060001000e080180060011900e08119006a
:100ab00002003b0001f02d00030037000400070096
:100ac00008f0a70001f0a0004f0478000000060025
:100ad000889fbe008a9fbe000082700004027100e1
:100ae00004827100260032000004be000200be0035
:100af0006011b8006b092000950220000182cf0030
:100b00000a0039000541b1000082cf00070039001a
:100b10000541b1000982cf00040039000541b10050
:100b20000882cf00010039000541b10005425200a2
:100b3000120032000a003b008281710061016400f2
:100b40008100d1000080d3008984d3000884d300c1
:100b50008b05e8000442e800f7ff3a000700370081
:100b60000804440089844c0000004800818048004b
:100b70008b05e9000442e900f9ff3a0051fe070045
:100b80004f05be004f04be00000006000400200018
:100b900000003700889fbe008a9fbe008c1f78002f
:100ba0004f26dd0082fe070089fe33006120e10050
:100bb000430032006250e10041003e003e00390037
:100bc0006420e1003c003200058255000f003b002c
:100bd0000402e80038003a00800f5300818f5b0068
:100be000350034000800be0003f0a10001f0a600ab
:100bf00003f0a0000cf0a70025ff07007dfe3700e2
:100c00000603430087834b000c4646000005530053
:100c100081855b00020033000a03be000c00a000c7
:100c20000402e900f6ff3b00850578000602430058
:100c300087824b0004003a006000b80009f0a7006a
:100c400001f0a0006bfe37000002520081825a00c2
:100c50000704e000040033000603430087834b00d1
:100c60008b05e900faff3700090578000604be008d
:100c70000203be006011b80012fe0700e00f520030
:100c8000e08f5a000700350002003c000c08a3006a
:100c9000040032000601be0003f0a0000cf0a70023
:100ca000fbfe07000a85680001f0a1000af0a7001a
:100cb00001f0a0004ffe37000800be004dfe3700d7
:100cc000100220000cf0a600804a88004dfe37007c
:100cd000889fbe008a9fbe00841f780034fe0700f4
:100ce0004f00780011003300f0ff2f00838f6c005d
:100cf00006003b00040565000a00a7000800370055
:100d000009f0a6001000200008003700820f5400f0
:100d1000838f5c00030039001000200001003e00ba
:100d20000000200009f0a7000000ea004f05be0007
:0c0d30004f04be000000e00000000600c0
:020000040000fa
:100d3c0010000000010000009c00000010000000ea
:100d4c00010000004e000000100000000100000037
:100d5c00340000001000000001000000270000001b
:100d6c0010000000010000001f0000001000000037
:100d7c00010000001a00000010000000010000003b
:100d8c00160000001000000001000000130000001d
:100d9c001000000001000000110000001000000015
:100dac00010000000f00000004000000040000001f
:100dbc0038000000040000000400000034000000b3
:100dcc0004000000040000003000000004000000db
:100ddc00040000002c0000000400000004000000cf
:100dec00290000000400000004000000270000009f
:100dfc0004000000040000002400000004000000b7
:100e0c0004000000220000000400000004000000a8
:100e1c002000000004000000040000001f0000007f
:100e2c0004000000040000001d000000040000008d
:100e3c00040000001c00000004000000040000007e
:100e4c001b00000004000000040000001a00000059
:100e5c000400000004000000190000000400000061
:100e6c000400000018000000040000000400000052
:100e7c001700000004000000040000001600000031
:100e8c000400000004000000150000000400000035
:100e9c000400000014000000040000000400000026
:100eac001400000004000000040000001300000007
:100ebc000400000004000000120000000400000008
:100ecc0004000000120000000400000004000000f8
:100edc0011000000040000000400000011000000dc
:100eec0004000000040000001000000004000000da
:100efc0004000000100000000400000004000000ca
:100f0c001000000004000000040000000f000000ae
:100f1c0004000000040000000f00000004000000aa
:100f2c00040000000e00000004000000040000009b
:100f3c000e00000004000000040000000e00000081
:100f4c0004000000040000000d000000040000007c
:100f5c00040000000d00000004000000040000006c
:100f6c000d00000004000000040000000d00000053
:100f7c0004000000040000000c000000040000004d
:100f8c00040000000c00000004000000040000003d
:100f9c000c00000004000000040000000c00000025
:100fac0004000000040000000b000000040000001e
:100fbc00040000000b00000004000000040000000e
:100fcc000b00000004000000040000000b000000f7
:100fdc0004000000040000000a00000004000000ef
:100fec00040000000a0000000400000004000000df
:100ffc000a00000004000000040000000a000000c9
:10100c0004000000040000000a00000004000000be
:10101c00040000000a0000000100000010000000a5
:10102c002700000001000000100000002700000055
:10103c00010000001000000026000000010000006c
:10104c00100000002500000001000000100000004e
:10105c00250000000100000010000000240000002a
:10106c00010000001000000024000000010000003e
:10107c001000000023000000010000001000000020
:10108c0023000000010000001000000022000000fe
:10109c000100000010000000220000000100000010
:1010ac0010000000210000000100000010000000f2
:1010bc0021000000010000001000000020000000d2
:1010cc0001000000100000002000000001000000e2
:1010dc0010000000200000000100000010000000c3
:1010ec001f00000001000000100000001f000000a5
:1010fc0001000000100000001e00000001000000b4
:10110c00100000001e000000010000001000000094
:10111c001e00000001000000100000001d00000077
:10112c0001000000100000001d0000000100000084
:10113c00100000001d000000010000001000000065
:10114c001c00000001000000100000001c0000004a
:10115c0001000000100000001c0000000100000055
:10116c00100000001b000000010000001000000037
:10117c001b00000001000000100000001b0000001c
:10118c0001000000100000001a0000000100000027
:10119c00100000001a000000010000001000000008
:1011ac001a00000001000000100000001a000000ee
:1011bc0001000000100000001900000001000000f8
:1011cc0010000000190000000100000010000000d9
:1011dc0019000000010000001000000019000000c0
:1011ec0001000000100000001800000001000000c9
:1011fc0010000000180000000100000010000000aa
:10120c001800000001000000100000001800000091
:10121c000100000010000000170000000100000099
:10122c00100000001700000001000000100000007a
:10123c001700000001000000100000001700000063
:10124c00010000001000000016000000010000006a
:10125c00100000001600000001000000100000004b
:10126c001600000001000000100000001600000035
:10127c00010000001000000016000000010000003a
:10128c00100000001500000001000000100000001c
:10129c001500000001000000100000001500000007
:1012ac00010000001000000015000000010000000b
:1012bc0010000000150000000100000010000000ec
:1012cc0015000000010000001000000014000000d8
:1012dc0001000000100000001400000001000000dc
:1012ec0010000000140000000100000010000000bd
:1012fc0014000000010000001000000014000000a9
:10130c0001000000100000001400000001000000ab
:10131c00100000001300000001000000100000008d
:10132c00130000000100000010000000130000007a
:10133c00010000001000000013000000010000007c
:10134c00100000001300000001000000100000005d
:10135c00130000000100000010000000120000004b
:10136c00010000001000000012000000010000004d
:10137c00100000001200000001000000100000002e
:10138c00120000000100000010000000120000001c
:10139c00010000001000000012000000010000001d
:1013ac0010000000120000000100000010000000fe
:1013bc0011000000010000001000000011000000ee
:1013cc0001000000100000001100000001000000ee
:1013dc0010000000110000000100000010000000cf
:1013ec0011000000010000001000000011000000be
:1013fc0001000000100000001100000001000000be
:10140c00100000001100000001000000100000009e
:10141c00110000000100000010000000100000008e
:10142c00010000001000000010000000010000008e
:10143c00100000001000000001000000100000006f
:10144c00100000000100000010000000100000005f
:10145c00010000001000000010000000010000005e
:10146c00100000001000000001000000100000003f
:10147c00100000000100000010000000100000002f
:10148c0001000000100000000f000000010000002f
:10149c00100000000f000000010000001000000010
:1014ac000f00000001000000100000000f00000001
:1014bc0001000000100000000f00000001000000ff
:1014cc00100000000f0000000100000010000000e0
:1014dc000f00000001000000100000000f000000d1
:1014ec0001000000100000000f00000001000000cf
:1014fc00100000000f0000000100000010000000b0
:10150c000e00000001000000100000000e000000a2
:10151c0001000000100000000e000000010000009f
:10152c00100000000e000000010000001000000080
:10153c000e00000001000000100000000e00000072
:10154c0001000000100000000e000000010000006f
:10155c00100000000e000000010000001000000050
:10156c000e00000001000000100000000e00000042
:10157c0001000000100000000e000000010000003f
:10158c00100000000e000000010000001000000020
:10159c000d00000001000000100000000d00000014
:1015ac0001000000100000000d0000000100000010
:1015bc00100000000d0000000100000010000000f1
:1015cc000d00000001000000100000000d000000e4
:1015dc0001000000100000000d00000001000000e0
:1015ec00100000000d0000000100000010000000c1
:1015fc000d00000001000000100000000d000000b4
:10160c0001000000100000000d00000001000000af
:10161c00100000000d000000010000001000000090
:10162c000d00000001000000100000000d00000083
:10163c0001000000100000000c0000000100000080
:10164c00100000000c000000010000001000000061
:10165c000c00000001000000100000000c00000055
:10166c0001000000100000000c0000000100000050
:10167c00100000000c000000010000001000000031
:10168c000c00000001000000100000000c00000025
:10169c0001000000100000000c0000000100000020
:1016ac00100000000c000000010000001000000001
:1016bc000c00000001000000100000000c000000f5
:1016cc0001000000100000000c00000001000000f0
:1016dc00100000000c0000000100000010000000d1
:1016ec000c00000001000000100000000c000000c5
:1016fc0001000000100000000b00000001000000c1
:10170c00100000000b0000000100000010000000a1
:10171c000b00000001000000100000000b00000096
:10172c0001000000100000000b0000000100000090
:10173c00100000000b000000010000001000000071
:10174c000b00000001000000100000000b00000066
:10175c0001000000100000000b0000000100000060
:10176c00100000000b000000010000001000000041
:10177c000b00000001000000100000000b00000036
:10178c0001000000100000000b0000000100000030
:10179c00100000000b000000010000001000000011
:1017ac000b00000001000000100000000b00000006
:1017bc0001000000100000000b0000000100000000
:1017cc00100000000b0000000100000010000000e1
:1017dc000b00000001000000100000000a000000d7
:1017ec0001000000100000000a00000001000000d1
:1017fc00100000000a0000000100000010000000b2
:10180c000a00000001000000100000000a000000a7
:10181c0001000000100000000a00000001000000a0
:10182c00100000000a000000010000001000000081
:10183c000a00000001000000100000000a00000077
:10184c0001000000100000000a0000000100000070
:10185c00100000000a000000010000001000000051
:10186c000a00000001000000100000000a00000047
:10187c0001000000100000000a0000000100000040
:10188c00100000000a000000010000001000000021
:10189c000a00000001000000100000000a00000017
:1018ac0001000000100000000a0000000100000010
:1018bc00100000000a0000000100000010000000f1
:1018cc000a00000001000000100000000a000000e7
:1018dc0001000000100000000a00000001000000e0
:1018ec00100000000a0000000000000000000000d2
:0418fc0000000000e8
:020000040000fa
:1019000008000000090000000600000007000000b9
:101910000a0000000b0000001000000001000000a1
:020000040000fa
:101920000200fa00000f78001e027800840a90007e
:101930001e02780074029000848f5200110034005f
:101940001e027800f40290007464840084824200d5
:101950001e027800750298001e027800f4029000c2
:101960001e027800040a9000848f52001b0034008d
:101970001e027800840a90001e027800750298000a
:10198000160037001e027800840a90001e027800bc
:1019900074029000848f520010003d001e027800f7
:1019a000f402900074648400848252001e02780065
:1019b000750298001e027800f40290001e02780062
:1019c000040a9000848f520004003d001e0278003b
:1019d000840a90001e027800750298000080fa00c8
:1019e000000006000000fa00d54580006464840011
:1019f000110009008402d80000027800e00f5200b4
:101a000009003a00d4468000340d880094468000d6
:101a1000240d8800f4468000d40c8800b446800071
:101a2000c40c88002f003700d54580006464840012
:101a3000110009008402d80000027800e10f520072
:101a400009003a00d4468000340d88009446800096
:101a5000240d8800e4468000040d8800a446800020
:101a6000f40c88001f003700d545800064648400b2
:101a7000110009008402d80000027800e20f520031
:101a800009003a00c4468000640d88008446800046
:101a9000540d8800e4468000040d8800a4468000b0
:101aa000f40c88000f003700d54580006464840082
:101ab000110009008402d80000027800e30f5200f0
:101ac00008003a00c4468000640d88008446800007
:101ad000540d8800f4468000d40c8800b446800081
:101ae000c40c88000080fa00000006000000fa0024
:101af0009544800064648400110009008402d800c9
:101b000000027800e00f520009003a00944580007e
:101b1000740c880054458000640c8800b445800033
:101b2000140c880074458000040c88002f003700d6
:101b30009544800064648400110009008402d80088
:101b400000027800e10f520009003a00944580003d
:101b5000740c880054458000640c8800a445800003
:101b6000440c880064458000340c88001f00370056
:101b70009544800064648400110009008402d80048
:101b800000027800e20f520009003a00844580000c
:101b9000a40c880044458000940c8800a445800073
:101ba000440c880064458000340c88000f00370026
:101bb0009544800064648400110009008402d80008
:101bc00000027800e30f520008003a0084458000cc
:101bd000a40c880044458000940c8800b445800023
:101be000140c880074458000040c88000080fa0002
:101bf000000006000000fa007aff0700bbff0700a4
:101c00000080fa00000006000000fa00d5458000c0
:101c100064648400110009008402d8000002780086
:101c2000e00f520091003a0054468000e00f52004d
:101c300013003200740d800067026200e60f52004c
:101c400005003200740d80000400a1000410a00003
:101c50000420a000740d8800440d8000670262001b
:101c6000e50f520018003200440d80000400a0006f
:101c70000410a1000420a000440d880012003700c9
:101c8000140d800067026200e60f5200050032006a
:101c9000140d80000400a1000410a0000420a00086
:101ca000140d8800e40c800067026200e50f52000a
:101cb00005003200e40c80000400a0000410a10024
:101cc0000420a000e40c8800d545800064648400f2
:101cd000110009008402d800010278008402780013
:101ce000e44580000482420084024200048e200009
:101cf0000482420014027800840278008449800043
:101d0000028020008500780004007800d2040700db
:101d100000027800540d8800540d8000d4468800dd
:101d2000d4468000ea02420064088000848f52009a
:101d300006003900440d80000400a1000410a10039
:101d40000420a100440d880005003700440d8000e8
:101d50000400a0000410a1000420a000440d88008d
:101d6000d646800065088000d446800084825200f8
:101d70006446800004aab90084027800440620006a
:101d8000110009008482d800000278000402430098
:101d90000482e80094468800d5458000646484008d
:101da000110009008402d800010278008402780042
:101db000e445800004824200840242002490200016
:101dc0000482420014027800840278009449800062
:101dd0008281200085007800040078009e040700be
:101de00000027800f40c8800f40c8000f4468800af
:101df000f4468000ea02420064088000848f5200aa
:101e000006003900e40c80000400a1000410a100c9
:101e10000420a100e40c880005003700e40c8000d9
:101e20000400a0000410a1000420a000e40c88001d
:101e3000f646800065088000f446800084825200e7
:101e40007446800004aab900840278004406200089
:101e5000110009008482d8000002780004024300c7
:101e60000482e800b4468800c7013700d5458000e9
:101e700064648400110009008402d8000002780024
:101e8000e10f520091003a0054468000e00f5200ea
:101e900013003200140d800067026200e50f52004b
:101ea00005003200140d80000400a0000410a10001
:101eb0000420a000140d8800e40c8000670262007a
:101ec000e60f520018003200e40c80000400a1006c
:101ed0000410a0000420a000e40c880012003700c9
:101ee000740d800067026200e60f520005003200a8
:101ef000740d80000400a1000410a0000420a000c4
:101f0000740d8800440d800067026200e50f5200e6
:101f100005003200440d80000400a0000410a10060
:101f20000420a000440d8800d5458000646484002e
:101f3000110009008402d8000102780084027800b0
:101f4000e445800004824200840242002490200084
:101f500004824200140278008402780084498000e0
:101f60000280200085007800040078003a04070011
:101f700000027800540d8800540d8000d44688007b
:101f8000d4468000ea02420064088000848f520038
:101f900006003900440d80000400a1000410a100d7
:101fa0000420a100440d880005003700440d800086
:101fb0000400a0000410a1000420a000440d88002b
:101fc000d646800065088000d44680008482520096
:101fd0007446800004aab9008402780044062000f8
:101fe000110009008482d800000278000402430036
:101ff0000482e80094468800d5458000646484002b
:10200000110009008402d8000102780084027800df
:10201000e44580000482420084024200048e2000d5
:1020200004824200140278008402780094498000ff
:1020300082812000850078000400780006040700f3
:1020400000027800c40c8800c40c8000e4468800bc
:10205000e4468000ea02420064088000848f520057
:1020600006003900140d80000400a1000410a10036
:102070000420a100140d880005003700140d800015
:102080000400a0000410a1000420a000140d88008a
:10209000e646800065088000e446800084825200a5
:1020a0006446800004aab900840278004406200037
:1020b000110009008482d800000278000402430065
:1020c0000482e800a44688002f013700d54580002f
:1020d00064648400110009008402d80000027800c2
:1020e000e20f520091003a0054468000e00f520087
:1020f00013003200440d800067026200e60f5200b8
:1021000005003200440d80000400a1000410a0006e
:102110000420a000440d8800740d80006702620056
:10212000e50f520018003200740d80000400a0007a
:102130000410a1000420a000740d880012003700d4
:10214000140d800067026200e50f520005003200a6
:10215000140d80000400a0000410a1000420a000c1
:10216000140d8800e40c800067026200e60f520044
:1021700005003200e40c80000400a1000410a0005f
:102180000420a000e40c8800d5458000646484002d
:10219000110009008402d80001027800840278004e
:1021a000e44580000482420084024200048e200044
:1021b000048242001402780084027800844980007e
:1021c000028020008500780004007800a203070048
:1021d00000027800240d8800240d8000c446880089
:1021e000c4468000ea02420064088000848f5200e6
:1021f00006003900740d80000400a1000410a10045
:102200000420a100740d880005003700740d8000c3
:102210000400a0000410a1000420a000740d880098
:10222000c646800065088000c44680008482520053
:102230006446800004aab9008402780044062000a5
:10224000110009008482d8000002780004024300d3
:102250000482e80084468800d545800064648400d8
:10226000110009008402d80001027800840278007d
:10227000e445800004824200840242002490200051
:10228000048242001402780084027800944980009d
:102290008281200085007800040078006e0307002a
:1022a00000027800c40c8800c40c8000e44688005a
:1022b000e4468000ea02420064088000848f5200f5
:1022c00006003900140d80000400a1000410a100d4
:1022d0000420a100140d880005003700140d8000b3
:1022e0000400a0000410a1000420a000140d880028
:1022f000e646800065088000e44680008482520043
:102300007446800004aab9008402780044062000c4
:10231000110009008482d800000278000402430002
:102320000482e800a446880097003700d545800065
:1023300064648400110009008402d800000278005f
:10234000e30f520090003a0054468000e00f520024
:1023500013003200140d800067026200e60f520085
:1023600005003200140d80000400a1000410a0003c
:102370000420a000140d8800e40c800067026200b5
:10238000e50f520018003200e40c80000400a000a9
:102390000410a1000420a000e40c88001200370003
:1023a000440d800067026200e60f52000500320013
:1023b000440d80000400a1000410a0000420a0002f
:1023c000440d8800740d800067026200e50f520022
:1023d00005003200740d80000400a0000410a1006c
:1023e0000420a000740d8800d5458000646484003a
:1023f000110009008402d8000102780084027800ec
:10240000e4458000048242008402420024902000bf
:10241000048242001402780084027800844980001b
:102420000280200085007800040078000a0307007d
:1024300000027800240d8800240d8000c446880026
:10244000c4468000ea02420064088000848f520083
:1024500006003900740d80000400a1000410a100e2
:102460000420a100740d880005003700740d800061
:102470000400a0000410a1000420a000740d880036
:10248000c646800065088000c446800084825200f1
:102490007446800004aab900840278004406200033
:1024a000110009008482d800000278000402430071
:1024b0000482e80084468800d54580006464840076
:1024c000110009008402d80001027800840278001b
:1024d000e44580000482420084024200048e200011
:1024e000048242001402780084027800944980003b
:1024f000828120008500780004007800d602070061
:1025000000027800f40c8800f40c8000f446880087
:10251000f4468000ea02420064088000848f520082
:1025200006003900e40c80000400a1000410a100a2
:102530000420a100e40c880005003700e40c8000b2
:102540000400a0000410a1000420a000e40c8800f6
:10255000f646800065088000f446800084825200c0
:102560006446800004aab900840278004406200072
:10257000110009008482d8000002780004024300a0
:102580000482e800b4468800c44580000402e800e4
:10259000c4458800c545800014468000848f5200e1
:1025a000250035000002eb00c44588005446800039
:1025b000e10f520010003a00d5458000e44580004c
:1025c00004824200d4458800d545800064648400bc
:1025d0004222dd00848f5200170035000002eb001c
:1025e000d4458800f4458000e44588000446800016
:1025f0001446880010003700d5458000e44580006f
:1026000004825200d4458800d4458000e00f520077
:1026100009003d00f4458000e44588000446800040
:102620001446880064648400c222dd00e445800012
:1026300004825200d44588000080fa0000000600a1
:102640000200fa00000f78001e0278006402900079
:102650006622b900040278000482e80004017800d0
:102660004fa2de0084017800e4692000050020000c
:102670000402410085824900a001800004f0a4000a
:102680008582d200a501880014027800a00188008c
:10269000840278001e027800350298001e0278003d
:1026a000640290006622b9000402780064024200cd
:1026b000040378004fa2de0084037800e469200060
:1026c000050020000402430085824b00a601800023
:1026d00004f0a4008582d200a501880014027800cd
:1026e000a6018800840278001e0278004502980046
:1026f0001e0078008afc07001e0278007402900019
:10270000e00f5200170034001e02780064029000af
:10271000e00f52000b003a00646a20000500200020
:10272000a601800004f0a4008582d200a5018800e3
:1027300014027800a6018800840278001e02780046
:10274000250298001e027800f40290001e02780014
:10275000650298001e02780015002000150a9800f6
:10276000220037001e02780074029000e00f520031
:1027700018003d001e02780064029000e00f520035
:102780000b003a00646a200005002000a6018000ca
:1027900004f0a4008582d200a5018800140278000c
:1027a000a6018800840278001e02780025029800a5
:1027b0001e027800740290008402ea001e02780073
:1027c000650298001e0278008002eb00150a98004e
:1027d000060037001e0278008002eb0065029800b8
:1027e0001e0278008002eb00250298000080fa00ab
:1027f000000006000000fa00808b200090ff070018
:10280000008920008eff07000080fa00000006000b
:102810000200fa00889fbe000002eb00040f78005f
:10282000490037001e027800cfa2de000400be007f
:1028300021f707000004be0064648400cfa2de001c
:102840000400be001cf707000002be000401be0029
:102850000800be00bbf607000002be00b2fd20006b
:1028600093fc23000400be0069f707000002be00cd
:102870000400be0003f807000002be00c21e2500cf
:10288000833b24000400be0061f707000002be0085
:102890000400be00edf607000002be0084027800ce
:1028a0001e02780004034200048e2000040243004c
:1028b000050a78001e027800cfa2de000400be00e8
:1028c000fdf607000004be0064648400cfa2de00b1
:1028d0000400be00f8f607000002be000401be00be
:1028e0000800be0097f607000002be00b2fd2000ff
:1028f00093fc23000400be0045f707000002be0061
:102900000400be008df607000002be00c21e2500b6
:10291000833b24000400be003df707000002be0018
:102920000400be00c9f607000002be008402780061
:102930001e02780004034200249020000402430099
:10294000050a78001e0fe800646484009e02780087
:10295000848f5200b3ff3400de22a900de02a900fa
:10296000d3a2a900d382a900e022a8000417800006
:102970003400b30004178800d5a2a800d582a800af
:10298000d2e2a900d2c2a900d2a2a900d282a90093
:10299000d262a900d242a900d222a900d202a90083
:1029a000d4e2a900d4c2a900d4a2a900d482a9006b
:1029b000d462a900d442a900d422a900d402a9005b
:1029c0000002eb00740d88000002eb00540d88003b
:1029d0000002eb00640d8800740d80000400a1006b
:1029e0000410a0000420a000740d8800ae61a900ae
:1029f0000002eb00440d88000002eb00240d88006b
:102a00000082eb00340d8800440d80000400a0001b
:102a10000410a1000420a000440d8800a861a900b2
:102a20000002eb00140d88000002eb00f40c88009b
:102a30000002eb00040d8800140d80000400a100ca
:102a40000410a0000420a000140d8800a261a900b9
:102a50000002eb00e40c88000002eb00c40c8800cc
:102a60000082eb00d40c8800e40c80000400a0007d
:102a70000410a1000420a000e40c88009c61a900bf
:102a80000002eb00b40c88000002eb00940c8800fc
:102a90000002eb00a40c8800b40c80000400a1002c
:102aa0000410a0000420a000b40c88009661a900c6
:102ab0000002eb00840c88000002eb00640c88002c
:102ac0000002eb00740c8800840c80000400a1005c
:102ad0000410a0000420a000840c88009061a900cc
:102ae0000002eb00540c88000002eb00340c88005c
:102af0000002eb00440c8800540c80000400a1008c
:102b00000410a0000420a000540c88008a61a900d1
:102b10000002eb00240c880014002000040c880044
:102b20000002eb00140c8800240c80000400a100bb
:102b30000410a0000420a000240c88008461a900d7
:102b40000002eb00840888000002eb0034088800d3
:102b5000840880000440a1000450a100840888007b
:102b60000417200064088800b40480000480a000da
:102b70000490a00004a0a100b404880084c0a900af
:102b80008cc0a80011e1a8004f04be000080fa002c
:102b9000000006003600f800809fbe00829fbe0045
:102ba000849fbe00869fbe000000fa0084c0a9007a
:102bb0008cfb07007200070013fc0700808b2000cd
:102bc0009ffe07000080fa004f03be004f02be00c8
:102bd0004f01be004f00be003600f9000040060065
:102be0000400fa00100798000002eb00040f7800c0
:102bf0000b0037001e027800040242009e02900083
:102c000084824200264980001e02780004024200ad
:102c10000402430014027800840a78001e0fe800c2
:102c20001e027800e40f5200f2ff34000080fa0028
:102c3000000006000600fa00200798000002eb00e2
:102c4000040f78000002eb00140798001000370012
:102c50002e029000140278009e0f520006003400ed
:102c60002e029000140f78002e0290000482e800db
:102c700024079800030037002e0290000482e80029
:102c8000240798001e0290000402e8001407980030
:102c90001e029000e40f5200edff34001e02780087
:102ca000040078000080fa00000006000600fa0028
:102cb000200798000002eb00040f78000002eb00f0
:102cc00014079800090037002e02900014027800c3
:102cd0001e0f42002e0290000482e8002407980094
:102ce0001e0290000402e800140798001e029000e3
:102cf000e40f5200f4ff34001e02780042a2de000e
:102d0000040f78001e027800040078000080fa00aa
:102d1000000006000000fa0034158000e00f5200a9
:102d200007003a00e44980008402420004c82800f9
:102d30000482420014027800e00f520002003200c8
:102d400014002000010037000002eb003415880059
:102d5000e44980000402e800e4498800e449800076
:102d6000e50f5200020034000002eb00e449880045
:102d7000e4498000040078000080fa0000000600aa
:102d80000200fa00a042a9006092200094ff070010
:102d9000e0ff070000027800040f7800a042a800be
:102da000744a8000cfa2de005600200007002000f9
:102db000860f5200878f5a0025003e0004600100f4
:102dc00005003700090037000d00370011003700fb
:102dd00015003700190037006092200095ff0700aa
:102de00000027800844988001900370060922000b2
:102df00090ff070000027800944988001400370013
:102e0000609220008bff070000027800a449880030
:102e10000f0037006092200086ff07000002780054
:102e2000b44988000a003700609220009fff070025
:102e300000027800c4498800050037006092200035
:102e40009aff070000027800d449880000000000c3
:102e50001e027800744a88000080fa000000060014
:102e60000000fa000002eb0044158800040e200068
:102e70000415880084002000341588000002eb004f
:102e8000541588008410200024158800c4032000f5
:102e900014158800a1e2a800042820002449880015
:0c2ea0008560a9000080fa000000060018
:020000040000fa
:102eac004809000006000000000000003e09000078
:102ebc000a00000002000000a086010000010000d2
:102ecc00007dc80000000000e00800004400000085
:102edc0000000000900800005000000002000000fc
:102eec0000000000000100000000000000e20400ef
:102efc00000000000032000001000a000000000089
:102f0c0000000000000000000000000000000000b5
:102f1c0000000000000000000000010000000000a4
:102f2c000000e200040000000000000000010000ae
:102f3c000a0000000000000000000000000000007b
:102f4c000000000000000000000000002409000048
:102f5c001a000000000000004e09000002000000f2
:102f6c0002000000ffff00000008000090000000bd
:102f7c000200000000020000000000000000000041
:102f8c0000700100000000000000000000000000c4
:102f9c000000000000020000000000000000000023
:102fac0000700100000000000000000000000000a4
:102fbc00000000000a000a00000a000000000000e7
:102fcc000030750000000000000000000000000050
:102fdc00000000000a000a00000a000000000000c7
:102fec000030750000000000000000000000000030
:102ffc00000000000a000a00000a00000000d000d7
:10300c008a30750000000000000000000000000085
:10301c00000000000a000a00000a00000000d000b6
:10302c008a30750000000000000000000000000065
:10303c000000000050090000020000000000000029
:04304c000000000080
:020000040000fa
:103050000000fa00ffff37000100780000000600c2
:020000040000fa
:0200000401f009
:04000000e5bf000058
:020000040000fa
:0200000401f009
:04000400ff7f00007a
:020000040000fa
:0200000401f009
:04000800ffff0000f6
:00000001FF
