:020000040000fa
:080000000001040000000000f3
:020000040000fa
:10020000af9b200080ff210000018800000000005b
:10021000050007000c000700520602000000000065
:100220000040da000000fe004440a9000000200069
:100230000000e0000300320000002000a001880060
:100240004440a8000000060040a12000010020005a
:100250001600370062004000e080480091018800ed
:100260009001ba0062004000e080480091018800df
:100270009002ba0062004000e08048000002eb00fb
:100280006028e10005003a008301e900070033001f
:10029000038009000059eb00040037006128e100e9
:1002a000010032000082eb00050007009101880088
:1002b0001001ba000200e000e6ff3a00000005006d
:1002c000910188008002780062004000e0804800d0
:1002d0003559ba008301e900080032002559ba00f7
:1002e0008301e900050032000400e000f4ff320061
:1002f00015d9ba008301e900f1ff3a0000000600b9
:100300000001eb001c01370003f0a200889fbe0033
:100310008a9fbe008c1f7800800107008701330090
:100320006450e1004f0032006420e10052003200ce
:1003300003826c0007003b000905d0000306d000d3
:10034000820f54000c065d000200390002003200ea
:1003500089017800030678008582550004003d007d
:100360000003fd008103fd008502ea008b85420049
:10037000840f720002003b0060001000e080180053
:100380006011b8000005eb007a28e1000a0039008e
:1003900006007800c75ddd00f707b20087807500b2
:1003a0002d003700828171000a017800610560002c
:1003b0008180d1000080d3008502e900f9ff3b0075
:1003c000060440008784480002003b0060041400db
:1003d000e0841c000988a300070032008a817100b4
:1003e00082817100610164008904d1000884d30016
:1003f0008b05e800170037000978a30013003a00c6
:100400000b00e000130034008b05e90008044400f1
:1004100089844c000a4474000978a3000d003a0056
:100420000b00e000070034008b05e90008044400dd
:1004300089844c0001003a000b0020000978a300d9
:10044000f7ff32000001eb000200370082817100eb
:100450000a017800490107000cf0a70001f0a00094
:100460003f0137006420e10002003a00838f6c00f6
:100470003f0133000801be000200be003801370012
:10048000889fbe008a9fbe008c1f78002301070052
:100490002a01330003866c006450e1002e00320014
:1004a0006420e100330032006150e1002f0032008f
:1004b0006120e1003100320085855500eb07b00076
:1004c000090020000804200005003700080444004b
:1004d00089844c000a0031000603430087834b00e7
:1004e0000001530081815b00f8ff33000203be006e
:1004f0000800a0000804440089844c00f6ff39007d
:10050000c639dd00830173000100320013002000b2
:100510008904d1000884d3000998a30005003200a3
:100520000800a7000300a0008904d1000884d300bc
:100530008b05e8008904d1000884d3000001eb009a
:100540000281d2000d01070001f0a1000cf0a7000c
:1005500001f0a000020137006420e1000401320034
:100560000801be000200be00f7ff37006120e10075
:10057000ff0032006000b800f3ff370000002000e9
:1005800001f82700f0ff3700889fbe008a9fbe0059
:10059000010578000100e0000400350008003c007f
:1005a0000000e0002000320005003700600010006d
:1005b000e080180002003b0001f02c001a00370018
:1005c0000004be006011b8006b0920000982cf0052
:1005d000020039000882cf000441b0006942520095
:1005e0000e00320008003b0082817100610164004e
:1005f0008904d1000884d3008b05e8000442e80098
:10060000f9ff3a00050037000804440089844c00d3
:100610008b05e9000442e900fbff3a00d700070020
:100620000af0a70001f0a0004f05be004f04be0075
:1006300000000600889fbe008a9fbe008c1f7800c5
:10064000b6000700bd00330003866c006450e10073
:10065000240032006420e100270032006150e100f4
:10066000220032006120e100210032008b8542002f
:10067000eb07b1000134b800003ab80008044200aa
:1006800089844a00013ab8000030b80088804000f0
:1006900009014a0004003300000040008180480046
:1006a000020149008b05e900c909dd0083017000e2
:1006b0000100320013002000c814de004814dd00e1
:1006c0004709de001200b200c808de00088470008e
:1006d000aa00070001f0a1000cf0a70001f0a000a3
:1006e0009f0037006120e100a10032000801be0038
:1006f0000200be00f7ff37006150e100fcff3a0046
:100700009b0037000001be00c20007000470a70074
:1007100003f0a10003f8a30013003a006509b1003b
:1007200010003200090035006928e10002003500a0
:100730000100280000000500000040008180480002
:100740008502e900fcff3a0000000600f88f420035
:10075000050035008100d1000080d3008502e8004b
:10076000fcff3a00000006008000eb0000000500de
:100770000081eb0000003700889fbe008a9fbe000a
:100780008c9fbe00820578000004be00a100070017
:100790000800be006420e1000700390002003a00b2
:1007a000f1ff2700f0ff2f000160a00012022000df
:1007b000c24d8800550037006120e10003003a0077
:1007c0000b00a70001f823005000370001f0a10042
:1007d0000200210093642400a30007000800be006b
:1007e00004003500b2fd2000930c2400a000070097
:1007f0000004be000005eb000b00a6004f0dde005c
:1008000001f0a1000004be0032982f0023ea23006b
:1008100088ff07000001eb0003f023000b00a70096
:1008200003f82300b9fe0700930007000000a700ab
:100830000a00a20054ff07000b00e0000300320092
:100840000200200003f02300affe070001f0a20029
:100850000006be00020020009304240075ff07007c
:100860000801be00a9fe0700809fbe000c00be006c
:1008700022a22a00d3a723006eff07004f01be006b
:10088000a2fe07000004be0001f0a100020020004b
:1008900003982300740007000800be00190035000b
:1008a0000001be0063ff07000006be00b2c52900bc
:1008b000e36223005fff070022222b00f3942b004a
:1008c00092fe07000c01be005aff0700e2732800e9
:1008d00083c023008dfe07000c01be0055ff0700fa
:1008e00042aa2a00a3e22b0088fe07000c01be00ea
:1008f00050ff07000801be004eff07000801be00c0
:1009000082fe07000a00a70001f0a2004f06be0009
:100910004f05be004f04be00000006000004be00ec
:100920003c0007000003be000405be000200be003c
:1009300038000700844f7500000006000200be006a
:100940006450e100050036006420e100020036003a
:100950000968a30001003a000800be000160a00081
:100960004f0678004f05be004f04be000000060091
:10097000f0ff2f00f1ff2700f9ff37008100200072
:10098000618055000b003d000b00200061fe2f0030
:100990000100e1001d0034008281710061016400ea
:1009a0008904d1000884d3000000e800faff3a006f
:1009b000710020006100640003007000020060000c
:1009c0000900320061044400e0844c000988a5005d
:1009d000050032008b05e8006808e10002003a00db
:1009e0008904d1000884d300f20f20000258e100ee
:1009f00005003d00c75ddd00f907b2008980750084
:100a000008007800000006000bf827008b00780033
:100a100000000500c70ade00f107b200f50fb200c2
:100a200008003200e1cf4200020032000170a00055
:100a300024000500810f7000010032000408050049
:100a400044000500810f700002003a001400050008
:100a50008502e9000000400081c04800fcff3b0027
:100a60000170a000240005001400200023003700be
:100a7000040020003c0037000001be00e5ff070035
:100a80000470a70003f0a1006509b1001600320050
:100a90000d0035006828e10006003500f0ff2f004a
:100aa000f1ff27000300e00013003b0001002800d5
:100ab0000000050000004000818048008502e90038
:100ac000fcff3a0008003700f88f420002003c00ab
:100ad0008000eb00000005008100d1000080d30001
:100ae0008502e800fcff3a000300e00002003b0042
:100af00060001000e080180000000600889fbe0023
:100b00008a9fbe00841f780084ff07004f00780092
:100b100011003300f0ff2f00838f6c0006003b00b4
:100b2000040565000a00a7000800370009f0a600c8
:100b30001000200008003700820f5400838f5c00f3
:100b4000030039001000200001003e0000002000da
:100b500009f0a7000000ea004f05be004f04be00e8
:100b60000000e00000000600889fbe008a9fbe00d3
:100b70008c1f78004f26dd0068ff07006fff3300f1
:100b80006120e100430032006250e10041003e007c
:100b90003e0039006420e1003c003200058255002f
:100ba0000f003b000402e80038003a00800f5300b9
:100bb000818f5b00350034000800be0003f0a10007
:100bc00001f0a60003f0a0000cf0a700cffd070085
:100bd00063ff37000603430087834b000c46460043
:100be0000005530081855b00020033000a03be004c
:100bf0000c00a0000402e900f6ff3b008505780028
:100c00000602430087824b0004003a006000b800ef
:100c100009f0a70001f0a00051ff370000025200c8
:100c200081825a000704e0000400330006034300f9
:100c300087834b008b05e900faff37000905780030
:100c40000604be000203be006011b8004bff07009f
:100c5000e00f5200e08f5a000700350002003c0010
:100c60000c08a300040032000601be0003f0a0003f
:100c70000cf0a700a5fd07000a85680001f0a1009f
:100c80000af0a70001f0a00035ff37000800be0001
:100c900033ff3700100220000cf0a600c04d880082
:100ca00033ff37001000fa002c0007009c010700fa
:100cb000b0fd200091fc230091fd07006007980023
:100cc000710798006e009000fe0090000001be00c9
:100cd0008efd070060079800710798006000b8005b
:100ce000a04d8800b14d88001400370060662600d2
:100cf00061062400400798005107980090c2250023
:100d0000710b240020079800310798002e019000f5
:100d1000be0190004e009000de009000d8fd07005c
:100d2000008fbe00a04d8000b14d800061004000ea
:100d3000e0804800a04d8800b14d8800a24d8000a1
:100d4000b34d8000804d8000914d8000800f510098
:100d5000818f5900e5ff3500e0ff37000200fa00ff
:100d6000889fbe000000eb00000f78002e003700c7
:100d70001e007800cf80de0003fe07000004be00e6
:100d8000504d8000cf80de00fffd07000001be0057
:100d90000800be00bafd0700b2fd200093fc23004e
:100da00024fe070056fd070002f02f00f377240011
:100db00020fe070053fe0700004888001e00780050
:100dc000cf80de00f0fd07000004be00504d800023
:100dd000cf80de00ecfd07000001be000800be0071
:100de000a7fd0700b2fd200093fc230011fe0700c1
:100df0005ffe070002f02f00f37724000dfe0700ce
:100e000040fe0700104888001e007800024880005d
:100e100013488000c200dd000080200000804000f8
:100e20000288be001e0fe800504d80009e0f10008b
:100e3000cfff3500d282a900d3a2a900d2c2a90057
:100e4000d2a2a9000000eb00200c8800411820006d
:100e50009140780080cfb30000c060006040b300d4
:100e600084e1b7008461a9000000eb00500c880009
:100e70000000eb00300c88000000eb00400c880004
:100e8000a11820009140780080cfb30000c060001e
:100e90006040b3008ae1b7008a61a9000000eb005e
:100ea000800888000000eb00300888000111200055
:100eb00091407800f0ccb30000c0600010e1b700b2
:100ec000704d800060088800710920009140780012
:100ed00080cfb30000c060003040b30097e0b7009f
:100ee00084c0a9008cc0a90011e1a8004f04be0075
:100ef0000080fa00000006000200fa008540a90008
:100f00000080fa0000400600809fbe00821f78002b
:100f10000200fa008520a90090108000004f7800a0
:100f2000b04c8000e10f50002c003a00714c800062
:100f3000e0942000008040001e4878000100e80096
:100f4000704c8800704c8000e40f5000eb003a00b9
:100f50000000eb00704c880011e1a9004fc9bf00f0
:100f60008080fb00400620000088b9000001780066
:100f70004ec9bf008080fb0000fd2f008080400034
:100f8000803e20000088b9000001410050c9bf0028
:100f90000080fb006a00b9008000410051c9bf0019
:100fa0000080fb008080400000b32e0000804000e5
:100fb0006008880011e1a8000000eb00b04c880038
:100fc000f004200080108800b00420008010880009
:100fd000a000200080108800c8003700c04c8000ae
:100fe000e10f50002a003a00714c8000e09420008c
:100ff000008040001e4878000100e800704c880026
:10100000704c8000e40f5000bc003a000000eb0080
:10101000704c88004fc9bf008080fb004006200054
:101020000088b900000178004ec9bf008080fb0035
:1010300000fd2f0080804000803e20000088b90025
:101040000001410050c9bf000080fb006a00b900e8
:101050008000410051c9bf000080fb00808040003b
:1010600000b32e0000804000000c88000000eb0060
:10107000c04c8800f004200080108800b0042000dc
:1010800080108800a0002000801088009b0037009e
:1010900000c7b3009e4f100003003a00100020006c
:1010a000b04c88009500370070c7b3009e4f100009
:1010b00003003a0010002000c04c88008f00370069
:1010c00050c7b3009e4f100014003a00f04c80004f
:1010d0000080ea00f04c8800f04c80000000e00046
:1010e0000700320050052000801088000007200013
:1010f00080108800a0002000801088007f0037004a
:101100004004200080108800e00620008010880045
:10111000a0002000801088007800370010c3b300c2
:101120009e4f10001b003a00000c8000004d88000c
:10113000f04c80000000e0000b003200004d800009
:101140000000e800004d8800004d8000800078001d
:1011500060088000808f50000b003600600880001f
:10116000004d880008003700004d80000000e900b5
:10117000004d8800004d80000000e00002003d00ae
:101180000000eb00004d8800004d8000000c88003e
:101190005a00370020c3b3009e4f10001b003a00d6
:1011a000000c8000004d8800f04c80000000e00042
:1011b0000b003200004d80006a004000004d8800a6
:1011c000004d80008000780060088000808f500013
:1011d0000b00360060088000004d880008003700d2
:1011e000004d80006a005000004d8800004d8000d6
:1011f0000000e00002003d000000eb00004d880010
:10120000004d8000000c88003c00370030c3b30064
:101210009e4f10001b003a00000c8000004d88001b
:10122000f04c80000000e0000b003200004d800018
:101230007e004000004d8800004d80008000780056
:1012400060088000808f50000b003600600880002e
:10125000004d880008003700004d80007e005000df
:10126000004d8800004d80000000e00002003d00bd
:101270000000eb00004d8800004d8000000c88004d
:101280001e00370040c3b3009e4f10001b003a0001
:10129000000c8000004d8800f04c80000000e00051
:1012a0000b003200004d80004006b000004d880069
:1012b000004d80008000780060088000808f500022
:1012c0000c00360060088000004d880009003700df
:1012d000014d8000c0f92f0000804000004d8800c3
:1012e000004d80000000e00002003d000000eb0027
:1012f000004d8800004d8000000c88000ec2bf0029
:10130000624060000004e000010032000e22a900eb
:101310000080fa004f0178004f00be000040060038
:101320000000fa00c12020009140780090cfb30067
:1013300000c060000ce2b7000c02a900f00b200016
:10134000a01088000de2a8000fe2a8008d40a900bf
:10135000910920009140780080cfb30000c0600068
:101360000014a00099e0b7000f42a8000ec2bf0011
:10137000f043b2000ee2b7008d20a80081092000e2
:1013800091407800f0c8b30000c060000044a000a5
:1013900098e0b7000080fa00000006000200fa00a2
:1013a000000f7800e04c8000e10f500008003a0088
:1013b0000000eb00e04c880010002000d04c8800ba
:1013c0006000b80040488800514888001400370089
:1013d0001e0078006101b80040488000514880003c
:1013e000020040008380480040488800514888003f
:1013f000424880005348800000782000010020000f
:10140000800f5100818f5900050036000000eb006d
:10141000d04c88006000b8004048880051488800df
:081420000080fa000000060044
:020000040000fa
:0200000401f009
:04000000e7ff000016
:020000040000fa
:0200000401f009
:04000400ff7f00007a
:020000040000fa
:0200000401f009
:04000800ff7f000076
:020000040000fa
:100008004e0a00004e0a00004e0a00004e0a000088
:100018004e0a00004e0a00004e0a00004e0a000078
:100028004e0a00004e0a00004e0a00004e0a000068
:100038004e0a00004e0a00004e0a00004e0a000058
:100048004e0a0000840700007c0700004e0a0000ea
:100058004e0a00004e0a00004e0a00004e0a000038
:100068004e0a00004e0a00004e0a00004e0a000028
:100078004e0a00004e0a00004e0a00004e0a000018
:100088004e0a00004e0a00004e0a00004e0a000008
:100098004e0a00004e0a00004e0a00004e0a0000f8
:1000a8004e0a00004e0a00004e0a00004e0a0000e8
:1000b8004e0a00004e0a00004e0a00004e0a0000d8
:1000c8004e0a00004e0a00004e0a00004e0a0000c8
:1000d8004e0a00004e0a00004e0a00004e0a0000b8
:1000e8004e0a00004e0a00004e0a00004e0a0000a8
:0800f8004e0a00004e0a000050
:020000040000fa
:100108004e0a00004e0a00004e0a00004e0a000087
:100118004e0a00004e0a00004e0a00004e0a000077
:100128004e0a00004e0a00004e0a00004e0a000067
:100138004e0a00004e0a00004e0a00004e0a000057
:100148004e0a0000840700007c0700004e0a0000e9
:100158004e0a00004e0a00004e0a00004e0a000037
:100168004e0a00004e0a00004e0a00004e0a000027
:100178004e0a00004e0a00004e0a00004e0a000017
:100188004e0a00004e0a00004e0a00004e0a000007
:100198004e0a00004e0a00004e0a00004e0a0000f7
:1001a8004e0a00004e0a00004e0a00004e0a0000e7
:1001b8004e0a00004e0a00004e0a00004e0a0000d7
:1001c8004e0a00004e0a00004e0a00004e0a0000c7
:1001d8004e0a00004e0a00004e0a00004e0a0000b7
:1001e8004e0a00004e0a00004e0a00004e0a0000a7
:0801f8004e0a00004e0a00004f
:020000040000fa
:10142800b0090000040000000200000010270000be
:1014380000000000b40900000400000000000000e3
:10144800aa09000006000000020000004000640035
:101458000000100000080000040100000000000067
:10146800a2090000080000000200000001010100bc
:1014780002000000c2010000040900009e000000f4
:1014880000000000b8090000020000000000000091
:041498000000000050
:020000040000fa
:04149c000000fe004e
:00000001FF
