:020000040000fa
:080000000001040000000000f3
:020000040000fa
:100008009a0100009a0100009a0100009a0100007c
:100018009a0100009a0100009a0100009a0100006c
:100028009a0100009a0100009a0100009a0100005c
:100038009a0100009a0100009a0100009a0100004c
:100048009a0100009a0100009a0100009a0100003c
:100058009a0100009a0100009a0100009a0100002c
:100068009a0100009a0100009a0100009a0100001c
:100078009a0100009a0100009a0100009a0100000c
:100088009a0100009a0100009a0100009a010000fc
:100098009a0100009a0100009a0100009a010000ec
:1000a8009a0100009a0100009a0100009a010000dc
:1000b8009a0100009a0100009a0100009a010000cc
:1000c8009a0100009a0100009a0100009a010000bc
:1000d8009a0100009a0100009a0100009a010000ac
:1000e8009a0100009a0100009a0100009a0100009c
:0800f8009a0100009a010000ca
:020000040000fa
:100108009a0100009a0100009a0100009a0100007b
:100118009a0100009a0100009a0100009a0100006b
:100128009a0100009a0100009a0100009a0100005b
:100138009a0100009a0100009a0100009a0100004b
:100148009a0100009a0100009a0100009a0100003b
:100158009a0100009a0100009a0100009a0100002b
:100168009a0100009a0100009a0100009a0100001b
:100178009a0100009a0100009a0100009a0100000b
:100188009a0100009a0100009a0100009a010000fb
:100198009a0100009a0100009a0100009a010000eb
:1001a8009a0100009a0100009a0100009a010000db
:1001b8009a0100009a0100009a0100009a010000cb
:1001c8009a0100009a0100009a0100009a010000bb
:1001d8009a0100009a0100009a0100009a010000ab
:1001e8009a0100009a0100009a0100009a0100009b
:0801f8009a0100009a010000c9
:020000040000fa
:10020000ef8620000eff21000e0188000000000094
:10021000000020000000e000020032000001200089
:10022000200288000c000700e02f200001002000c1
:1002300011000700000020000000e0000200320072
:100240000000020000000000f802020000000000b0
:100250000040da000000fe004440a900c000200079
:100260000000e0000300320000002000a001880030
:100270004440a8000000060091018800800078003a
:100280000000eb0015003700e280400032a0b4000f
:100290009101ba00e280400032a0b4009102ba009d
:1002a000e280400032a0b4000002eb00472bde00e9
:1002b000f507b200602ce10004003a000059eb00a1
:1002c0008301e900fdff3e00040037006128e100e2
:1002d000010032000082eb00040007001101ba00a7
:1002e0000200e000e8ff3a00000006003159ba00c1
:1002f0008301e9000c0032002159ba008301e900b2
:10030000080032000400e00003003a00e2804000f0
:1003100032a0b400f5ff370011d9ba008301e9001b
:10032000faff3a008100e800e180400032a0b4000a
:0c033000000006000040da000000fe00a3
:020000040000fa
:10033c000800000009000000060000000700000093
:08034c000a0000000b00000094
:020000040000fa
:100354000400fa00100798000002eb00040f780074
:100364000b0037001e027800040242009e02900037
:1003740084824200364080001e027800040242005b
:100384000402430014027800840a78001e0fe80077
:100394001e027800e40f5200f2ff34000080fa00dd
:1003a400000006000600fa001007980021079800d4
:1003b4000002eb00040f78000b0037001e027800e7
:1003c40004024200ae029000848242001e027800c1
:1003d400040242001e039000040243001402780049
:1003e400840a78001e0fe8001e027800e40f520011
:1003f400f2ff34000080fa00000006000600fa0054
:10040400200798000002eb00040f78000002eb00c4
:1004140014079800100037002e0290001402780090
:100424009e0f5200060034002e029000140f780034
:100434002e0290000482e80024079800030037008d
:100444002e0290000482e800240798001e02900007
:100454000402e800140798001e029000e40f520002
:10046400edff34001e027800040078000080fa00da
:10047400000006000600fa00200798000002eb00c6
:10048400040f78000002eb001407980009003700fd
:100494002e029000140278001e0f42002e029000db
:1004a4000482e800240798001e0290000402e80079
:1004b400140798001e029000e40f5200f4ff340069
:1004c4001e02780042a2de00040f78001e027800ab
:1004d400040078000080fa00000006000000fa0022
:1004e400644380000402e80064438800644380009d
:1004f400e50f5200020034000002eb006443880060
:1005040064438000040078000080fa0000000600c4
:100514000200fa0004158000f4428800a042a900f9
:1005240004158000e4428800a080200088ff0700b2
:10053400eaff070000027800040f78008560a90034
:10054400a042a80054438000cfa2de005600200041
:1005540007002000860f5200878f5a001f003e00bc
:100564000460010005003700080037000b00370065
:100574000e003700110037001400370001822000fc
:10058400a080200087ff070014003700a18220000c
:10059400a080200083ff0700100037004183200063
:1005a400a08020007fff07000c003700e1832000bb
:1005b400a08020007bff0700080037008184200012
:1005c400a080200077ff0700040037002185200069
:1005d400a080200073ff0700000000001e027800c6
:1005e400544388000080fa00000006000000fa006e
:0805f400c7ff0700feff3700fe
:020000040000fa
:1005fc00000800006000000000000000600800001f
:10060c000e00000002000000a086010000010000a6
:10061c00007dc80000ffff00ffff0000000000008d
:020000040000fa
:0200000401f009
:04000000e5bf000058
:020000040000fa
:0200000401f009
:04000400ff7f00007a
:020000040000fa
:0200000401f009
:04000800ffff0000f6
:00000001FF
