:020000040000fa
:080000000001040000000000f3
:020000040000fa
:10020000cfa5200080ff2100000188000000000031
:10021000050007000c000700520602000000000065
:100220000040da000000fe004440a9000000200069
:100230000000e0000300320000002000a001880060
:100240004440a80000000600e0f12000010020006a
:100250001600370062004000e080480091018800ed
:100260009001ba0062004000e080480091018800df
:100270009002ba0062004000e08048000002eb00fb
:100280006028e10005003a008301e900070033001f
:10029000038009000059eb00040037006128e100e9
:1002a000010032000082eb00050007009101880088
:1002b0001001ba000200e000e6ff3a00000005006d
:1002c000910188008002780062004000e0804800d0
:1002d0003559ba008301e900080032002559ba00f7
:1002e0008301e900050032000400e000f4ff320061
:1002f00015d9ba008301e900f1ff3a0000000600b9
:100300000001eb001c01370003f0a200889fbe0033
:100310008a9fbe008c1f7800800107008701330090
:100320006450e1004f0032006420e10052003200ce
:1003300003826c0007003b000905d0000306d000d3
:10034000820f54000c065d000200390002003200ea
:1003500089017800030678008582550004003d007d
:100360000003fd008103fd008502ea008b85420049
:10037000840f720002003b0060001000e080180053
:100380006011b8000005eb007a28e1000a0039008e
:1003900006007800c75ddd00f707b20087807500b2
:1003a0002d003700828171000a017800610560002c
:1003b0008180d1000080d3008502e900f9ff3b0075
:1003c000060440008784480002003b0060041400db
:1003d000e0841c000988a300070032008a817100b4
:1003e00082817100610164008904d1000884d30016
:1003f0008b05e800170037000978a30013003a00c6
:100400000b00e000130034008b05e90008044400f1
:1004100089844c000a4474000978a3000d003a0056
:100420000b00e000070034008b05e90008044400dd
:1004300089844c0001003a000b0020000978a300d9
:10044000f7ff32000001eb000200370082817100eb
:100450000a017800490107000cf0a70001f0a00094
:100460003f0137006420e10002003a00838f6c00f6
:100470003f0133000801be000200be003801370012
:10048000889fbe008a9fbe00010578000100e00041
:100490000400350008003c000000e00020003200ad
:1004a0000500370060001000e080180002003b00eb
:1004b00001f02c001a0037000004be006011b800e3
:1004c0006b0920000982cf00020039000882cf00aa
:1004d0000441b000694252000e00320008003b00a7
:1004e00082817100610164008904d1000884d30015
:1004f0008b05e8000442e800f9ff3a0005003700e8
:100500000804440089844c008b05e9000442e9009a
:10051000fbff3a00190107000af0a70001f0a00054
:100520004f05be004f04be0000000600889fbe00bd
:100530008a9fbe008c1f7800f8000700ff00330080
:1005400003866c006450e1002e0032006420e1005c
:10055000330032006150e1002f0032006120e100e1
:100560003100320085855500eb07b00009002000fe
:1005700008042000050037000804440089844c006a
:100580000a0031000603430087834b00000153003b
:1005900081815b00f8ff33000203be000800a00069
:1005a0000804440089844c00f6ff3900c639dd0098
:1005b0008301730001003200130020008904d10080
:1005c0000884d3000998a300050032000800a700a2
:1005d0000300a0008904d1000884d3008b05e80043
:1005e0008904d1000884d3000001eb000281d2000d
:1005f000e200070001f0a1000cf0a70001f0a0004c
:10060000d70037006420e100d90032000801be00a5
:100610000200be00f7ff37006120e100d400320085
:100620006000b800f3ff37000000200001f8270049
:10063000f0ff3700889fbe008a9fbe008c1f7800a5
:10064000b6000700bd00330003866c006450e10073
:10065000240032006420e100270032006150e100f4
:10066000220032006120e100210032008b8542002f
:10067000eb07b1000134b800003ab80008044200aa
:1006800089844a00013ab8000030b80088804000f0
:1006900009014a0004003300000040008180480046
:1006a000020149008b05e900c909dd0083017000e2
:1006b0000100320013002000c814de004814dd00e1
:1006c0004709de001200b200c808de00088470008e
:1006d000aa00070001f0a1000cf0a70001f0a000a3
:1006e0009f0037006120e100a10032000801be0038
:1006f0000200be00f7ff37006150e100fcff3a0046
:100700009b0037000001be00c20007000470a70074
:1007100003f0a10003f8a30013003a006509b1003b
:1007200010003200090035006928e10002003500a0
:100730000100280000000500000040008180480002
:100740008502e900fcff3a0000000600f88f420035
:10075000050035008100d1000080d3008502e8004b
:10076000fcff3a00000006008000eb0000000500de
:100770000081eb0000003700889fbe008a9fbe000a
:100780008c9fbe00820578000004be00a100070017
:100790000800be006420e1000700390002003a00b2
:1007a000f1ff2700f0ff2f000160a00012022000df
:1007b00092528800550037006120e10003003a00a2
:1007c0000b00a70001f823005000370001f0a10042
:1007d0000200210093642400a30007000800be006b
:1007e00004003500b2fd2000930c2400a000070097
:1007f0000004be000005eb000b00a6004f0dde005c
:1008000001f0a1000004be0032982f0023ea23006b
:1008100088ff07000001eb0003f023000b00a70096
:1008200003f82300b9fe0700930007000000a700ab
:100830000a00a20012ff07000b00e00003003200d4
:100840000200200003f02300affe070001f0a20029
:100850000006be00020020009304240075ff07007c
:100860000801be00a9fe0700809fbe000c00be006c
:1008700022a22a00d3a723006eff07004f01be006b
:10088000a2fe07000004be0001f0a100020020004b
:1008900003982300740007000800be00190035000b
:1008a0000001be0063ff07000006be00b2c52900bc
:1008b000e36223005fff070022222b00f3942b004a
:1008c00092fe07000c01be005aff0700e2732800e9
:1008d00083c023008dfe07000c01be0055ff0700fa
:1008e00042aa2a00a3e22b0088fe07000c01be00ea
:1008f00050ff07000801be004eff07000801be00c0
:1009000082fe07000a00a70001f0a2004f06be0009
:100910004f05be004f04be00000006000004be00ec
:100920003c0007000003be000405be000200be003c
:1009300038000700844f7500000006000200be006a
:100940006450e100050036006420e100020036003a
:100950000968a30001003a000800be000160a00081
:100960004f0678004f05be004f04be000000060091
:10097000f0ff2f00f1ff2700f9ff37008100200072
:10098000618055000b003d000b00200061fe2f0030
:100990000100e1001d0034008281710061016400ea
:1009a0008904d1000884d3000000e800faff3a006f
:1009b000710020006100640003007000020060000c
:1009c0000900320061044400e0844c000988a5005d
:1009d000050032008b05e8006808e10002003a00db
:1009e0008904d1000884d300f20f20000258e100ee
:1009f00005003d00c75ddd00f907b2008980750084
:100a000008007800000006000bf827008b00780033
:100a100000000500c70ade00f107b200f50fb200c2
:100a200008003200e1cf4200020032000170a00055
:100a300024000500810f7000010032000408050049
:100a400044000500810f700002003a001400050008
:100a50008502e9000000400081c04800fcff3b0027
:100a60000170a000240005001400200023003700be
:100a7000040020003c0037000001be00e5ff070035
:100a80000470a70003f0a1006509b1001600320050
:100a90000d0035006828e10006003500f0ff2f004a
:100aa000f1ff27000300e00013003b0001002800d5
:100ab0000000050000004000818048008502e90038
:100ac000fcff3a0008003700f88f420002003c00ab
:100ad0008000eb00000005008100d1000080d30001
:100ae0008502e800fcff3a000300e00002003b0042
:100af00060001000e080180000000600889fbe0023
:100b00008a9fbe00841f780084ff07004f00780092
:100b100011003300f0ff2f00838f6c0006003b00b4
:100b2000040565000a00a7000800370009f0a600c8
:100b30001000200008003700820f5400838f5c00f3
:100b4000030039001000200001003e0000002000da
:100b500009f0a7000000ea004f05be004f04be00e8
:100b60000000e00000000600889fbe008a9fbe00d3
:100b70008c1f78004f26dd0068ff07006fff3300f1
:100b80006120e100430032006250e10041003e007c
:100b90003e0039006420e1003c003200058255002f
:100ba0000f003b000402e80038003a00800f5300b9
:100bb000818f5b00350034000800be0003f0a10007
:100bc00001f0a60003f0a0000cf0a700cffd070085
:100bd00063ff37000603430087834b000c46460043
:100be0000005530081855b00020033000a03be004c
:100bf0000c00a0000402e900f6ff3b008505780028
:100c00000602430087824b0004003a006000b800ef
:100c100009f0a70001f0a00051ff370000025200c8
:100c200081825a000704e0000400330006034300f9
:100c300087834b008b05e900faff37000905780030
:100c40000604be000203be006011b8004bff07009f
:100c5000e00f5200e08f5a000700350002003c0010
:100c60000c08a300040032000601be0003f0a0003f
:100c70000cf0a700a5fd07000a85680001f0a1009f
:100c80000af0a70001f0a00035ff37000800be0001
:100c900033ff3700100220000cf0a60090528800ad
:100ca00033ff37009e00fa00b2020700c5020700ba
:100cb000d7020700eb020700e0a020002003070096
:100cc00040a220001e03070020a320001c030700f1
:100cd000a0a320001a030700f10007005a03070031
:100ce000b0fd200091fc230085fd0700300f980027
:100cf000410f98003e089000ce0890000001be0011
:100d000082fd0700300f9800410f98000000eb00b3
:100d1000200f98004b0037002e089000cf80de0097
:100d2000d7fd07000200200003282400fffd070074
:100d3000b2fd200093fc23003efe070070fd07007b
:100d4000000f9800110f98002e089000cf80de0051
:100d5000cbfd07000200200003282400f3fd07005c
:100d6000b2fd200093fc230032fe070064fd070063
:100d7000c21e2500833b24002efe0700600798005a
:100d8000710798002e089000cf80de00bcfd0700a0
:100d90000200200003282400e4fd0700b2fd20002b
:100da00093fc230023fe070055fd0700c21e25000b
:100db000833b24001ffe070052fe070080007800de
:100dc000a00920000e004000010878002e089000c5
:100dd000cf80de00aafd07000200200003282400c7
:100de000d2fd0700b2fd200093fc230011fe070096
:100df0005ffe0700c21e2500833b24000dfe070096
:100e000040fe070080007800a00920000e0040008e
:100e1000110098002e099000a00920000e0040004b
:100e20001000be0080017800fa0047000200410077
:100e300001004000030878002e0890000000e80040
:100e4000200f9800ae089000f0032000808f500023
:100e5000b1ff34006000b800305288004152880071
:100e600014003700606626006106240040079800e1
:100e70005107980090c22500710b240020079800ac
:100e8000310798002e019000be0190004e009000a6
:100e9000de009000a5fd0700008fbe0030528000ec
:100ea0004152800061004000e080480030528800dc
:100eb000415288003252800043528000105280001c
:100ec00021528000800f5100818f5900e5ff3500cd
:100ed000e0ff37003600f800809fbe00829fbe0012
:100ee000849fbe00869fbe000200fa008540a900d4
:100ef000d04a8000e10f4000140032000000eb00f7
:100f0000000f78000e003700414d800080962000d1
:100f100000804000104078000080fb0080108800b6
:100f20000100e800404d8800d04a80008000780031
:100f3000404d8000808f5000040039001e0fe800f3
:100f4000300020009e0f1000efff36001e007800da
:100f5000e5010700d04a800080007800404d800005
:100f6000808f50001b003100604f8000e10f500067
:100f700008003a00a0a420006a000700d04a8800b8
:100f80000000eb00404d88000000eb00604f88003f
:100f900010003700704f8000e10f500008003a0049
:100fa000c0a420005f000700d04a88000000eb00ca
:100fb000404d88000000eb00704f880005003700ae
:100fc0007402070057000700d04a88000000eb00b9
:100fd000404d88000080fa004f03be004f02be0063
:100fe0004f01be004f00be003600f9000040060071
:100ff0003600f800809fbe00829fbe00849fbe0026
:10100000869fbe000200fa008520a9009010800093
:10101000004f7800804f8000e10f50000b003a0035
:101020001e80fb00e04a8800514f8000a09a2000fb
:10103000008040001e4878000100e800504f880002
:101040000000eb00804f880009003700e0c7b300c4
:101050009e4f100003003a0010002000804f8800cf
:1010600003003700e04a80009e407800120107002c
:101070000ec2bf00624060000004e00001003200c8
:101080000e22a9000080fa004f03be004f02be00ee
:101090004f01be004f00be003600f90000400600c0
:1010a0000000fa00c12020009140780090cfb300ea
:1010b00000c060000ce2b7000c02a900f0022000a2
:1010c000a01088000de2a8000fe2a8008d40a80043
:1010d000910920009140780080cfb30000c06000eb
:1010e0000014a00099e0b7000f42a8000000eb0038
:1010f000801088000ec2bf00f043b2000ee2b700bd
:101100008d20a8008109200091407800f0c8b3002c
:1011100000c060000044a00098e0b7000080fa0022
:10112000000006000a00fa00300798003e00900018
:101130000000e00003003a000080eb004007980048
:10114000da0037003e009000104078000040e800d0
:10115000204798000040eb00104798000040eb004b
:10116000004f780010002000200798002c00370066
:101170001e4090008080fb00f00f20000101500015
:10118000ae0090003e0090000080400010407800cb
:101190000080fb00800f510003003d001e409000c6
:1011a0000040e80010479800ae0090003e0090001c
:1011b00000804000904078001e40900001404000b8
:1011c000104798001e409000e14f400002003a0096
:1011d0000040eb00104798009e80fb00f00f2000bd
:1011e000810050001e4090000080fb00808f500066
:1011f00001003d001e4fe8001e4090001e4f4000c1
:1012000000c1eb009e4f110002003a000040eb00cd
:10121000004f78002e0090000000e80020079800a2
:101220002e4090008080fb002e009000808f5000a8
:10123000cfff3e000000eb00200798000000eb000d
:10124000404d880036003700ae0090003e00900010
:101250000080400090407800e0c7b30080cf50008d
:101260000d003a00424d8000809620008000410031
:10127000d0c7b300804878000200e800404d8800e5
:10128000414d80008096200080804000e0c5b30082
:10129000804878001c003700ae0090003e009000af
:1012a0000080400090407800d0c7b30080cf50004d
:1012b0000d003a00424d80008096200080004100e1
:1012c000d0c7b300804878000200e800404d880095
:1012d000414d80008096200080804000d0c5b30042
:1012e0008048780008003700424d8000ae00900032
:1012f0003e009000008040009040780080962000e2
:1013000000004100014878002e0090000000e80035
:1013100020079800404d80000000e800404d880004
:101320002e4090008080fb002e009000808f5000a7
:10133000c5ff3e009e409000e0c7b30080cf500044
:101340000f003a00424d800080962000800041004e
:10135000d0c7b300804878000200e800404d880004
:10136000424d80008096200080004100e0c5b3001f
:10137000804878000200e800404d88001a003700dd
:101380009e409000d0c7b30080cf50000f003a00bd
:10139000424d80008096200080004100d0c7b300fd
:1013a000804878000200e800404d8800424d8000ef
:1013b0008096200080004100d0c5b30080487800ae
:1013c0000200e800404d880007003700414d8000d2
:1013d00080962000008040001e4190000248780066
:1013e0000100e800404d8800e0c7b3009e4f1000a8
:1013f0000f003a00424d800080962000800041009e
:10140000d0c7b300804878000200e800404d880053
:10141000424d80008096200080004100e0c5b3006e
:10142000804878000200e800404d8800180037002e
:10143000d0c7b3009e4f10000f003a00424d80000d
:101440008096200080004100d0c7b300804878001b
:101450000200e800404d8800424d80008096200048
:1014600080004100d0c5b300804878000200e80049
:10147000404d880006003700414d800080962000d6
:10148000008040001e4878000100e800404d8800c0
:10149000414d80008096200080804000e0c7b3006e
:1014a00080487800404d8000400798004e00900032
:1014b0000080fa00000006000400fa00000f780027
:1014c00021479800ae409000d0c7b30080cf5000b5
:1014d00003003a0010002000104b88008000370005
:1014e000004b80000000e0003f003a00104b8000fd
:1014f000e10f500005003a002e4090000042b0007d
:10150000204798000000eb00104b88005fc9bf0027
:101510008080fb00f00f2000810050002e409000e2
:101520000080fb00808f500003003d005fc9bf00ba
:101530000040e8005fe9b700f19520009140780095
:101540002e40900000c040005fe9b7005fc9bf00b7
:10155000e14f400002003a000040eb005fe9b700b5
:101560005ec9bf008080fb00f00f200081005000aa
:101570005fc9bf000080fb00808f500003003d006a
:101580005ec9bf000040e8005ee9b700e1952000b9
:10159000914078005fc9bf0000c040005ee9b7001d
:1015a0005ec9bf00e14f400002003a000040eb007e
:1015b0005ee9b700514f8000a09a200000804000f3
:1015c0002e419000024878000100e800504f88004a
:1015d000504f80009e0f5000410036001000200048
:1015e000004b88003e003700104b8000e10f500098
:1015f00005003a002e4090000042b00020479800bd
:101600000000eb00104b8800514f8000a09a200092
:10161000008040002e419000024878000100e80060
:10162000504f88009e80e800504f8000808f50000f
:101630002b0031000000eb00004b8800504f800071
:101640008080e900a09a200000804000904078004f
:101650005fc9bf0080cf500019003a00504f800092
:101660008000e900a09a20000080400090407800af
:101670005ec9bf0080cf500011003a00100020006a
:10168000604f88000000eb00504f88000040eb00e6
:101690005fe9b7000040eb005ee9b700abc9bf00ef
:1016a000e34f500003003a0010002000a04f8800d4
:1016b0000b003700a09a20008400070008003700c4
:1016c00010002000704f88000000eb00504f880091
:1016d0000040eb005fe9b7000040eb005ee9b700b7
:1016e0000080fa00000006000200fa00000f7800f7
:1016f000a04f8000e10f500008003a000000eb000e
:10170000a04f880010002000904f88006000b800b3
:10171000204b8800314b8800140037001e007800f1
:101720006101b800204b8000314b80000200400076
:1017300083804800204b8800314b8800224b80007a
:10174000334b80000078200001002000800f510002
:10175000818f5900050036000000eb00904f880093
:101760006000b800204b8800314b88000080fa00f0
:10177000000006000200fa0050c1b3000eeab700f4
:1017800040c0b3000feab70020002000000f78002f
:10179000070037001e0178001e00780080407800a6
:1017a000e0a0200000004100014878001e0fe80082
:1017b000500120009e0f1000f6ff34000080fa0058
:1017c000000006000000fa00d0c0b30024eab70011
:1017d00050c0b30025eab70090c2250071082c0064
:1017e000305188004151880060ba2900c1052400a9
:1017f0005051880061518800500c2200a11424002f
:1018000070518800815188000080fa0000000600b5
:101810000200fa0070c0b30032eab70080c0b30023
:1018200033eab70020002000000f780008003700de
:101830001e0178001e0078007e4040008040780045
:1018400020a3200000004100014878001e0fe8009e
:10185000700020009e0f1000f5ff34000080fa0099
:10186000000006000200fa0070c0b3003aeab700b8
:10187000a0c0b3003beab70020002000000f7800b2
:10188000080037001e0178001e0078007e404000ee
:1018900080407800a0a320000000410001487800ab
:1018a0001e0fe800700020009e0f1000f5ff3400ae
:1018b0000080fa00000006000000fa00adff0700fb
:1018c000c0ff07000080fa00000006000400fa00d4
:1018d000000f78001e00e800104078000080fb0038
:1018e000100798001e009000e80f50000b00320017
:1018f0001e009000ea0f50000c0032001e00900005
:10190000e60f5000010032000b00370041a220001a
:101910001e007800300007000700370021a32000d8
:101920001e0078002c00070003003700a1a3200050
:101930001e007800280007000080fa000000060062
:101940000400fa00000f7800b04f8000e90f50004b
:101950000b003c00b04f800080004000a09f2000a2
:10196000008040001e087800b04f80000000e800b2
:10197000b04f8800100020001007980002003700c8
:101980000000eb00100798001e0090000080fa0095
:10199000000006000000fa00c14f8000b04f800038
:1019a000808f5000020035000000eb00c04f88001f
:1019b000c14f800001814000a09f20000000410035
:1019c000100178000100e800c04f88000200780094
:1019d0000080fa00000006000600fa0010079800d8
:1019e000210798001e009000104f780020c0b3001f
:1019f000104798000f0037001e4090000080fb0049
:101a0000800078002e009000008140001e40900071
:101a10000080fb00800078001e00900000804000e5
:101a200010407800004978001e4090000040e80017
:101a3000104798001e4090009e4f5000eeff360069
:101a40000080fa00000006000200fa00889fbe0035
:101a50000000eb00000f78002e0037001e00780019
:101a6000cf80de0086fa07000004be0070528000be
:101a7000cf80de0082fa07000001be000800be0031
:101a8000aafa0700b2fd200093fc2300e9fa070040
:101a90001bfa0700c21e2500833b2400e5fa07005d
:101aa00018fb0700b04a88001e007800cf80de00d7
:101ab00073fa07000004be0070528000cf80de0081
:101ac0006ffa07000001be000800be0097fa070089
:101ad000b2fd200093fc2300d6fa070024fb070088
:101ae000c21e2500833b2400d2fa070005fb070035
:101af000c04a88001e007800b24a8000c34a8000b5
:101b0000c200dd0060852000008040000288be0029
:101b10001e0fe800705280009e0f1000cfff3500ae
:101b2000d282a900d3a2a900d2c2a900d2a2a90040
:101b30000000eb00200c88000000eb00000c880087
:101b40000000eb00100c8800411820009140780044
:101b500080cfb30000c060006040b30084e1b700f4
:101b60008461a9000000eb00500c88000000eb002d
:101b7000300c88000000eb00400c8800a118200009
:101b80009140780080cfb30000c060006040b30097
:101b90008ae1b7008a61a9000000eb008008880094
:101ba0000000eb003008880001112000914078000f
:101bb000f0ccb30000c0600010e1b70000172000b7
:101bc00060088800710920009140780080cfb30040
:101bd00000c060003040b30097e0b70084c0a900a7
:101be0008cc0a80011e1a8004f04be000080fa00dc
:101bf000000006003600f800809fbe00821f7800bb
:101c00000000fa0084c0a90080428000a01688006d
:101c1000a0168000804288009042800072528000ae
:101c2000110009000200d8000000e00018003a008e
:101c300081428000f0f82d00008060008042880022
:101c400081428000000520000080700080428800f2
:101c50009042800072528000110009000200d800fa
:101c60008000fd00c200dd00608520000080400093
:101c70001000be00b04a8800c14a8800201720002a
:101c8000000c8800c04a8000300c880053003700e8
:101c90009042800072528000110009000200d800ba
:101ca000e10f500018003a0081428000f0f82d004a
:101cb0000080600080428800814280000003200094
:101cc0000080700080428800904280007252800044
:101cd000110009000200d8008000fd00c200dd00f4
:101ce00060852000008040001000be00b04a8800df
:101cf000c14a880020172000000c8800b04a8000ec
:101d0000300c88003500370090428000725280000d
:101d1000110009000200d800e20f500018003a003c
:101d200081428000f0f82d00008060008042880031
:101d30008142800000022200008070008042880002
:101d40009042800072528000110009000200d80009
:101d50008000fd00c200dd006085200000804000a2
:101d60001000be00b04a8800c14a8800c04a800006
:101d7000000c880020172000300c88001700370066
:101d800081428000f0f82d000080600080428800d1
:101d900081428000000320000080700080428800a3
:101da0009042800072528000110009000200d800a9
:101db0008000fd00c200dd00608520000080400042
:101dc0001000be00b04a8800c14a8800b04a8000b6
:101dd000000c880020172000300c8800a0428000f2
:101de0000000e800a0428800a142800080528000ec
:101df000808f50000c003a000000eb00a0428800e9
:101e0000904280000000e8009042880070528000fc
:101e1000c200dd0090428000808f500002003a0036
:101e20000000eb00904288000080fa004f0178002b
:0c1e30004f00be003600f9000040060024
:020000040000fa
:10000800a60f0000a60f0000a60f0000a60f000014
:10001800a60f0000a60f0000a60f0000a60f000004
:10002800a60f0000a60f0000a60f0000a60f0000f4
:10003800a60f0000a60f0000fa0d0000a60f000092
:10004800a60f0000f80700006a070000a60f0000ce
:10005800a60f0000a60f0000a60f0000a60f0000c4
:10006800a60f0000a60f0000a60f0000a60f0000b4
:10007800a60f0000a60f0000a60f0000a60f0000a4
:10008800a60f0000a60f0000a60f0000a60f000094
:10009800a60f0000a60f0000a60f0000a60f000084
:1000a800a60f0000a60f0000a60f0000a60f000074
:1000b800a60f0000a60f0000a60f0000a60f000064
:1000c800a60f0000a60f0000a60f0000a60f000054
:1000d800a60f0000a60f0000a60f0000a60f000044
:1000e800a60f0000a60f0000a60f0000a60f000034
:0800f800a60f0000a60f000096
:020000040000fa
:10010800a60f0000a60f0000a60f0000a60f000013
:10011800a60f0000a60f0000a60f0000a60f000003
:10012800a60f0000a60f0000a60f0000a60f0000f3
:10013800a60f0000a60f0000fa0d0000a60f000091
:10014800a60f0000f80700006a070000a60f0000cd
:10015800a60f0000a60f0000a60f0000a60f0000c3
:10016800a60f0000a60f0000a60f0000a60f0000b3
:10017800a60f0000a60f0000a60f0000a60f0000a3
:10018800a60f0000a60f0000a60f0000a60f000093
:10019800a60f0000a60f0000a60f0000a60f000083
:1001a800a60f0000a60f0000a60f0000a60f000073
:1001b800a60f0000a60f0000a60f0000a60f000063
:1001c800a60f0000a60f0000a60f0000a60f000053
:1001d800a60f0000a60f0000a60f0000a60f000043
:1001e800a60f0000a60f0000a60f0000a60f000033
:0801f800a60f0000a60f000095
:020000040000fa
:101e3c00420a00000400000002000000102700000d
:101e4c0000000000460a0000040000000000000032
:101e5c004a0a000004000000020000000101010019
:101e6c00020000005a0900009c0000000000000065
:101e7c00f60900004c00000000000000540a0000ad
:101e8c00080000000200000000000000000000003c
:101e9c00000000004e0a00000400000002000000d8
:101eac004000640000000000500800000a0100001f
:101ebc0000000000520a00000200000000000000b8
:041ecc000000000012
:020000040000fa
:101ed000811f7800821f780042a520000281400007
:101ee00092007800010040000009780000037800ab
:101ef000000278008002780005f0a7008502ea0061
:101f00001341c000f5ff27001201c0000000cc0003
:101f1000000278008402780005f0a7008502ea003c
:101f20001301c0000400cc00d5cc21001301c00077
:101f300000027800353326001201c0000000cc00fa
:0c1f40004f017800cf0078000000060080
:020000040000fa
:041f4c000000fe0093
:00000001FF
