:020000040000fa
:080000000001040000000000f3
:020000040000fa
:100008009a0100009a0100009a0100009a0100007c
:100018009a0100009a0100009a0100009a0100006c
:100028009a0100009a0100009a0100009a0100005c
:100038009a0100009a010000560e00009a01000083
:100048009a0100009a0100009a0100009a0100003c
:100058009a0100009a0100009a0100009a0100002c
:100068009a0100009a0100009a0100009a0100001c
:100078009a0100009a0100009a0100009a0100000c
:100088009a0100009a0100009a0100009a010000fc
:100098009a0100009a0100009a0100009a010000ec
:1000a8009a0100009a0100009a0100009a010000dc
:1000b8009a0100009a0100009a0100009a010000cc
:1000c8009a0100009a0100009a0100009a010000bc
:1000d8009a0100009a0100009a0100009a010000ac
:1000e8009a0100009a0100009a0100009a0100009c
:0800f8009a0100009a010000ca
:020000040000fa
:100108009a0100009a0100009a0100009a0100007b
:100118009a0100009a0100009a0100009a0100006b
:100128009a0100009a0100009a0100009a0100005b
:100138009a0100009a010000560e00009a01000082
:100148009a0100009a0100009a0100009a0100003b
:100158009a0100009a0100009a0100009a0100002b
:100168009a0100009a0100009a0100009a0100001b
:100178009a0100009a0100009a0100009a0100000b
:100188009a0100009a0100009a0100009a010000fb
:100198009a0100009a0100009a0100009a010000eb
:1001a8009a0100009a0100009a0100009a010000db
:1001b8009a0100009a0100009a0100009a010000cb
:1001c8009a0100009a0100009a0100009a010000bb
:1001d8009a0100009a0100009a0100009a010000ab
:1001e8009a0100009a0100009a0100009a0100009b
:0801f8009a0100009a010000c9
:020000040000fa
:100200002f9420000eff21000e0188000000000046
:10021000000020000000e000020032000001200089
:10022000200288000c0007000029210001002000a6
:1002300011000700000020000000e0000200320072
:100240000000020000000000c012020000000000d8
:100250000040da000000fe004440a900c05d20001c
:100260000000e0000300320000002000a001880030
:100270004440a8000000060091018800800078003a
:100280000000eb0015003700e280400032a0b4000f
:100290009101ba00e280400032a0b4009102ba009d
:1002a000e280400032a0b4000002eb00472bde00e9
:1002b000f507b200602ce10004003a000059eb00a1
:1002c0008301e900fdff3e00040037006128e100e2
:1002d000010032000082eb00040007001101ba00a7
:1002e0000200e000e8ff3a00000006003159ba00c1
:1002f0008301e9000c0032002159ba008301e900b2
:10030000080032000400e00003003a00e2804000f0
:1003100032a0b400f5ff370011d9ba008301e9001b
:10032000faff3a008100e800e180400032a0b4000a
:10033000000006000040da000000fe0003f0a2000a
:10034000889fbe008a9fbe008c1f7800f6000700c1
:10035000fd0033006450e1004f0032006420e100f2
:100360005200320003826c0007003b000905d000f8
:100370000306d000820f54000c065d000200390015
:10038000020032008901780003067800858255005a
:1003900004003d000003fd008103fd008502ea002a
:1003a0008b854200840f720002003b006000100049
:1003b000e08018006011b8000005eb007a28e10029
:1003c0000a00390006007800c75ddd00f707b200bb
:1003d000878075002d003700828171000a01780046
:1003e000610560008180d1000080d3008502e900b2
:1003f000f9ff3b00060440008784480002003b00f0
:1004000060041400e0841c000988a3000700320087
:100410008a81710082817100610164008904d100c8
:100420000884d3008b05e800170037000978a30083
:1004300013003a000b00e000130034008b05e900c4
:100440000804440089844c000a4474000978a3001d
:100450000d003a000b00e000070034008b05e900b6
:100460000804440089844c0001003a000b0020007d
:100470000978a300f7ff32000001eb00020037000b
:10048000828171000a0178006c0007000cf0a7005f
:1004900001f0a000b50037006420e10002003a003e
:1004a000838f6c00b50033000801be000200be005f
:1004b000ae0037000081eb00e7003700889fbe00e8
:1004c0008a9fbe008c1f7800970007009e003300b3
:1004d00003866c006450e1002e0032006420e100cd
:1004e000330032006150e1002f0032006120e10052
:1004f0003100320085855500eb07b000090020006f
:1005000008042000050037000804440089844c00da
:100510000a0031000603430087834b0000015300ab
:1005200081815b00f8ff33000203be000800a000d9
:100530000804440089844c00f6ff3900c639dd0008
:100540008301730001003200130020008904d100f0
:100550000884d3000998a300050032000800a70012
:100560000300a0008904d1000884d3008b05e800b3
:100570008904d1000884d3000001eb000281d2007d
:100580002e00070001f0a1000cf0a70001f0a00070
:10059000760037006420e100780032000801be00d8
:1005a0000200be00f7ff37006120e1007300320057
:1005b0006000b800f3ff37000000200001f82700ba
:1005c000f0ff37000001be00420007000470a700e2
:1005d00003f0a10003f8a30013003a006509b1007d
:1005e00010003200090035006928e10002003500e2
:1005f0000100280000000500000040008180480044
:100600008502e900fcff3a0000000600f88f420076
:10061000050035008100d1000080d3008502e8008c
:10062000fcff3a00000006008000eb00000005001f
:100630004f89de008201780015013700810020001b
:10064000618055000b003d000b00200061fe2f0073
:100650000100e1001d00340082817100610164002d
:100660008904d1000884d3000000e800faff3a00b2
:10067000710020006100640003007000020060004f
:100680000900320061044400e0844c000988a500a0
:10069000050032008b05e8006808e10002003a001e
:1006a0008904d1000884d300f20f20000258e10031
:1006b00005003d00c75ddd00f907b20089807500c7
:1006c00008007800000006000bf827008b00780077
:1006d00000000500c70ade00f107b200f50fb20006
:1006e00008003200e1cf4200020032000170a00099
:1006f00024000500810f700001003200040805008d
:1007000044000500810f700002003a00140005004b
:100710008502e9000000400081c04800fcff3b006a
:100720000170a000240005000004be00e9ff0700de
:100730000003be000405be000200be00e5ff070086
:10074000844f7500000006000200be006450e10006
:10075000050036006420e100020036000968a300ad
:1007600001003a000800be000160a0004f067800ba
:100770004f05be004f04be0000000600f0ff2f0032
:10078000f1ff2700f9ff3700889fbe008a9fbe0057
:100790008c1f7800e4ff0700ebff330003866c003a
:1007a0006450e100240032006420e10027003200a0
:1007b0006150e100220032006120e100210032009e
:1007c0008b854200eb07b1000134b800003ab80055
:1007d0000804420089844a00013ab8000030b80099
:1007e0008880400009014a000400330000004000f6
:1007f00081804800020149008b05e900c909dd003c
:10080000830170000100320013002000c814de00d4
:100810004814dd004709de001200b200c808de00ff
:100820000884700085ff070001f0a1000cf0a7000c
:1008300001f0a000cdff37006120e100cfff3200c2
:100840000801be000200be00f7ff37006150e10062
:10085000fcff3a00c9ff3700889fbe008a9fbe0098
:100860008c9fbe00820578000004be0099ff07003f
:100870000800be006420e1000700390002003a00d1
:10088000f1ff2700f0ff2f000160a00012022000fe
:10089000024a8800550037006120e10003003a0059
:1008a0000b00a70001f823005000370001f0a10061
:1008b0000200210093642400520007000800be00db
:1008c00004003500b2fd2000930c2400af000700a7
:1008d0000004be000005eb000b00a6004f0dde007b
:1008e00001f0a1000004be0032982f0023ea23008b
:1008f000a5ff07000001eb0003f023000b00a70099
:1009000003f823008efe0700400007000000a70048
:100910000a00a20046ff07000b00e00003003200bf
:100920000200200003f0230084fe070001f0a20073
:100930000006be00020020009304240092ff07007e
:100940000801be007efe0700809fbe000c00be00b6
:1009500022a22a00d3a723008bff07004f01be006d
:1009600077fe07000004be0001f0a1000200200095
:1009700003982300230007000800be00190035007b
:100980000001be0080ff07000006be00b2c52900be
:10099000e36223007cff070022222b00f3942b004c
:1009a00067fe07000c01be0077ff0700e273280016
:1009b00083c0230062fe07000c01be0072ff070027
:1009c00042aa2a00a3e22b005dfe07000c01be0034
:1009d0006dff07000801be006bff07000801be00a5
:1009e00057fe07000a00a70001f0a2004f06be0054
:1009f0004f05be004f04be00000006000001eb00e2
:100a000095ff370014002000b10037000001be0040
:100a100030ff07000470a70003f0a1006509b100d2
:100a2000160032000d0035006828e1000600350090
:100a3000f0ff2f00f1ff27000300e00013003b0050
:100a400001002800000005000000400081804800ef
:100a50008502e900fcff3a0008003700f88f4200e9
:100a600002003c008000eb00000005008100d10086
:100a70000080d3008502e800fcff3a000300e0009c
:100a800002003b0060001000e0801800000006003b
:100a9000881f7800030478000300e00007003d0091
:100aa00060001000e080180060011900e08119006a
:100ab00002003b0001f02d00030037000400070096
:100ac00008f0a70001f0a0004f0478000000060025
:100ad000889fbe008a9fbe000082700004027100e1
:100ae00004827100260032000004be000200be0035
:100af0006011b8006b092000950220000182cf0030
:100b00000a0039000541b1000082cf00070039001a
:100b10000541b1000982cf00040039000541b10050
:100b20000882cf00010039000541b10005425200a2
:100b3000120032000a003b008281710061016400f2
:100b40008100d1000080d3008984d3000884d300c1
:100b50008b05e8000442e800f7ff3a000700370081
:100b60000804440089844c0000004800818048004b
:100b70008b05e9000442e900f9ff3a00affe0700e7
:100b80004f05be004f04be00000006000400200018
:100b900000003700889fbe008a9fbe008c1f78002f
:100ba0004f26dd00e0fe0700e7fe33006120e10094
:100bb000430032006250e10041003e003e00390037
:100bc0006420e1003c003200058255000f003b002c
:100bd0000402e80038003a00800f5300818f5b0068
:100be000350034000800be0003f0a10001f0a600ab
:100bf00003f0a0000cf0a700d1fd0700dbfe3700da
:100c00000603430087834b000c4646000005530053
:100c100081855b00020033000a03be000c00a000c7
:100c20000402e900f6ff3b00850578000602430058
:100c300087824b0004003a006000b80009f0a7006a
:100c400001f0a000c9fe37000002520081825a0064
:100c50000704e000040033000603430087834b00d1
:100c60008b05e900faff3700090578000604be008d
:100c70000203be006011b80070fe0700e00f5200d2
:100c8000e08f5a000700350002003c000c08a3006a
:100c9000040032000601be0003f0a0000cf0a70023
:100ca000a7fd07000a85680001f0a1000af0a7006f
:100cb00001f0a000adfe37000800be00abfe37001b
:100cc000100220000cf0a600004a8800abfe37009e
:100cd000889fbe008a9fbe00841f780092fe070096
:100ce0004f00780011003300f0ff2f00838f6c005d
:100cf00006003b00040565000a00a7000800370055
:100d000009f0a6001000200008003700820f5400f0
:100d1000838f5c00030039001000200001003e00ba
:100d20000000200009f0a7000000ea004f05be0007
:0c0d30004f04be000000e00000000600c0
:020000040000fa
:100d3c001000000004000000e2040000100000009d
:100d4c00040000007102000010000000040000000c
:100d5c00a001000010000000040000003801000099
:100d6c001000000004000000fa0000001000000059
:100d7c0004000000d000000010000000040000007f
:100d8c00b200000010000000040000009c000000f5
:100d9c0010000000040000008a0000001000000099
:100dac00040000007d0000001000000004000000a2
:100dbc00710000001000000004000000680000003a
:100dcc001000000004000000600000001000000093
:100ddc000400000059000000100000000400000096
:100dec005300000010000000040000004e00000042
:100dfc00100000000400000049000000100000007a
:100e0c000400000045000000100000000400000079
:100e1c004100000010000000040000003e00000033
:100e2c0010000000040000003b0000001000000057
:100e3c000400000038000000100000000400000056
:100e4c003600000010000000040000003400000018
:100e5c001000000004000000320000001000000030
:100e6c00040000003000000010000000040000002e
:100e7c002e00000010000000040000002c000000f8
:100e8c0010000000040000002b0000001000000007
:100e9c000400000029000000100000000400000005
:100eac0028000000100000000400000027000000d3
:100ebc0010000000040000002500000010000000dd
:100ecc0004000000240000001000000004000000da
:100edc0023000000100000000400000022000000ad
:100eec0010000000040000002100000010000000b1
:100efc0004000000200000001000000004000000ae
:100f0c002000000010000000040000001f00000082
:100f1c0010000000040000001e0000001000000083
:100f2c00040000001d000000100000000400000080
:100f3c001d00000010000000040000001c00000058
:100f4c0010000000040000001b0000001000000056
:100f5c00040000001b000000100000000400000052
:100f6c001a00000010000000040000001a0000002d
:100f7c001000000004000000190000001000000028
:100f8c000400000019000000040000001000000024
:100f9c00620000000400000010000000600000006f
:100fac0004000000100000005e00000004000000bf
:100fbc00100000005c0000000400000010000000a5
:100fcc005a0000000400000010000000590000004e
:100fdc000400000010000000570000000400000096
:100fec00100000005600000004000000100000007b
:100ffc00540000000400000010000000530000002a
:10100c00040000001000000051000000040000006b
:10101c001000000050000000040000001000000050
:10102c004f00000004000000100000004e00000003
:10103c0004000000100000004c0000000400000040
:10104c00100000004b000000040000001000000025
:10105c004a000000040000001000000049000000dd
:10106c000400000010000000480000000400000014
:10107c0010000000470000000400000010000000f9
:10108c0046000000040000001000000045000000b5
:10109c0004000000100000004400000004000000e8
:1010ac0010000000430000000400000010000000cd
:1010bc00420000000400000010000000410000008d
:1010cc0004000000100000004000000004000000bc
:1010dc0010000000400000000400000010000000a0
:1010ec003f00000004000000100000003e00000063
:1010fc0004000000100000003d000000040000008f
:10110c00100000003c000000040000001000000073
:10111c003c00000004000000100000003b00000038
:10112c0004000000100000003a0000000400000061
:10113c00100000003a000000040000001000000045
:10114c00390000000400000010000000380000000e
:10115c000400000010000000380000000400000033
:10116c001000000037000000040000001000000018
:10117c0036000000040000001000000036000000e3
:10118c000400000010000000350000000400000006
:10119c0010000000350000000400000010000000ea
:1011ac0034000000040000001000000034000000b7
:1011bc0004000000100000003300000004000000d8
:1011cc0010000000330000000400000010000000bc
:1011dc00320000000400000010000000320000008b
:1011ec0004000000100000003100000004000000aa
:1011fc00100000003100000004000000100000008e
:10120c00300000000400000010000000300000005e
:10121c0004000000100000002f000000040000007b
:10122c00100000002f00000004000000100000005f
:10123c002e00000004000000100000002e00000032
:10124c0004000000100000002d000000040000004d
:10125c00100000002d000000040000001000000031
:10126c002d00000004000000100000002c00000005
:10127c0004000000100000002c000000040000001e
:10128c00100000002b000000040000001000000003
:10129c002b00000004000000100000002b000000d8
:1012ac0004000000100000002a00000004000000f0
:1012bc00100000002a0000000400000010000000d4
:1012cc002a000000040000001000000029000000ab
:1012dc0004000000100000002900000004000000c1
:1012ec0010000000280000000400000010000000a6
:1012fc00280000000400000010000000280000007e
:10130c000400000010000000280000000400000091
:10131c001000000027000000040000001000000076
:10132c00270000000400000010000000270000004f
:10133c000400000010000000260000000400000063
:10134c001000000026000000040000001000000047
:10135c002600000004000000100000002500000022
:10136c000400000010000000250000000400000034
:10137c001000000025000000040000001000000018
:10138c0025000000040000001000000024000000f4
:10139c000400000010000000240000000400000005
:1013ac0010000000240000000400000010000000e9
:1013bc0023000000040000001000000023000000c7
:1013cc0004000000100000002300000004000000d6
:1013dc0010000000230000000400000010000000ba
:1013ec002200000004000000100000002200000099
:1013fc0004000000100000002200000004000000a7
:10140c00100000002200000004000000100000008a
:10141c002200000004000000100000002100000069
:10142c000400000010000000210000000400000077
:10143c00100000002100000004000000100000005b
:10144c00210000000400000010000000200000003b
:10145c000400000010000000200000000400000048
:10146c00100000002000000004000000100000002c
:10147c00200000000400000010000000200000000c
:10148c0004000000100000001f0000000400000019
:10149c00100000001f0000000400000010000000fd
:1014ac001f00000004000000100000001f000000de
:1014bc0004000000100000001f00000004000000e9
:1014cc00100000001e0000000400000010000000ce
:1014dc001e00000004000000100000001e000000b0
:1014ec0004000000100000001e00000004000000ba
:1014fc00100000001e00000004000000100000009e
:10150c001d00000004000000100000001d00000081
:10151c0004000000100000001d000000040000008a
:10152c00100000001d00000004000000100000006e
:10153c001d00000004000000100000001d00000051
:10154c0004000000100000001c000000040000005b
:10155c00100000001c00000004000000100000003f
:10156c001c00000004000000100000001c00000023
:10157c0004000000100000001c000000040000002b
:10158c00100000001c00000004000000100000000f
:10159c001b00000004000000100000001b000000f5
:1015ac0004000000100000001b00000004000000fc
:1015bc00100000001b0000000400000010000000e0
:1015cc001b00000004000000100000001b000000c5
:1015dc0004000000100000001b00000004000000cc
:1015ec00100000001a0000000400000010000000b1
:1015fc001a00000004000000100000001a00000097
:10160c0004000000100000001a000000040000009c
:10161c00100000001a000000040000001000000080
:10162c001a00000004000000100000001a00000066
:10163c00040000001000000019000000040000006d
:10164c001000000019000000040000001000000051
:10165c001900000004000000100000001900000038
:10166c00040000001000000019000000040000003d
:10167c001000000019000000040000001000000021
:10168c001900000004000000100000001900000008
:10169c00040000001000000018000000040000000e
:1016ac0010000000180000000400000010000000f2
:1016bc0018000000040000001000000018000000da
:1016cc0004000000100000001800000004000000de
:1016dc0010000000180000000400000010000000c2
:1016ec0018000000040000001000000018000000aa
:1016fc0004000000100000001700000004000000af
:10170c001000000017000000040000001000000092
:10171c00170000000400000010000000170000007b
:10172c00040000001000000017000000040000007e
:10173c001000000017000000040000001000000062
:10174c00170000000400000010000000170000004b
:10175c00040000001000000017000000040000004e
:10176c001000000016000000040000001000000033
:10177c00160000000400000010000000160000001d
:10178c00040000001000000016000000040000001f
:10179c001000000016000000040000001000000003
:1017ac0016000000040000001000000016000000ed
:1017bc0004000000100000001600000004000000ef
:1017cc0010000000160000000400000010000000d3
:1017dc0016000000040000001000000015000000be
:1017ec0004000000100000001500000004000000c0
:1017fc0010000000150000000400000010000000a4
:10180c00150000000400000010000000150000008e
:10181c00040000001000000015000000040000008f
:10182c001000000015000000040000001000000073
:10183c00150000000400000010000000150000005e
:10184c00040000001000000015000000040000005f
:10185c001000000015000000040000001000000043
:10186c001400000004000000100000001400000030
:10187c000400000010000000140000000400000030
:10188c001000000014000000040000001000000014
:10189c001400000004000000100000001400000000
:1018ac000400000010000000140000000400000000
:1018bc0010000000140000000400000010000000e4
:1018cc0014000000040000001000000014000000d0
:1018dc0004000000100000001400000004000000d0
:0818ec001000000014000000d0
:020000040000fa
:1018f4000200fa00889fbe000002eb00040f78008b
:10190400480037001e027800cfa2de000400be00ab
:1019140046fb07000004be0064498000cfa2de003d
:101924000400be0041fb07000002be000401be002b
:101934000800be00e0fa07000002be00b2fd20006d
:1019440093fc23000400be008efb07000002be00cf
:101954000400be0028fc07000002be00c21e2500d1
:10196400833b24000400be0086fb07000002be0087
:101974000400be0012fb07000002be00040278004f
:10198400244888001e027800cfa2de000400be00b6
:1019940026fb07000004be0064498000cfa2de00dd
:1019a4000400be0021fb07000002be000401be00cb
:1019b4000800be00c0fa07000002be00b2fd20000d
:1019c40093fc23000400be006efb07000002be006f
:1019d4000400be00b6fa07000002be00c21e2500c5
:1019e400833b24000400be0066fb07000002be0027
:1019f4000400be00f2fa07000002be0004027800f0
:101a04003448880024488000354880001e0378004c
:101a1400c233dd000680200006834300048bbe0031
:101a24001e0fe800644980009e027800848f5200f3
:101a3400b4ff3400de22a900de02a900d3a2a9006b
:101a4400d382a900e022a800e002a800d5a2a80041
:101a5400d582a800d2e2a900d2c2a900d2a2a900cc
:101a6400d282a900d262a900d242a900d222a9003e
:101a7400d202a900d4e2a900d4c2a900d4a2a90028
:101a8400d482a900d462a900d442a900d422a90016
:101a9400d402a9000002eb00740d88000002eb00e0
:101aa400540d88000002eb00640d8800740d800062
:101ab4000400a1000410a0000420a000740d8800fc
:101ac400ae61a9000002eb00440d88000002eb00a7
:101ad400240d88000082eb00340d8800440d800042
:101ae4000400a0000410a1000420a000440d8800fc
:101af400a861a9000002eb00140d88000002eb00ad
:101b0400f40c88000002eb00040d8800140d800022
:101b14000400a1000410a0000420a000140d8800fb
:101b2400a261a9000002eb00e40c88000002eb00b3
:101b3400c40c88000082eb00d40c8800e40c800004
:101b44000400a0000410a1000420a000e40c8800fc
:101b54009c61a9000002eb00b40c88000002eb00b9
:101b6400940c88000002eb00a40c8800b40c8000e4
:101b74000400a1000410a0000420a000b40c8800fc
:101b84009661a9000002eb00840c88000002eb00bf
:101b9400640c88000002eb00740c8800840c800044
:101ba4000400a1000410a0000420a000840c8800fc
:101bb4009061a9000002eb00540c88000002eb00c5
:101bc400340c88000002eb00440c8800540c8000a4
:101bd4000400a1000410a0000420a000540c8800fc
:101be4008a61a9000002eb00240c88001400200084
:101bf400040c88000002eb00140c8800240c800004
:101c04000400a1000410a0000420a000240c8800fb
:101c14008461a9000002eb00840888000002eb0044
:101c240034088800840880000440a1000450a10006
:101c3400840888000417200064088800b404800025
:101c44000480a0000490a00004a0a100b4048800b3
:101c540084c0a9008cc0a80011e1a800a448800099
:101c64006622b900040278008482e800e46928004e
:101c7400048242001402780094488800a44880003a
:101c84006622b90004027800e4024200e4692800f4
:101c94000482420014027800744988004f04be0094
:101ca4000080fa00000006003600f800809fbe00a5
:101cb400849fbe000000fa0084c0a900654880002b
:101cc40064498000110009008402d80000027800f1
:101cd400e00f52006f003a006548800064498000bc
:101ce400110009008402d8000102780084027800ff
:101cf4008448800004824200c222dd000480200067
:101d0400048242001402be0024488800354888003a
:101d1400740d800067026200e60f52000500320075
:101d2400740d80000400a1000410a0000420a00091
:101d3400740d8800440d800067026200e50f5200b4
:101d440005003200440d80000400a0000410a1002e
:101d54000420a000440d880024488000540d88000d
:101d6400c4488000340d8800d4488000240d8800c5
:101d7400540d8000c4488800c4488000ea02420030
:101d840064088000848f520006003900440d8000ee
:101d94000400a1000410a1000420a100440d880047
:101da40005003700440d80000400a0000410a100c9
:101db4000420a000440d880065088000c448800009
:101dc400848252004448800004aab9008402780046
:101dd40044062000110009008482d8000002780023
:101de40084027800c4488000048242000482e8002f
:101df400d448880034488000f40c8800e44880000b
:101e0400d40c8800f4488000c40c8800f40c8000d2
:101e1400e4488800e4488000ea0242006408800044
:101e2400848f520006003900e40c80000400a100f5
:101e34000410a1000420a100e40c88000500370070
:101e4400e40c80000400a0000410a1000420a00001
:101e5400e40c880065088000e44880008482520015
:101e64004449800004aab900840278004406200092
:101e7400110009008482d8000002780084027800ee
:101e8400e4488000048242000482e800f4488800a8
:101e9400630137006548800064498000110009002f
:101ea4008402d80000027800e10f52006f003a006b
:101eb4006548800064498000110009008402d8004c
:101ec4000102780084027800844880000482420081
:101ed400c222dd0004802000048242001402be00fd
:101ee400244888003548880034488000540d880010
:101ef400c4488000340d8800d4488000240d880034
:101f0400540d8000c4488800c4488000ea0242009e
:101f140064088000848f520006003900440d80005c
:101f24000400a1000410a1000420a100440d8800b5
:101f340005003700440d80000400a0000410a10037
:101f44000420a000440d880065088000c448800077
:101f5400848252004449800004aab90084027800b3
:101f640044062000110009008482d8000002780091
:101f740084027800c4488000048242000482e8009d
:101f8400d4488800140d800067026200e50f5200f7
:101f940005003200140d80000400a0000410a1000c
:101fa4000420a000140d8800e40c80006702620085
:101fb400e60f520005003200e40c80000400a1008a
:101fc4000410a0000420a000e40c88002448800031
:101fd400c40c880004498000040d88001449800062
:101fe400f40c8800c40c8000044988000449800073
:101ff400ea02420064088000848f5200060039001f
:10200400140d80000400a1000410a1000420a1000c
:10201400140d880005003700140d80000400a00092
:102024000410a1000420a000140d8800650880009d
:1020340004498000848252004448800004aab90004
:102044008402780044062000110009008482d8002c
:10205400000278008402780004498000048242006f
:102064000482e80014498800ed00370065488000c8
:1020740064498000110009008402d800000278003d
:10208400e20f520071003a00654880006449800004
:10209400110009008402d80001027800840278004b
:1020a4008448800004824200c222dd0004802000b3
:1020b400048242001402be00244888003548880087
:1020c400440d800067026200e60f520005003200f2
:1020d400440d80000400a1000410a0000420a0000e
:1020e400440d8800740d800067026200e50f520001
:1020f40005003200740d80000400a0000410a1004b
:102104000420a000740d880024488000240d880059
:1021140024488000240d880024498000640d880030
:1021240034498000540d8800240d8000244988001f
:1021340024498000ea02420064088000848f52002f
:1021440006003900740d80000400a1000410a100f1
:102154000420a100740d880005003700740d800070
:102164000400a0000410a1000420a000740d880045
:10217400650880002449800084825200444880001d
:1021840004aab90084027800440620001100090062
:102194008482d800000278008402780024498000f8
:1021a400048242000482e8003449880034488000f4
:1021b400c40c880004498000040d88001449800080
:1021c400f40c8800c40c8000044988000449800091
:1021d400ea02420064088000848f5200060039003d
:1021e400140d80000400a1000410a1000420a1002b
:1021f400140d880005003700140d80000400a000b1
:102204000410a1000420a000140d880065088000bb
:1022140004498000848252004449800004aab90021
:102224008402780044062000110009008482d8004a
:10223400000278008402780004498000048242008d
:102244000482e8001449880075003700654880005e
:1022540064498000110009008402d800000278005b
:10226400e30f52006e003a00654880006449800024
:10227400110009008402d800010278008402780069
:102284008448800004824200c222dd0004802000d1
:10229400048242001402be002448880035488800a5
:1022a40034488000240d880024498000640d88008f
:1022b40034498000540d8800240d8000244988008e
:1022c40024498000ea02420064088000848f52009e
:1022d40006003900740d80000400a1000410a10060
:1022e4000420a100740d880005003700740d8000df
:1022f4000400a0000410a1000420a000740d8800b4
:10230400650880002449800084825200444980008a
:1023140004aab900840278004406200011000900d0
:102324008482d80000027800840278002449800066
:10233400048242000482e80034498800140d8000bd
:1023440067026200e60f520005003200140d80009f
:102354000400a1000410a0000420a000140d8800b3
:10236400e40c800067026200e50f520005003200b1
:10237400e40c80000400a0000410a1000420a000cc
:10238400e40c880024488000f40c8800e4488000b1
:10239400d40c8800f4488000c40c8800f40c80003d
:1023a400e4488800e4488000ea02420064088000af
:1023b400848f520006003900e40c80000400a10060
:1023c4000410a1000420a100e40c880005003700db
:1023d400e40c80000400a0000410a1000420a0006c
:1023e400e40c880065088000e44880008482520080
:1023f4004448800004aab9008402780044062000fe
:10240400110009008482d800000278008402780058
:10241400e4488000048242000482e800f448880012
:10242400544880000402e80054488800554880005d
:1024340074498000848f5200210034000002eb00b4
:102444005448880084498000e10f52000e003a008d
:102454006548800084488000048242006448880003
:1024640064498000c222dd0064488000848f5200e9
:1024740013003c000002eb0064488800944880008c
:10248400844888000e003700654880008448800036
:10249400048252006448880064488000e00f5200bf
:1024a40007003d0094488000844888006449800007
:1024b400c222dd00844880000482520064488800ff
:1024c400a44880006622b900040278008482e800ef
:1024d400e4692800048242001402780094488800c9
:1024e400a44880006622b90004027800e402420095
:1024f400e4692800048242001402780074498800c8
:1025040014002000b44888000080fa004f02be0086
:0c2514004f00be003600f9000040060039
:020000040000fa
:102520000008000028010000000000002809000049
:102530000a000000020000000a0000007d100000f8
:1025400064000100000000003c09000004000000dd
:1025500000000000320900000a0000000200000034
:10256000a086010000010000007dc80000000000fe
:102570004009000002000000000000000000000010
:020000040000fa
:102580000400fa00dbfc07000400200005f823002b
:10259000048fbe001e02be000401be000400be0087
:1025a00067f707000002be00048fbe00ffff370080
:020000040000fa
:0200000401f009
:04000000e5bf000058
:020000040000fa
:0200000401f009
:04000400ff7f00007a
:020000040000fa
:0200000401f009
:04000800ffff0000f6
:00000001FF
